{
  "contractName": "BasicTournament",
  "abi": [
    {
      "constant": true,
      "inputs": [],
      "name": "cfoAddress",
      "outputs": [
        {
          "name": "",
          "type": "address"
        }
      ],
      "payable": false,
      "stateMutability": "view",
      "type": "function"
    },
    {
      "constant": true,
      "inputs": [],
      "name": "getBlueMoldParameters",
      "outputs": [
        {
          "name": "",
          "type": "uint256"
        },
        {
          "name": "",
          "type": "uint256"
        },
        {
          "name": "",
          "type": "uint256"
        },
        {
          "name": "",
          "type": "uint256"
        }
      ],
      "payable": false,
      "stateMutability": "view",
      "type": "function"
    },
    {
      "constant": true,
      "inputs": [],
      "name": "ceoAddress",
      "outputs": [
        {
          "name": "",
          "type": "address"
        }
      ],
      "payable": false,
      "stateMutability": "view",
      "type": "function"
    },
    {
      "constant": true,
      "inputs": [],
      "name": "GATE_KEEPER",
      "outputs": [
        {
          "name": "",
          "type": "address"
        }
      ],
      "payable": false,
      "stateMutability": "view",
      "type": "function"
    },
    {
      "constant": false,
      "inputs": [
        {
          "name": "pauseDuration",
          "type": "uint256"
        }
      ],
      "name": "pause",
      "outputs": [],
      "payable": false,
      "stateMutability": "nonpayable",
      "type": "function"
    },
    {
      "constant": false,
      "inputs": [
        {
          "name": "newCfo",
          "type": "address"
        }
      ],
      "name": "setCfo",
      "outputs": [],
      "payable": false,
      "stateMutability": "nonpayable",
      "type": "function"
    },
    {
      "constant": true,
      "inputs": [],
      "name": "duelResolver",
      "outputs": [
        {
          "name": "",
          "type": "address"
        }
      ],
      "payable": false,
      "stateMutability": "view",
      "type": "function"
    },
    {
      "constant": false,
      "inputs": [
        {
          "name": "newCeo",
          "type": "address"
        }
      ],
      "name": "setCeo",
      "outputs": [],
      "payable": false,
      "stateMutability": "nonpayable",
      "type": "function"
    },
    {
      "constant": true,
      "inputs": [],
      "name": "getTimeParameters",
      "outputs": [
        {
          "name": "tournamentStartBlock",
          "type": "uint256"
        },
        {
          "name": "pauseEndedBlock",
          "type": "uint256"
        },
        {
          "name": "admissionDuration",
          "type": "uint256"
        },
        {
          "name": "revivalDuration",
          "type": "uint256"
        },
        {
          "name": "duelTimeoutDuration",
          "type": "uint256"
        },
        {
          "name": "ascensionWindowStart",
          "type": "uint256"
        },
        {
          "name": "ascensionWindowDuration",
          "type": "uint256"
        },
        {
          "name": "fightWindowStart",
          "type": "uint256"
        },
        {
          "name": "fightWindowDuration",
          "type": "uint256"
        },
        {
          "name": "resolutionWindowStart",
          "type": "uint256"
        },
        {
          "name": "resolutionWindowDuration",
          "type": "uint256"
        },
        {
          "name": "cullingWindowStart",
          "type": "uint256"
        },
        {
          "name": "cullingWindowDuration",
          "type": "uint256"
        }
      ],
      "payable": false,
      "stateMutability": "view",
      "type": "function"
    },
    {
      "constant": false,
      "inputs": [
        {
          "name": "newCoo",
          "type": "address"
        }
      ],
      "name": "setCoo",
      "outputs": [],
      "payable": false,
      "stateMutability": "nonpayable",
      "type": "function"
    },
    {
      "constant": true,
      "inputs": [],
      "name": "powerScale",
      "outputs": [
        {
          "name": "",
          "type": "uint256"
        }
      ],
      "payable": false,
      "stateMutability": "view",
      "type": "function"
    },
    {
      "constant": true,
      "inputs": [],
      "name": "cooAddress",
      "outputs": [
        {
          "name": "",
          "type": "address"
        }
      ],
      "payable": false,
      "stateMutability": "view",
      "type": "function"
    },
    {
      "constant": true,
      "inputs": [],
      "name": "isPaused",
      "outputs": [
        {
          "name": "",
          "type": "bool"
        }
      ],
      "payable": false,
      "stateMutability": "view",
      "type": "function"
    },
    {
      "constant": true,
      "inputs": [],
      "name": "WIZARD_GUILD",
      "outputs": [
        {
          "name": "",
          "type": "address"
        }
      ],
      "payable": false,
      "stateMutability": "view",
      "type": "function"
    },
    {
      "inputs": [
        {
          "name": "cooAddress_",
          "type": "address"
        },
        {
          "name": "duelResolver_",
          "type": "address"
        },
        {
          "name": "powerScale_",
          "type": "uint256"
        },
        {
          "name": "tournamentStartBlock_",
          "type": "uint40"
        },
        {
          "name": "admissionDuration_",
          "type": "uint32"
        },
        {
          "name": "revivalDuration_",
          "type": "uint32"
        },
        {
          "name": "ascensionDuration_",
          "type": "uint24"
        },
        {
          "name": "fightDuration_",
          "type": "uint24"
        },
        {
          "name": "cullingDuration_",
          "type": "uint24"
        },
        {
          "name": "blueMoldBasePower_",
          "type": "uint88"
        },
        {
          "name": "sessionsBetweenMoldDoubling_",
          "type": "uint24"
        },
        {
          "name": "duelTimeoutBlocks_",
          "type": "uint24"
        }
      ],
      "payable": false,
      "stateMutability": "nonpayable",
      "type": "constructor"
    },
    {
      "payable": true,
      "stateMutability": "payable",
      "type": "fallback"
    },
    {
      "anonymous": false,
      "inputs": [
        {
          "indexed": false,
          "name": "duelId",
          "type": "bytes32"
        },
        {
          "indexed": false,
          "name": "wizardId1",
          "type": "uint256"
        },
        {
          "indexed": false,
          "name": "wizardId2",
          "type": "uint256"
        },
        {
          "indexed": false,
          "name": "timeoutBlock",
          "type": "uint256"
        },
        {
          "indexed": false,
          "name": "isAscensionBattle",
          "type": "bool"
        },
        {
          "indexed": false,
          "name": "commit1",
          "type": "bytes32"
        },
        {
          "indexed": false,
          "name": "commit2",
          "type": "bytes32"
        }
      ],
      "name": "DuelStart",
      "type": "event"
    },
    {
      "anonymous": false,
      "inputs": [
        {
          "indexed": false,
          "name": "duelId",
          "type": "bytes32"
        },
        {
          "indexed": false,
          "name": "wizardId1",
          "type": "uint256"
        },
        {
          "indexed": false,
          "name": "wizardId2",
          "type": "uint256"
        },
        {
          "indexed": false,
          "name": "moveSet1",
          "type": "bytes32"
        },
        {
          "indexed": false,
          "name": "moveSet2",
          "type": "bytes32"
        },
        {
          "indexed": false,
          "name": "power1",
          "type": "uint256"
        },
        {
          "indexed": false,
          "name": "power2",
          "type": "uint256"
        }
      ],
      "name": "DuelEnd",
      "type": "event"
    },
    {
      "anonymous": false,
      "inputs": [
        {
          "indexed": false,
          "name": "committingWizardId",
          "type": "uint256"
        },
        {
          "indexed": false,
          "name": "otherWizardId",
          "type": "uint256"
        },
        {
          "indexed": false,
          "name": "committingWizardNonce",
          "type": "uint256"
        },
        {
          "indexed": false,
          "name": "otherWizardNonce",
          "type": "uint256"
        },
        {
          "indexed": false,
          "name": "commitment",
          "type": "bytes32"
        }
      ],
      "name": "OneSidedCommitAdded",
      "type": "event"
    },
    {
      "anonymous": false,
      "inputs": [
        {
          "indexed": false,
          "name": "wizardId",
          "type": "uint256"
        }
      ],
      "name": "OneSidedCommitCancelled",
      "type": "event"
    },
    {
      "anonymous": false,
      "inputs": [
        {
          "indexed": false,
          "name": "duelId",
          "type": "bytes32"
        },
        {
          "indexed": false,
          "name": "committingWizardId",
          "type": "uint256"
        },
        {
          "indexed": false,
          "name": "otherWizardId",
          "type": "uint256"
        }
      ],
      "name": "OneSidedRevealAdded",
      "type": "event"
    },
    {
      "anonymous": false,
      "inputs": [
        {
          "indexed": false,
          "name": "duelId",
          "type": "bytes32"
        },
        {
          "indexed": false,
          "name": "wizardId1",
          "type": "uint256"
        },
        {
          "indexed": false,
          "name": "wizardId2",
          "type": "uint256"
        },
        {
          "indexed": false,
          "name": "power1",
          "type": "uint256"
        },
        {
          "indexed": false,
          "name": "power2",
          "type": "uint256"
        }
      ],
      "name": "DuelTimeOut",
      "type": "event"
    },
    {
      "anonymous": false,
      "inputs": [
        {
          "indexed": false,
          "name": "wizardId",
          "type": "uint256"
        }
      ],
      "name": "WizardElimination",
      "type": "event"
    },
    {
      "anonymous": false,
      "inputs": [
        {
          "indexed": false,
          "name": "wizardId",
          "type": "uint256"
        }
      ],
      "name": "AscensionStart",
      "type": "event"
    },
    {
      "anonymous": false,
      "inputs": [
        {
          "indexed": false,
          "name": "wizardId1",
          "type": "uint256"
        },
        {
          "indexed": false,
          "name": "wizardId2",
          "type": "uint256"
        }
      ],
      "name": "AscensionPairUp",
      "type": "event"
    },
    {
      "anonymous": false,
      "inputs": [
        {
          "indexed": false,
          "name": "wizardId",
          "type": "uint256"
        },
        {
          "indexed": false,
          "name": "power",
          "type": "uint256"
        }
      ],
      "name": "AscensionComplete",
      "type": "event"
    },
    {
      "anonymous": false,
      "inputs": [
        {
          "indexed": false,
          "name": "ascendingWizardId",
          "type": "uint256"
        },
        {
          "indexed": false,
          "name": "challengingWizardId",
          "type": "uint256"
        },
        {
          "indexed": false,
          "name": "commitment",
          "type": "bytes32"
        }
      ],
      "name": "AscensionChallenged",
      "type": "event"
    },
    {
      "anonymous": false,
      "inputs": [
        {
          "indexed": false,
          "name": "wizId",
          "type": "uint256"
        },
        {
          "indexed": false,
          "name": "power",
          "type": "uint256"
        }
      ],
      "name": "Revive",
      "type": "event"
    },
    {
      "anonymous": false,
      "inputs": [
        {
          "indexed": false,
          "name": "sendingWizId",
          "type": "uint256"
        },
        {
          "indexed": false,
          "name": "receivingWizId",
          "type": "uint256"
        },
        {
          "indexed": false,
          "name": "amountTransferred",
          "type": "uint256"
        },
        {
          "indexed": false,
          "name": "reason",
          "type": "uint8"
        }
      ],
      "name": "PowerTransferred",
      "type": "event"
    },
    {
      "anonymous": false,
      "inputs": [
        {
          "indexed": false,
          "name": "claimingWinnerId",
          "type": "uint256"
        },
        {
          "indexed": false,
          "name": "prizeAmount",
          "type": "uint256"
        }
      ],
      "name": "PrizeClaimed",
      "type": "event"
    },
    {
      "anonymous": false,
      "inputs": [
        {
          "indexed": false,
          "name": "pauseEndedBlock",
          "type": "uint256"
        }
      ],
      "name": "Paused",
      "type": "event"
    },
    {
      "anonymous": false,
      "inputs": [
        {
          "indexed": false,
          "name": "previousCeo",
          "type": "address"
        },
        {
          "indexed": false,
          "name": "newCeo",
          "type": "address"
        }
      ],
      "name": "CEOTransferred",
      "type": "event"
    },
    {
      "anonymous": false,
      "inputs": [
        {
          "indexed": false,
          "name": "previousCoo",
          "type": "address"
        },
        {
          "indexed": false,
          "name": "newCoo",
          "type": "address"
        }
      ],
      "name": "COOTransferred",
      "type": "event"
    },
    {
      "anonymous": false,
      "inputs": [
        {
          "indexed": false,
          "name": "previousCfo",
          "type": "address"
        },
        {
          "indexed": false,
          "name": "newCfo",
          "type": "address"
        }
      ],
      "name": "CFOTransferred",
      "type": "event"
    },
    {
      "constant": true,
      "inputs": [],
      "name": "getRemainingWizards",
      "outputs": [
        {
          "name": "",
          "type": "uint256"
        }
      ],
      "payable": false,
      "stateMutability": "view",
      "type": "function"
    },
    {
      "constant": true,
      "inputs": [],
      "name": "getAscendingWizardId",
      "outputs": [
        {
          "name": "",
          "type": "uint256"
        }
      ],
      "payable": false,
      "stateMutability": "view",
      "type": "function"
    },
    {
      "constant": true,
      "inputs": [
        {
          "name": "interfaceId",
          "type": "bytes4"
        }
      ],
      "name": "supportsInterface",
      "outputs": [
        {
          "name": "",
          "type": "bool"
        }
      ],
      "payable": false,
      "stateMutability": "view",
      "type": "function"
    },
    {
      "constant": true,
      "inputs": [],
      "name": "isActive",
      "outputs": [
        {
          "name": "",
          "type": "bool"
        }
      ],
      "payable": false,
      "stateMutability": "view",
      "type": "function"
    },
    {
      "constant": true,
      "inputs": [
        {
          "name": "wizardId",
          "type": "uint256"
        }
      ],
      "name": "getWizard",
      "outputs": [
        {
          "name": "affinity",
          "type": "uint256"
        },
        {
          "name": "power",
          "type": "uint256"
        },
        {
          "name": "maxPower",
          "type": "uint256"
        },
        {
          "name": "nonce",
          "type": "uint256"
        },
        {
          "name": "currentDuel",
          "type": "bytes32"
        },
        {
          "name": "ascending",
          "type": "bool"
        },
        {
          "name": "ascensionOpponent",
          "type": "uint256"
        },
        {
          "name": "molded",
          "type": "bool"
        },
        {
          "name": "ready",
          "type": "bool"
        }
      ],
      "payable": false,
      "stateMutability": "view",
      "type": "function"
    },
    {
      "constant": true,
      "inputs": [
        {
          "name": "wizardId",
          "type": "uint256"
        }
      ],
      "name": "wizardFingerprint",
      "outputs": [
        {
          "name": "",
          "type": "bytes32"
        }
      ],
      "payable": false,
      "stateMutability": "view",
      "type": "function"
    },
    {
      "constant": true,
      "inputs": [
        {
          "name": "wizardId",
          "type": "uint256"
        }
      ],
      "name": "isReady",
      "outputs": [
        {
          "name": "",
          "type": "bool"
        }
      ],
      "payable": false,
      "stateMutability": "view",
      "type": "function"
    },
    {
      "constant": false,
      "inputs": [
        {
          "name": "wizardIds",
          "type": "uint256[]"
        },
        {
          "name": "powers",
          "type": "uint88[]"
        }
      ],
      "name": "enterWizards",
      "outputs": [],
      "payable": true,
      "stateMutability": "payable",
      "type": "function"
    },
    {
      "constant": false,
      "inputs": [
        {
          "name": "wizardId",
          "type": "uint256"
        }
      ],
      "name": "revive",
      "outputs": [],
      "payable": true,
      "stateMutability": "payable",
      "type": "function"
    },
    {
      "constant": false,
      "inputs": [
        {
          "name": "wizardId",
          "type": "uint256"
        }
      ],
      "name": "updateAffinity",
      "outputs": [],
      "payable": false,
      "stateMutability": "nonpayable",
      "type": "function"
    },
    {
      "constant": false,
      "inputs": [
        {
          "name": "wizardId",
          "type": "uint256"
        }
      ],
      "name": "startAscension",
      "outputs": [],
      "payable": false,
      "stateMutability": "nonpayable",
      "type": "function"
    },
    {
      "constant": false,
      "inputs": [
        {
          "name": "wizardId",
          "type": "uint256"
        },
        {
          "name": "commitment",
          "type": "bytes32"
        }
      ],
      "name": "challengeAscending",
      "outputs": [],
      "payable": false,
      "stateMutability": "nonpayable",
      "type": "function"
    },
    {
      "constant": false,
      "inputs": [
        {
          "name": "commitment",
          "type": "bytes32"
        }
      ],
      "name": "acceptAscensionChallenge",
      "outputs": [],
      "payable": false,
      "stateMutability": "nonpayable",
      "type": "function"
    },
    {
      "constant": false,
      "inputs": [],
      "name": "completeAscension",
      "outputs": [],
      "payable": false,
      "stateMutability": "nonpayable",
      "type": "function"
    },
    {
      "constant": false,
      "inputs": [
        {
          "name": "committingWizardId",
          "type": "uint256"
        },
        {
          "name": "otherWizardId",
          "type": "uint256"
        },
        {
          "name": "commitment",
          "type": "bytes32"
        }
      ],
      "name": "oneSidedCommit",
      "outputs": [],
      "payable": false,
      "stateMutability": "nonpayable",
      "type": "function"
    },
    {
      "constant": false,
      "inputs": [
        {
          "name": "wizardId",
          "type": "uint256"
        }
      ],
      "name": "cancelCommitment",
      "outputs": [],
      "payable": false,
      "stateMutability": "nonpayable",
      "type": "function"
    },
    {
      "constant": false,
      "inputs": [
        {
          "name": "wizardId1",
          "type": "uint256"
        },
        {
          "name": "wizardId2",
          "type": "uint256"
        },
        {
          "name": "commit1",
          "type": "bytes32"
        },
        {
          "name": "commit2",
          "type": "bytes32"
        },
        {
          "name": "sig1",
          "type": "bytes"
        },
        {
          "name": "sig2",
          "type": "bytes"
        }
      ],
      "name": "doubleCommit",
      "outputs": [
        {
          "name": "duelId",
          "type": "bytes32"
        }
      ],
      "payable": false,
      "stateMutability": "nonpayable",
      "type": "function"
    },
    {
      "constant": false,
      "inputs": [
        {
          "name": "committingWizardId",
          "type": "uint256"
        },
        {
          "name": "commit",
          "type": "bytes32"
        },
        {
          "name": "moveSet",
          "type": "bytes32"
        },
        {
          "name": "salt",
          "type": "bytes32"
        },
        {
          "name": "otherWizardId",
          "type": "uint256"
        },
        {
          "name": "otherCommit",
          "type": "bytes32"
        }
      ],
      "name": "oneSidedReveal",
      "outputs": [],
      "payable": false,
      "stateMutability": "nonpayable",
      "type": "function"
    },
    {
      "constant": false,
      "inputs": [
        {
          "name": "wizardId1",
          "type": "uint256"
        },
        {
          "name": "wizardId2",
          "type": "uint256"
        },
        {
          "name": "commit1",
          "type": "bytes32"
        },
        {
          "name": "commit2",
          "type": "bytes32"
        },
        {
          "name": "moveSet1",
          "type": "bytes32"
        },
        {
          "name": "moveSet2",
          "type": "bytes32"
        },
        {
          "name": "salt1",
          "type": "bytes32"
        },
        {
          "name": "salt2",
          "type": "bytes32"
        }
      ],
      "name": "doubleReveal",
      "outputs": [],
      "payable": false,
      "stateMutability": "nonpayable",
      "type": "function"
    },
    {
      "constant": false,
      "inputs": [
        {
          "name": "wizardId",
          "type": "uint256"
        }
      ],
      "name": "resolveOneSidedAscensionBattle",
      "outputs": [],
      "payable": false,
      "stateMutability": "nonpayable",
      "type": "function"
    },
    {
      "constant": false,
      "inputs": [
        {
          "name": "wizardId1",
          "type": "uint256"
        },
        {
          "name": "wizardId2",
          "type": "uint256"
        }
      ],
      "name": "resolveTimedOutDuel",
      "outputs": [],
      "payable": false,
      "stateMutability": "nonpayable",
      "type": "function"
    },
    {
      "constant": false,
      "inputs": [
        {
          "name": "sendingWizardId",
          "type": "uint256"
        },
        {
          "name": "receivingWizardId",
          "type": "uint256"
        }
      ],
      "name": "giftPower",
      "outputs": [],
      "payable": false,
      "stateMutability": "nonpayable",
      "type": "function"
    },
    {
      "constant": false,
      "inputs": [
        {
          "name": "wizardIds",
          "type": "uint256[]"
        },
        {
          "name": "survivor",
          "type": "uint256"
        }
      ],
      "name": "cullMoldedWithSurvivor",
      "outputs": [],
      "payable": false,
      "stateMutability": "nonpayable",
      "type": "function"
    },
    {
      "constant": false,
      "inputs": [
        {
          "name": "moldyWizardIds",
          "type": "uint256[]"
        }
      ],
      "name": "cullMoldedWithMolded",
      "outputs": [],
      "payable": false,
      "stateMutability": "nonpayable",
      "type": "function"
    },
    {
      "constant": false,
      "inputs": [
        {
          "name": "wizardIds",
          "type": "uint256[]"
        }
      ],
      "name": "cullTiredWizards",
      "outputs": [],
      "payable": false,
      "stateMutability": "nonpayable",
      "type": "function"
    },
    {
      "constant": false,
      "inputs": [
        {
          "name": "claimingWinnerId",
          "type": "uint256"
        }
      ],
      "name": "claimTheBigCheeze",
      "outputs": [],
      "payable": false,
      "stateMutability": "nonpayable",
      "type": "function"
    },
    {
      "constant": false,
      "inputs": [
        {
          "name": "claimingWinnerId",
          "type": "uint256"
        },
        {
          "name": "allWinners",
          "type": "uint256[]"
        }
      ],
      "name": "claimSharedWinnings",
      "outputs": [],
      "payable": false,
      "stateMutability": "nonpayable",
      "type": "function"
    },
    {
      "constant": false,
      "inputs": [],
      "name": "destroy",
      "outputs": [],
      "payable": false,
      "stateMutability": "nonpayable",
      "type": "function"
    }
  ],
  "bytecode": "0x60806040523480156200001157600080fd5b506040516101808062005fcb83398101806040526101808110156200003557600080fd5b50805160208083015160408401516060850151608086015160a087015160c088015160e08901516101008a01516101208b01516101408c0151610160909c01519a9b989a9799969895979496939592949193909291908c908a908a908a908a908a908a9088908b908b908a90600090620000b590339062000b33811b901c565b620000c68262000b9d60201b60201c565b6001600160a01b03811615620000e757620000e78162000c9260201b60201c565b5050438964ffffffffff16116200015f57604080517f08c379a000000000000000000000000000000000000000000000000000000000815260206004820152601260248201527f496e76616c69642073746172742074696d650000000000000000000000000000604482015290519081900360640190fd5b60148362ffffff161015620001d557604080517f08c379a000000000000000000000000000000000000000000000000000000000815260206004820152601160248201527f54696d656f757420746f6f2073686f7274000000000000000000000000000000604482015290519081900360640190fd5b8062ffffff16826001600160581b03168562ffffff168762ffffff168962ffffff168b63ffffffff168d63ffffffff160202020202026000141562000266576040517f08c379a000000000000000000000000000000000000000000000000000000000815260040180806020018281038252602381526020018062005fa86023913960400191505060405180910390fd5b8262ffffff166002028562ffffff161015620002e357604080517f08c379a000000000000000000000000000000000000000000000000000000000815260206004820152601660248201527f46696768742077696e646f7720746f6f2073686f727400000000000000000000604482015290519081900360640190fd5b8262ffffff168462ffffff1610156200035d57604080517f08c379a000000000000000000000000000000000000000000000000000000000815260206004820152601860248201527f43756c6c696e672077696e646f7720746f6f2073686f72740000000000000000604482015290519081900360640190fd5b62ffffff86860184018501168063ffffffff8916816200037957fe5b0663ffffffff16600014620003ef57604080517f08c379a000000000000000000000000000000000000000000000000000000000815260206004820152601f60248201527f5265766976616c2f53657373696f6e206c656e677468206d69736d6174636800604482015290519081900360640190fd5b6040518060a001604052808b64ffffffffff1665ffffffffffff168152602001600065ffffffffffff1681526020018a63ffffffff1681526020018963ffffffff1681526020018562ffffff1663ffffffff16815250600360008201518160000160006101000a81548165ffffffffffff021916908365ffffffffffff16021790555060208201518160000160066101000a81548165ffffffffffff021916908365ffffffffffff160217905550604082015181600001600c6101000a81548163ffffffff021916908363ffffffff16021790555060608201518160000160106101000a81548163ffffffff021916908363ffffffff16021790555060808201518160000160146101000a81548163ffffffff021916908363ffffffff16021790555090505060008963ffffffff168b64ffffffffff1601905060405180608001604052808a63ffffffff16830165ffffffffffff168152602001600065ffffffffffff1681526020018363ffffffff1681526020018962ffffff1663ffffffff16815250600460008201518160000160006101000a81548165ffffffffffff021916908365ffffffffffff16021790555060208201518160000160066101000a81548165ffffffffffff021916908365ffffffffffff160217905550604082015181600001600c6101000a81548163ffffffff021916908363ffffffff16021790555060608201518160000160106101000a81548163ffffffff021916908363ffffffff16021790555090505060405180608001604052808962ffffff16830165ffffffffffff168152602001600065ffffffffffff1681526020018363ffffffff1681526020018862ffffff1663ffffffff16815250600560008201518160000160006101000a81548165ffffffffffff021916908365ffffffffffff16021790555060208201518160000160066101000a81548165ffffffffffff021916908365ffffffffffff160217905550604082015181600001600c6101000a81548163ffffffff021916908363ffffffff16021790555060608201518160000160106101000a81548163ffffffff021916908363ffffffff16021790555090505060405180608001604052808862ffffff168a62ffffff1684010165ffffffffffff168152602001600065ffffffffffff1681526020018363ffffffff1681526020018662ffffff1663ffffffff16815250600660008201518160000160006101000a81548165ffffffffffff021916908365ffffffffffff16021790555060208201518160000160066101000a81548165ffffffffffff021916908365ffffffffffff160217905550604082015181600001600c6101000a81548163ffffffff021916908363ffffffff16021790555060608201518160000160106101000a81548163ffffffff021916908363ffffffff16021790555090505060405180608001604052808662ffffff168962ffffff168b62ffffff168d63ffffffff16860101010165ffffffffffff168152602001600065ffffffffffff1681526020018363ffffffff1681526020018762ffffff1663ffffffff16815250600760008201518160000160006101000a81548165ffffffffffff021916908365ffffffffffff16021790555060208201518160000160066101000a81548165ffffffffffff021916908365ffffffffffff160217905550604082015181600001600c6101000a81548163ffffffff021916908363ffffffff16021790555060608201518160000160106101000a81548163ffffffff021916908363ffffffff16021790555090505060405180608001604052808a63ffffffff16830165ffffffffffff1681526020018363ffffffff168152602001838562ffffff160263ffffffff168152602001856001600160581b0316815250600860008201518160000160006101000a81548165ffffffffffff021916908365ffffffffffff16021790555060208201518160000160066101000a81548163ffffffff021916908363ffffffff160217905550604082015181600001600a6101000a81548163ffffffff021916908363ffffffff160217905550606082015181600001600e6101000a8154816001600160581b0302191690836001600160581b031602179055509050505050505050505050505050508a600a60006101000a8154816001600160a01b0302191690836001600160a01b0316021790555060006001600160a01b03168b6001600160a01b03161415801562000b115750600a54604080517f01ffc9a70000000000000000000000000000000000000000000000000000000081527f41fc4f1e00000000000000000000000000000000000000000000000000000000600482015290516001600160a01b03909216916301ffc9a791602480820192602092909190829003018186803b15801562000ae257600080fd5b505afa15801562000af7573d6000803e3d6000fd5b505050506040513d602081101562000b0e57600080fd5b50515b62000b1b57600080fd5b5050506009969096555062000e1d9650505050505050565b600054604080516001600160a01b039283168152918316602083015280517f9d05f170f1d545b1aa21c4a4f79f17ff737f5f020ea1b333d88f29f0bbfa9fc69281900390910190a1600080546001600160a01b0319166001600160a01b0392909216919091179055565b6000546001600160a01b0316331462000c1757604080517f08c379a000000000000000000000000000000000000000000000000000000000815260206004820152600860248201527f4f6e6c792043454f000000000000000000000000000000000000000000000000604482015290519081900360640190fd5b62000c288162000d8760201b60201c565b600154604080516001600160a01b039283168152918316602083015280517f1cd3afc04e6ae479d2b9f74533351b52218c5b2ae4f847f681a5eac514fe11849281900390910190a1600180546001600160a01b0319166001600160a01b0392909216919091179055565b6000546001600160a01b0316331462000d0c57604080517f08c379a000000000000000000000000000000000000000000000000000000000815260206004820152600860248201527f4f6e6c792043454f000000000000000000000000000000000000000000000000604482015290519081900360640190fd5b62000d1d8162000d8760201b60201c565b600254604080516001600160a01b039283168152918316602083015280517fe1033d3cc535efc343c53636bdc05c52a44d9e70b089d4ad6e974379f2c651d69281900390910190a1600280546001600160a01b0319166001600160a01b0392909216919091179055565b6001600160a01b0381161580159062000dae57506000546001600160a01b03828116911614155b62000e1a57604080517f08c379a000000000000000000000000000000000000000000000000000000000815260206004820152601360248201527f496e76616c69642043454f206164647265737300000000000000000000000000604482015290519081900360640190fd5b50565b61517b8062000e2d6000396000f3fe6080604052600436106102515760003560e01c80638897519811610139578063b9d95abb116100b6578063cc4db9601161007a578063cc4db96014610a62578063cef9b48814610ae4578063da0cb2ae14610b2c578063fac8eafc14610b56578063fb3790c514610bcd578063feb6275514610bfd57610251565b8063b9d95abb1461081c578063bfd31c19146108da578063c51b58aa146108ef578063c9eb068b146109d2578063cbe6549e146109e757610251565b80639ce0c954116100fd5780639ce0c954146107b3578063ad81e4d6146107c8578063aedb27fc146107dd578063b047fb50146107f2578063b187bd261461080757610251565b8063889751981461068c5780638baecc21146106bf57806392420c90146106dc5780639986a0c6146107565780639a963fcd1461078957610251565b80632d46ed56116101d257806358042deb1161019657806358042deb1461058f5780635a453d40146105b95780637aa66a7c146105e3578063810306b91461063857806383197ef01461064d578063840a1ff41461066257610251565b80632d46ed561461045157806335a966f1146104845780633f976ca9146104ae57806343d9922f146104ea57806350df8f711461056557610251565b80630af29b96116102195780630af29b9614610352578063128183ba146103cd578063136439dd146103e2578063170f8cc81461040c57806322f3e2d41461043c57610251565b806301d1c8101461025357806301ffc9a7146102895780630519ce79146102d1578063079cfa79146103025780630a0f81681461033d575b005b34801561025f57600080fd5b506102516004803603606081101561027657600080fd5b5080359060208101359060400135610c2d565b34801561029557600080fd5b506102bd600480360360208110156102ac57600080fd5b50356001600160e01b0319166110b2565b604080519115158252519081900360200190f35b3480156102dd57600080fd5b506102e66110f1565b604080516001600160a01b039092168252519081900360200190f35b34801561030e57600080fd5b50610317611100565b604080519485526020850193909352838301919091526060830152519081900360800190f35b34801561034957600080fd5b506102e661113c565b34801561035e57600080fd5b506102516004803603602081101561037557600080fd5b810190602081018135600160201b81111561038f57600080fd5b8201836020820111156103a157600080fd5b803590602001918460208302840111600160201b831117156103c257600080fd5b50909250905061114b565b3480156103d957600080fd5b506102e66113a0565b3480156103ee57600080fd5b506102516004803603602081101561040557600080fd5b50356113b8565b34801561041857600080fd5b506102516004803603604081101561042f57600080fd5b50803590602001356115a3565b34801561044857600080fd5b506102bd611600565b34801561045d57600080fd5b506102516004803603602081101561047457600080fd5b50356001600160a01b0316611640565b34801561049057600080fd5b50610251600480360360208110156104a757600080fd5b5035611703565b3480156104ba57600080fd5b506104d8600480360360208110156104d157600080fd5b5035611814565b60408051918252519081900360200190f35b3480156104f657600080fd5b506102516004803603602081101561050d57600080fd5b810190602081018135600160201b81111561052757600080fd5b82018360208201111561053957600080fd5b803590602001918460208302840111600160201b8311171561055a57600080fd5b5090925090506118e4565b34801561057157600080fd5b506102bd6004803603602081101561058857600080fd5b5035611972565b34801561059b57600080fd5b50610251600480360360208110156105b257600080fd5b50356119fe565b3480156105c557600080fd5b50610251600480360360208110156105dc57600080fd5b5035611bf4565b3480156105ef57600080fd5b50610251600480360361010081101561060757600080fd5b5080359060208101359060408101359060608101359060808101359060a08101359060c08101359060e00135611d1f565b34801561064457600080fd5b506102e6611ec0565b34801561065957600080fd5b50610251611ecf565b34801561066e57600080fd5b506102516004803603602081101561068557600080fd5b5035611eec565b34801561069857600080fd5b50610251600480360360208110156106af57600080fd5b50356001600160a01b0316611fba565b610251600480360360208110156106d557600080fd5b503561201f565b3480156106e857600080fd5b506106f1612228565b604080519d8e5260208e019c909c528c8c019a909a5260608c019890985260808b019690965260a08a019490945260c089019290925260e088015261010087015261012086015261014085015261016084015261018083015251908190036101a00190f35b34801561076257600080fd5b506102516004803603602081101561077957600080fd5b50356001600160a01b031661229f565b34801561079557600080fd5b50610251600480360360208110156107ac57600080fd5b5035612362565b3480156107bf57600080fd5b506104d861241e565b3480156107d457600080fd5b506104d8612424565b3480156107e957600080fd5b5061025161242a565b3480156107fe57600080fd5b506102e6612551565b34801561081357600080fd5b506102bd612560565b6102516004803603604081101561083257600080fd5b810190602081018135600160201b81111561084c57600080fd5b82018360208201111561085e57600080fd5b803590602001918460208302840111600160201b8311171561087f57600080fd5b919390929091602081019035600160201b81111561089c57600080fd5b8201836020820111156108ae57600080fd5b803590602001918460208302840111600160201b831117156108cf57600080fd5b509092509050612577565b3480156108e657600080fd5b506104d861293c565b3480156108fb57600080fd5b506104d8600480360360c081101561091257600080fd5b81359160208101359160408201359160608101359181019060a081016080820135600160201b81111561094457600080fd5b82018360208201111561095657600080fd5b803590602001918460018302840111600160201b8311171561097757600080fd5b919390929091602081019035600160201b81111561099457600080fd5b8201836020820111156109a657600080fd5b803590602001918460018302840111600160201b831117156109c757600080fd5b509092509050612942565b3480156109de57600080fd5b506102e6612d44565b3480156109f357600080fd5b5061025160048036036040811015610a0a57600080fd5b810190602081018135600160201b811115610a2457600080fd5b820183602082011115610a3657600080fd5b803590602001918460208302840111600160201b83111715610a5757600080fd5b919350915035612d5c565b348015610a6e57600080fd5b5061025160048036036040811015610a8557600080fd5b81359190810190604081016020820135600160201b811115610aa657600080fd5b820183602082011115610ab857600080fd5b803590602001918460208302840111600160201b83111715610ad957600080fd5b509092509050612e74565b348015610af057600080fd5b50610251600480360360c0811015610b0757600080fd5b5080359060208101359060408101359060608101359060808101359060a001356131e2565b348015610b3857600080fd5b5061025160048036036020811015610b4f57600080fd5b50356136ea565b348015610b6257600080fd5b50610b8060048036036020811015610b7957600080fd5b50356137e4565b60408051998a5260208a01989098528888019690965260608801949094526080870192909252151560a086015260c0850152151560e0840152151561010083015251908190036101200190f35b348015610bd957600080fd5b5061025160048036036040811015610bf057600080fd5b508035906020013561395e565b348015610c0957600080fd5b5061025160048036036040811015610c2057600080fd5b5080359060200135613b56565b610c35613d74565b82610c3f81613e1d565b82610c4981613f6b565b610c538585613fde565b600085815260106020526040812054151580610c7c575060008581526010602052604090205415155b15610d035760008681526010602052604090205485148015610cab575060008581526010602052604090205486145b610cff5760408051600160e51b62461bcd02815260206004820152601d60248201527f4d757374207265736f6c766520417363656e73696f6e20426174746c65000000604482015290519081900360640190fd5b5060015b610d0b6150e3565b506000868152600b6020908152604091829020825160a08101845281546001600160581b038082168352600160581b82041693820193909352600160b01b830463ffffffff1693810193909352600160d01b90910460ff166060830152600101546080820152610d796150e3565b506000868152600b6020908152604091829020825160a08101845281546001600160581b038082168352600160581b82041693820193909352600160b01b830463ffffffff1693810193909352600160d01b90910460ff166060830152600101546080820152600f548814801590610df357506011548814155b8015610e10575081516001600160581b0316610e0d6140f6565b11155b8015610e225750606082015160ff1615155b8015610e3057506080820151155b610e7a5760408051600160e51b62461bcd0281526020600482015260106024820152600160801b6f57697a617264206e6f7420726561647902604482015290519081900360640190fd5b600f548714158015610e8e57506011548714155b8015610eab575080516001600160581b0316610ea86140f6565b11155b8015610ebd5750606081015160ff1615155b8015610ecb57506080810151155b610f1f5760408051600160e51b62461bcd02815260206004820152601160248201527f57697a617264206e6f742072656164792e000000000000000000000000000000604482015290519081900360640190fd5b610f27615111565b506000878152600d60209081526040918290208251808401909352805480845260019091015491830191909152610fe35760408051808201825289815260208082018a815260008d8152600d83528490209251835551600190920191909155848201518483015183518d81529283018c905263ffffffff918216838501521660608201526080810189905290517f530a6602289d4bdb1c24e67332be34dd86bcf90f97911cf9ab69cf9d48db5eeb9181900360a00190a16110a7565b8051891415611057578789101561100b576110058989898460200151886141c3565b5061101e565b61101c888a83602001518a886141c3565b505b6000888152600d60205260408120818155600101558315611052576000898152601060205260408082208290558982528120555b6110a7565b60408051600160e51b62461bcd02815260206004820181905260248201527f4f70706f6e656e742068617320612070656e64696e67206368616c6c656e6765604482015290519081900360640190fd5b505050505050505050565b60006001600160e01b03198216600160e01b6301ffc9a70214806110e957506001600160e01b03198216600160e31b6317a0b21302145b90505b919050565b6002546001600160a01b031681565b60085465ffffffffffff811691600160301b820463ffffffff90811692600160501b810490911691600160701b9091046001600160581b031690565b6000546001600160a01b031681565b61115361435d565b806111975760408051600160e51b62461bcd0281526020600482015260096024820152600160b81b68456d7074792069647302604482015290519081900360640190fd5b6000806000848460008181106111a957fe5b602090810292909201356000818152600b909352604090922054919250506001600160581b03166111d86140f6565b811061121d5760408051600160e51b62461bcd0281526020600482015260096024820152600160b81b684e6f74206d6f6c647902604482015290519081900360640190fd5b6000828152600b6020526040902060010154156112715760408051600160e51b62461bcd0281526020600482015260076024820152600160c81b664475656c696e6702604482015290519081900360640190fd5b60015b858110156113975786868281811061128857fe5b90506020020135945061129a85613f6b565b6000858152600b60205260409020546001600160581b03169350818410806112cb575081841480156112cb57508285115b61131f5760408051600160e51b62461bcd02815260206004820152601c60248201527f57697a61726473206e6f74207374726963746c79206f72646572656400000000604482015290519081900360640190fd5b600581106113355761133085614404565b611389565b6000858152600b6020526040902060010154156113895760408051600160e51b62461bcd0281526020600482015260076024820152600160c81b664475656c696e6702604482015290519081900360640190fd5b849250839150600101611274565b50505050505050565b7368132eb4bfd84b2d6a23ec4fb1b106f5c8574f2d81565b6001546001600160a01b031633146114085760408051600160e51b62461bcd0281526020600482015260086024820152600160c01b674f6e6c7920434f4f02604482015290519081900360640190fd5b600454600160601b900463ffffffff16808211156114705760408051600160e51b62461bcd02815260206004820152601660248201527f496e76616c6964207061757365206475726174696f6e00000000000000000000604482015290519081900360640190fd5b60035443838101918491600160301b90910465ffffffffffff1611156114c65760035465ffffffffffff808416600160301b90920416106114b057600080fd5b50600354600160301b900465ffffffffffff1681035b6003805465ffffffffffff848116600160301b81026bffffffffffff000000000000198385168701841665ffffffffffff199586161781168217909555600480548085168801851690861617861682179055600580548085168801851690861617861682179055600680548085168801851690861617861682179055600780548085168801851690861617909516179093556008805480831686019092169190921617905560408051918252517f32fb7c9891bc4f963c7de9f1186d2a7755c7d6e9f4604dabe1d8bb3027c2f49e9181900360200190a150505050565b816115ad81613e1d565b816115b781613f6b565b6115bf613d74565b828414156115cc57600080fd5b6115d584611972565b80156115e557506115e583611972565b6115ee57600080fd5b6115fa848460036144cf565b50505050565b600854600090600160501b810463ffffffff90811660c802169065ffffffffffff16810143111561163557600091505061163d565b5050600c5415155b90565b6000546001600160a01b031633146116905760408051600160e51b62461bcd0281526020600482015260086024820152600160c01b674f6e6c792043454f02604482015290519081900360640190fd5b611699816145c6565b600254604080516001600160a01b039283168152918316602083015280517fe1033d3cc535efc343c53636bdc05c52a44d9e70b089d4ad6e974379f2c651d69281900390910190a1600280546001600160a01b0319166001600160a01b0392909216919091179055565b61170b614640565b600081815260106020526040902054806117605760408051600160e51b62461bcd02815260206004820152600b6024820152600160aa1b6a139bc81bdc1c1bdb995b9d02604482015290519081900360640190fd5b611768615111565b506000828152600d6020908152604091829020825180840190935280548084526001909101549183019190915282146117da5760408051600160e51b62461bcd0281526020600482015260096024820152600160ba1b68139bc818dbdb5b5a5d02604482015290519081900360640190fd5b6117e6828460026144cf565b506000918252600d602090815260408084208481556001018490556010909152808320839055908252812055565b600080600080600080600080600061182b8a6137e4565b50975097509750975097509750975097506000600d60008c81526020019081526020016000206000015490508a898989898989898989604051602001808b81526020018a8152602001898152602001888152602001878152602001868152602001851515151560f81b8152600101848152602001831515151560f81b81526001018281526020019a5050505050505050505050604051602081830303815290604052805190602001209950505050505050505050919050565b6118ec61435d565b60005b8181101561196d57600083838381811061190557fe5b602090810292909201356000818152600b90935260409092205491925050600160581b90046001600160581b03161580159061195657506000818152600b60205260409020546001600160581b0316155b156119645761196481614404565b506001016118ef565b505050565b60008161197e81613f6b565b6119866150e3565b506000838152600b6020908152604091829020825160a08101845281546001600160581b038082168352600160581b82041693820193909352600160b01b830463ffffffff1693810193909352600160d01b90910460ff1660608301526001015460808201526119f684826146e7565b949350505050565b611a06614759565b80611a1081613e1d565b611a186150e3565b506000828152600b6020908152604091829020825160a08101845281546001600160581b038082168352600160581b82041693820193909352600160b01b830463ffffffff1693810193909352600160d01b90910460ff166060830152600101546080820152611a8883826146e7565b611adc5760408051600160e51b62461bcd02815260206004820152601b60248201527f43616e277420617363656e64206120627573792077697a617264210000000000604482015290519081900360640190fd5b611ae46140f6565b60020281600001516001600160581b031610611b4a5760408051600160e51b62461bcd02815260206004820152601a60248201527f4e6f7420656c696769626c6520666f7220617363656e73696f6e000000000000604482015290519081900360640190fd5b600f5415611bb757600f805460009081526010602090815260408083208790559254868352918390208290558251918252810185905281517f317afd6701fe06472de1aa6af055861008f7e57c67729e0804c44be9a48facee929181900390910190a16000600f5561196d565b600f8390556040805184815290517f75e589c241c6adb443794af5ecb220cdeb59eb1c44a37c6d1dfaebde22706b519181900360200190a1505050565b80611bfe81613f6b565b6000730d8c864da1985525e0af0acbeef6562881827bd56001600160a01b031663fac8eafc846040518263ffffffff1660e01b81526004018082815260200191505060806040518083038186803b158015611c5857600080fd5b505afa158015611c6c573d6000803e3d6000fd5b505050506040513d6080811015611c8257600080fd5b506040908101516000858152600b60205291909120805491925090600160d01b900460ff1615611cfc5760408051600160e51b62461bcd02815260206004820152601860248201527f416666696e69747920616c726561647920757064617465640000000000000000604482015290519081900360640190fd5b805460ff909216600160d01b02600160d01b60ff02199092169190911790555050565b6000888152600b602090815260408083208a8452928190208354815483513060601b81870152603481018f9052605481018e905263ffffffff600160b01b93849004811660e090811b60748401529390920490911690911b6078820152607c81018b9052609c8082018b90528351808303909101815260bc9091019092528151919092012060018301548114611df65760408051600160e51b62461bcd0281526020600482015260116024820152600160781b70496e76616c6964206475656c206461746102604482015290519081900360640190fd5b6040805160208082018a90528183018890528251808303840181526060909201909252805191012089148015611e5257506040805160208082018990528183018790528251808303840181526060909201909252805191012088145b611ea65760408051600160e51b62461bcd02815260206004820152601c60248201527f4d6f76657320646f6e2774206d6174636820636f6d6d69746d656e7400000000604482015290519081900360640190fd5b611eb3818c8c8a8a614800565b5050505050505050505050565b600a546001600160a01b031681565b611ed7614c0a565b611edf611600565b15611ee957600080fd5b33ff5b80611ef681613e1d565b60008281526010602052604090205415611f5a5760408051600160e51b62461bcd02815260206004820152601d60248201527f43616e27742063616e63656c20417363656e73696f6e20426174746c65000000604482015290519081900360640190fd5b6000828152600d602052604090205415611fa2576040805183815290517f04d33264c6183366c5711d870e69908ac063f2c36c434c4b1f77916c238b9dfc9181900360200190a15b506000908152600d6020526040812081815560010155565b6000546001600160a01b0316331461200a5760408051600160e51b62461bcd0281526020600482015260086024820152600160c01b674f6e6c792043454f02604482015290519081900360640190fd5b612013816145c6565b61201c81614c75565b50565b8061202981613f6b565b612031614cdf565b6120855760408051600160e51b62461bcd02815260206004820152601a60248201527f4f6e6c7920647572696e67205265766976616c20506861736573000000000000604482015290519081900360640190fd5b61208d614c0a565b6000828152600b6020526040812080546009549192600160581b9091046001600160581b03169134816120bc57fe5b0490506120c76140f6565b816001600160581b03161180156120f05750816001600160581b0316816001600160581b031611155b6121445760408051600160e51b62461bcd02815260206004820152601360248201527f496e76616c696420706f776572206c6576656c00000000000000000000000000604482015290519081900360640190fd5b82546001600160581b0316156121a45760408051600160e51b62461bcd02815260206004820152601d60248201527f43616e206f6e6c79207265766976652074697265642057697a61726473000000604482015290519081900360640190fd5b825463ffffffff600160b01b6001600160581b0384166001600160581b03199093168317818104831660010190921602600160b01b63ffffffff021990911617845560408051878152602081019290925280517fa78677222d515efffcb323b960622c3e2bff3331916798f375b592c2a07f6c5a9281900390910190a15050505050565b60035460045460055460065460075465ffffffffffff80861696600160301b870482169663ffffffff600160601b8204811697600160801b808404831698600160a01b9094048316978683169792829004841696808616969583900485169581831695928490048316949182169390910490911690565b6000546001600160a01b031633146122ef5760408051600160e51b62461bcd0281526020600482015260086024820152600160c01b674f6e6c792043454f02604482015290519081900360640190fd5b6122f8816145c6565b600154604080516001600160a01b039283168152918316602083015280517f1cd3afc04e6ae479d2b9f74533351b52218c5b2ae4f847f681a5eac514fe11849281900390910190a1600180546001600160a01b0319166001600160a01b0392909216919091179055565b61236a613d74565b600f5461237681613e1d565b601154806123ce5760408051600160e51b62461bcd02815260206004820152601660248201527f4e6f206368616c6c656e676520746f2061636365707400000000000000000000604482015290519081900360640190fd5b600f548110156123f3576123ed81600f546011600101548660016141c3565b5061240a565b612408600f54828560116001015460016141c3565b505b5050600060118190556012819055600f5550565b600c5490565b60095481565b612432614640565b600f546124895760408051600160e51b62461bcd02815260206004820152601360248201527f4e6f2057697a61726420746f20617363656e6400000000000000000000000000604482015290519081900360640190fd5b600f546000908152600b60205260409020601154156124ba576124b5600f5460116000015460016144cf565b612501565b80546124d690829060036001600160581b039182160216614da8565b805463ffffffff600160b01b808304821660010190911602600160b01b63ffffffff02199091161781555b600f548154604080519283526001600160581b03909116602083015280517f5b0c8f5b5cdb91a5273ebf46ae7473ad46e9c17fb914ff3e5965ed6a0696c45f9281900390910190a1506000600f55565b6001546001600160a01b031681565b600354600160301b900465ffffffffffff16431090565b61257f614e16565b6125d35760408051600160e51b62461bcd02815260206004820152601860248201527f4f6e6c7920647572696e6720456e746572205068617365730000000000000000604482015290519081900360640190fd5b6125db614c0a565b8281146126325760408051600160e51b62461bcd02815260206004820152601c60248201527f4d69736d61746368656420706172616d65746572206c656e6774687300000000604482015290519081900360640190fd5b6000805b848110156128d457600086868381811061264c57fe5b905060200201359050600085858481811061266357fe5b6000858152600b60209081526040909120546001600160581b0391909202939093013583169350600160581b90049091161590506126eb5760408051600160e51b62461bcd02815260206004820152601c60248201527f57697a61726420616c726561647920696e20746f75726e616d656e7400000000604482015290519081900360640190fd5b600080730d8c864da1985525e0af0acbeef6562881827bd56001600160a01b031663fac8eafc856040518263ffffffff1660e01b81526004018082815260200191505060806040518083038186803b15801561274657600080fd5b505afa15801561275a573d6000803e3d6000fd5b505050506040513d608081101561277057600080fd5b50602081015160409091015190925090506001600160581b038316158015906127ab5750816001600160581b0316836001600160581b031611155b6127ff5760408051600160e51b62461bcd02815260206004820152600d60248201527f496e76616c696420706f77657200000000000000000000000000000000000000604482015290519081900360640190fd5b6040805160a0810182526001600160581b039485168082526020808301828152600084860181815260ff97881660608701908152608087018381529b8352600b909452959020935184549151955192516001600160581b031990921690891617600160581b600160b01b031916600160581b959098169490940296909617600160b01b63ffffffff021916600160b01b63ffffffff9097169690960295909517600160d01b60ff021916600160d01b929093169190910291909117815592516001938401555060095402929092019101612636565b50600c805485019055348111156129355760408051600160e51b62461bcd02815260206004820152601260248201527f496e73756666696369656e742066756e64730000000000000000000000000000604482015290519081900360640190fd5b5050505050565b600f5490565b600061294c613d74565b61295589613f6b565b61295e88613f6b565b8789106129b55760408051600160e51b62461bcd02815260206004820152601a60248201527f57697a61726420494473206d757374206265206f726465726564000000000000604482015290519081900360640190fd5b6000898152601060205260408120541515806129de575060008981526010602052604090205415155b15612a7d5760008a81526010602052604090205489148015612a0d57506000898152601060205260409020548a145b612a615760408051600160e51b62461bcd02815260206004820152601d60248201527f4d757374207265736f6c766520417363656e73696f6e20426174746c65000000604482015290519081900360640190fd5b5060008981526010602052604080822082905589825281205560015b612a856150e3565b5060008a8152600b6020908152604091829020825160a08101845281546001600160581b038082168352600160581b82041693820193909352600160b01b830463ffffffff1693810193909352600160d01b90910460ff166060830152600101546080820152612af36150e3565b5060008a8152600b6020908152604091829020825160a08101845281546001600160581b038082168352600160581b82041693820193909352600160b01b830463ffffffff1693810193909352600160d01b90910460ff166060830152600101546080820152612b638c836146e7565b8015612b745750612b748b826146e7565b612bbe5760408051600160e51b62461bcd0281526020600482015260106024820152600160801b6f57697a617264206e6f7420726561647902604482015290519081900360640190fd5b6000612bd58d8d856040015185604001518f614ecf565b90506000612bee8e8e866040015186604001518f614ecf565b9050730d8c864da1985525e0af0acbeef6562881827bd56001600160a01b031663a096d9f08f8f85858f8f8f8f6040518963ffffffff1660e01b81526004018089815260200188815260200187815260200186815260200180602001806020018381038352878782818152602001925080828437600083820152601f01601f191690910184810383528581526020019050858580828437600081840152601f19601f8201169050808301925050509a505050505050505050505060006040518083038186803b158015612cc057600080fd5b505afa158015612cd4573d6000803e3d6000fd5b50505050612ce58e8e8e8e896141c3565b9550600d60008f815260200190815260200160002060008082016000905560018201600090555050600d60008e815260200190815260200160002060008082016000905560018201600090555050505050505098975050505050505050565b730d8c864da1985525e0af0acbeef6562881827bd581565b80612d6681613f6b565b612d6e61435d565b6000612d786140f6565b6000848152600b60205260409020549091506001600160581b0316811115612dea5760408051600160e51b62461bcd02815260206004820152601460248201527f5375727669766f722069736e277420616c697665000000000000000000000000604482015290519081900360640190fd5b60005b84811015612e6c576000868683818110612e0357fe5b602090810292909201356000818152600b90935260409092205491925050600160581b90046001600160581b031615801590612e5557506000818152600b60205260409020546001600160581b031683115b15612e6357612e6381614404565b50600101612ded565b505050505050565b612e7c61435d565b82612e8681613e1d565b6005600c541115612ee15760408051600160e51b62461bcd02815260206004820152601160248201527f546f6f20736f6f6e20746f20636c61696d000000000000000000000000000000604482015290519081900360640190fd5b600c548214612f3a5760408051600160e51b62461bcd02815260206004820152601860248201527f4d7573742070726f7669646520616c6c2077696e6e6572730000000000000000604482015290519081900360640190fd5b6000848152600b60205260409020546001600160581b0316612fa65760408051600160e51b62461bcd02815260206004820152601260248201527f4e6f20636865657a6520666f7220796f75210000000000000000000000000000604482015290519081900360640190fd5b6000612fb06140f6565b9050600080805b85811015613124576000878783818110612fcd57fe5b602090810292909201356000818152600b909352604090922054919250506001600160581b031683821161304b5760408051600160e51b62461bcd02815260206004820152601e60248201527f57696e6e657273206e6f7420756e6971756520616e64206f7264657265640000604482015290519081900360640190fd5b6000828152600b6020526040902054600160581b90046001600160581b03166130be5760408051600160e51b62461bcd02815260206004820152601960248201527f57697a61726420616c726561647920656c696d696e6174656400000000000000604482015290519081900360640190fd5b8581106131155760408051600160e51b62461bcd02815260206004820152601060248201527f57697a617264206e6f74206d6f6c647900000000000000000000000000000000604482015290519081900360640190fd5b93909301929150600101612fb7565b506000878152600b602052604081205483906001600160581b03163031028161314957fe5b60008a8152600b6020908152604080832080546001600160d81b031916815560010192909255600c805460001901905581518c81529390920491830182905280519193507fd53b67ba94a5d6268d11caa5d2693557779404ed02fc9825d86d2894d29cb8fd928290030190a1604051339082156108fc029083906000818181858888f193505050501580156110a7573d6000803e3d6000fd5b6131ea6150e3565b506000868152600b6020908152604091829020825160a08101845281546001600160581b038082168352600160581b82041693820193909352600160b01b830463ffffffff1693810193909352600160d01b90910460ff1660608301526001015460808201526132586150e3565b506000838152600b6020908152604091829020825160a08101845281546001600160581b038082168352600160581b82041693820193909352600160b01b830463ffffffff1693810193909352600160d01b90910460ff166060830152600101546080808301919091528201518061331a5760408051600160e51b62461bcd02815260206004820152601260248201527f57697a617264206e6f74206475656c696e670000000000000000000000000000604482015290519081900360640190fd5b6000858a101561339557506040808401518382015182513060601b602080830191909152603482018e9052605482018a905263ffffffff93841660e090811b60748401529390921690921b6078830152607c82018b9052609c8083018890528351808403909101815260bc9092019092528051910120613402565b506040808301518482015182513060601b602080830191909152603482018a9052605482018e905263ffffffff93841660e090811b60748401529390921690921b6078830152607c8201879052609c8083018c90528351808403909101815260bc90920190925280519101205b8181146134505760408051600160e51b62461bcd0281526020600482015260116024820152600160781b70496e76616c6964206475656c206461746102604482015290519081900360640190fd5b6040805160208082018b90528183018a90528251808303840181526060909201909252805191012089146134ce5760408051600160e51b62461bcd02815260206004820152601c60248201527f4d6f76657320646f6e2774206d6174636820636f6d6d69746d656e7400000000604482015290519081900360640190fd5b600a5460408051600160e21b630608feef028152600481018b905290516001600160a01b0390921691631823fbbc91602480820192602092909190829003018186803b15801561351d57600080fd5b505afa158015613531573d6000803e3d6000fd5b505050506040513d602081101561354757600080fd5b505161359d5760408051600160e51b62461bcd02815260206004820152600f60248201527f496e76616c6964206d6f76657365740000000000000000000000000000000000604482015290519081900360640190fd5b6000828152600e602090815260408083208984529091529020541561362357858a10156135f4576000828152600e602090815260408083208984529091529020546135ef9083908c9089908c90614800565b61361e565b6000828152600e6020908152604080832089845290915290205461361e90839088908d908c614800565b6136de565b6000828152601360205260409020546001600160801b031643106136835760408051600160e51b62461bcd02815260206004820152600c6024820152600160a21b6b111d595b08195e1c1a5c995902604482015290519081900360640190fd5b6000828152600e602090815260408083208d84528252918290208a905581518481529081018c905280820188905290517f4761d35fc455d658f13ab27c916c9772625a2cd266c1e36b1e03b6bbe9e03f1a9181900360600190a15b50505050505050505050565b6136f261435d565b806136fc81613e1d565b600c546001146137565760408051600160e51b62461bcd02815260206004820152600e60248201527f4b656570206669676874696e6721000000000000000000000000000000000000604482015290519081900360640190fd5b604080518381523031602082015281517fd53b67ba94a5d6268d11caa5d2693557779404ed02fc9825d86d2894d29cb8fd929181900390910190a16000600c819055828152600b602052604080822080546001600160d81b0319168155600101829055513391303180156108fc02929091818181858888f1935050505015801561196d573d6000803e3d6000fd5b6000806000806000806000806000896137fc81613f6b565b6138046150e3565b600b60008d81526020019081526020016000206040518060a00160405290816000820160009054906101000a90046001600160581b03166001600160581b03166001600160581b0316815260200160008201600b9054906101000a90046001600160581b03166001600160581b03166001600160581b031681526020016000820160169054906101000a900463ffffffff1663ffffffff1663ffffffff16815260200160008201601a9054906101000a900460ff1660ff1660ff1681526020016001820154815250509050806060015160ff169a5080600001516001600160581b0316995080602001516001600160581b03169850806040015163ffffffff169750806080015196508b600f54149550601060008d815260200190815260200160002054945080600001516001600160581b03166139406140f6565b11935061394d8c826146e7565b925050509193959799909294969850565b613966613d74565b8161397081613e1d565b601154156139c85760408051600160e51b62461bcd02815260206004820152601960248201527f57697a61726420616c7265616479206368616c6c656e67656400000000000000604482015290519081900360640190fd5b6139d483600f54613fde565b6139dc614f44565b613a305760408051600160e51b62461bcd02815260206004820152601260248201527f4368616c6c656e676520746f6f206c6174650000000000000000000000000000604482015290519081900360640190fd5b613a386150e3565b506000838152600b6020908152604091829020825160a08101845281546001600160581b038082168352600160581b82041693820193909352600160b01b830463ffffffff1693810193909352600160d01b90910460ff166060830152600101546080820152613aa884826146e7565b613af25760408051600160e51b62461bcd0281526020600482015260106024820152600160801b6f57697a617264206e6f7420726561647902604482015290519081900360640190fd5b604080518082018252858152602090810185905260118690556012859055600f54825190815290810186905280820185905290517f01b90f216a53259c7a1ed029ef4d7c085b483b5418be4845bcdc933dec1101039181900360600190a150505050565b80821415613b9f5760408051600160e51b62461bcd02815260206004820152600b6024820152600160aa1b6a14d85b594815da5e985c9902604482015290519081900360640190fd5b6000828152600b6020526040808220838352912060018201548015801590613bca5750808260010154145b613bd357600080fd5b6000818152601360205260409020546001600160801b0316431015613bf757600080fd5b815483546000838152600e602090815260408083208a84529091529020546001600160581b0391821692821692909201169015613c4b57613c388482614da8565b82546001600160581b0319168355613c83565b6000828152600e6020908152604080832088845290915290205415613c8357613c748382614da8565b83546001600160581b03191684555b60006001808601829055848101829055855463ffffffff600160b01b8083048216840182168102600160b01b63ffffffff021993841617895587548181048316909401909116029116178455828152601360209081526040808320805470ffffffffffffffffffffffffffffffffff19169055600e82528083208984528083528184208490558884528252808320929092558554855483518681529283018a90528284018990526001600160581b03918216606084015216608082015290517fc7aa367585942c098842dd2573f26d69dabb55248bcaea3c4463cd96680e1c2e9181900360a00190a1505050505050565b6040805160808101825260055465ffffffffffff8082168352600160301b820416602083015263ffffffff600160601b8204811693830193909352600160801b90049091166060820152613dc790614fe5565b613e1b5760408051600160e51b62461bcd02815260206004820152601860248201527f4f6e6c7920647572696e672046696768742057696e646f770000000000000000604482015290519081900360640190fd5b565b6000818152600b6020526040902054600160581b90046001600160581b0316613e905760408051600160e51b62461bcd02815260206004820152601560248201527f57697a61726420646f6573206e6f742065786973740000000000000000000000604482015290519081900360640190fd5b60408051600160e01b63430c2081028152336004820152602481018390529051730d8c864da1985525e0af0acbeef6562881827bd59163430c2081916044808301926020929190829003018186803b158015613eeb57600080fd5b505afa158015613eff573d6000803e3d6000fd5b505050506040513d6020811015613f1557600080fd5b505161201c5760408051600160e51b62461bcd02815260206004820152601960248201527f4d7573742062652057697a61726420636f6e74726f6c6c657200000000000000604482015290519081900360640190fd5b6000818152600b6020526040902054600160581b90046001600160581b031661201c5760408051600160e51b62461bcd02815260206004820152601560248201527f57697a61726420646f6573206e6f742065786973740000000000000000000000604482015290519081900360640190fd5b6000828152600d6020526040902054156140425760408051600160e51b62461bcd02815260206004820152601d60248201527f50656e64696e6720626174746c6520616c726561647920657869737473000000604482015290519081900360640190fd5b6000811161409a5760408051600160e51b62461bcd02815260206004820152601660248201527f4e6f2057697a61726420697320617363656e64696e6700000000000000000000604482015290519081900360640190fd5b808214156140f25760408051600160e51b62461bcd02815260206004820152601460248201527f43616e6e6f74206475656c206f6e6573656c6621000000000000000000000000604482015290519081900360640190fd5b5050565b6000614100615128565b506040805160808101825260085465ffffffffffff811680835263ffffffff600160301b830481166020850152600160501b830416938301939093526001600160581b03600160701b90910416606082015290431161416d57606001516001600160581b0316905061163d565b6000816040015163ffffffff16826000015165ffffffffffff1643038161419057fe5b04905060588111156141a0575060585b8082606001516001600160581b0316901b6001600160581b03169250505061163d565b6000858152600b602090815260408083208784528184208154815484513060601b81880152603481018d9052605481018c905263ffffffff600160b01b93849004811660e090811b60748401529390920490911690911b6078820152607c8101899052609c8082018990528451808303909101815260bc909101909352825192909301919091206001808301829055830181905592909190841561427057614269615056565b9050614284565b50600354600160a01b900463ffffffff1643015b6040805180820182526001600160801b038084168252871515602080840182815260008a8152601383528690209451855491511515600160801b0270ff0000000000000000000000000000000019919095166fffffffffffffffffffffffffffffffff1990921691909117169290921790925582518781529081018c90528083018b905260608101849052608081019190915260a0810189905260c0810188905290517f77d9948186effe9235713be25320cbda824d0fac31841e1af13e014cb0b348539181900360e00190a150505095945050505050565b6040805160808101825260075465ffffffffffff8082168352600160301b820416602083015263ffffffff600160601b8204811693830193909352600160801b900490911660608201526143b090614fe5565b613e1b5760408051600160e51b62461bcd02815260206004820152601a60248201527f4f6e6c7920647572696e672043756c6c696e672057696e646f77000000000000604482015290519081900360640190fd5b6000818152600b60205260409020600101541561446b5760408051600160e51b62461bcd02815260206004820152601160248201527f57697a617264206973206475656c696e67000000000000000000000000000000604482015290519081900360640190fd5b6000818152600b6020908152604080832080546001600160d81b031916815560010192909255600c8054600019019055815183815291517f467c36a9931be143929e59fbcf25cc5ea17577e78af28da39a7b5f23d9c081b39281900390910190a150565b6000838152600b60205260408082208483529120815481546145029183916001600160581b039182169082160116614da8565b815460408051878152602081018790526001600160581b039092168282015260ff85166060830152517f6f76f2ae8cea65409255207333bfb6f8c087e8e3b6b3f8cc7798fc35ed7af99a9181900360800190a1815479ffffffff0000000000000000000000ffffffffffffffffffffff1981166001600160b01b6001600160581b031990931683900463ffffffff908116820181168402929092179094558254600160b01b63ffffffff021981169083900482169094011602919091179055505050565b6001600160a01b038116158015906145ec57506000546001600160a01b03828116911614155b61201c5760408051600160e51b62461bcd02815260206004820152601360248201527f496e76616c69642043454f206164647265737300000000000000000000000000604482015290519081900360640190fd5b6040805160808101825260065465ffffffffffff8082168352600160301b820416602083015263ffffffff600160601b8204811693830193909352600160801b9004909116606082015261469390614fe5565b613e1b5760408051600160e51b62461bcd02815260206004820152601d60248201527f4f6e6c7920647572696e67205265736f6c7574696f6e2057696e646f77000000604482015290519081900360640190fd5b6000600f5483141580156147075750600083815260106020526040902054155b801561471557506011548314155b8015614732575081516001600160581b031661472f6140f6565b11155b80156147445750606082015160ff1615155b801561475257506080820151155b9392505050565b6040805160808101825260045465ffffffffffff8082168352600160301b820416602083015263ffffffff600160601b8204811693830193909352600160801b900490911660608201526147ac90614fe5565b613e1b5760408051600160e51b62461bcd02815260206004820152601c60248201527f4f6e6c7920647572696e6720417363656e73696f6e2057696e646f7700000000604482015290519081900360640190fd5b614808615111565b506000858152601360209081526040918290208251808401909352546001600160801b038116808452600160801b90910460ff16151591830191909152431061488d5760408051600160e51b62461bcd02815260206004820152600c6024820152600160a21b6b111d595b08195e1c1a5c995902604482015290519081900360640190fd5b6000858152600b602052604080822086835290822081548154929391926001600160581b03918216929116906148c16140f6565b90508560200151156148f3578060020282018313156148e2578192506148f3565b8060020283018213156148f3578291505b600a548554855460408051600160e21b632c226253028152600481018d9052602481018c9052604481018890526064810187905260ff600160d01b94859004811660848301529390920490921660a482015290516000926001600160a01b03169163b089894c9160c4808301926020929190829003018186803b15801561497957600080fd5b505afa15801561498d573d6000803e3d6000fd5b505050506040513d60208110156149a357600080fd5b5051905060008490038112156149be578360000390506149c9565b828113156149c95750815b6020870151938101939281900392156149ee578284126149ea5782016149ee565b8390035b855485546001600160581b039182168301911682900383821215614a155760009101614a21565b83811215614a21570160005b614a2b8883614da8565b614a358782614da8565b6000801b88600101819055506000801b876001018190555060018860000160168282829054906101000a900463ffffffff160192506101000a81548163ffffffff021916908363ffffffff16021790555060018760000160168282829054906101000a900463ffffffff160192506101000a81548163ffffffff021916908363ffffffff160217905550601360008f8152602001908152602001600020600080820160006101000a8154906001600160801b0302191690556000820160106101000a81549060ff02191690555050600e60008f815260200190815260200160002060008e815260200190815260200160002060009055600e60008f815260200190815260200160002060008d8152602001908152602001600020600090557f5d340f045b88c840424b9dc0322566ac25ac52a1710233de27fec1fcd04eae608e8e8e8e8e8d60000160009054906101000a90046001600160581b03168d60000160009054906101000a90046001600160581b031660405180888152602001878152602001868152602001858152602001848152602001836001600160581b03168152602001826001600160581b0316815260200197505050505050505060405180910390a15050505050505050505050505050565b337368132eb4bfd84b2d6a23ec4fb1b106f5c8574f2d14613e1b5760408051600160e51b62461bcd02815260206004820152601860248201527f4f6e6c7920476174654b65657065722063616e2063616c6c0000000000000000604482015290519081900360640190fd5b600054604080516001600160a01b039283168152918316602083015280517f9d05f170f1d545b1aa21c4a4f79f17ff737f5f020ea1b333d88f29f0bbfa9fc69281900390910190a1600080546001600160a01b0319166001600160a01b0392909216919091179055565b6000614ce96150e3565b506040805160a08101825260035465ffffffffffff8082168352600160301b8204166020830181905263ffffffff600160601b8304811694840194909452600160801b820484166060840152600160a01b909104909216608082015290431015614d5757600091505061163d565b806040015163ffffffff1681600001510165ffffffffffff164310158015614da25750806060015163ffffffff16816040015163ffffffff168260000151010165ffffffffffff1643105b91505090565b6001600160581b03811315614dc157506001600160581b035b81546001600160581b0319166001600160581b0382811691909117808455600160581b9004168113156140f25781546001600160581b038216600160581b02600160581b600160b01b03199091161782555050565b6000614e206150e3565b506040805160a08101825260035465ffffffffffff8082168352600160301b8204166020830181905263ffffffff600160601b8304811694840194909452600160801b820484166060840152600160a01b909104909216608082015290431015614e8e57600091505061163d565b805165ffffffffffff164310801590614da25750806060015163ffffffff16816040015163ffffffff168260000151010165ffffffffffff16431091505090565b60408051600160f81b601902602080830191909152600060218301523060601b60228301526036820197909752605681019590955263ffffffff93841660e090811b60768701529290931690911b607a840152607e8084019190915281518084039091018152609e9092019052805191012090565b6000614f4e615128565b506040805160808101825260065465ffffffffffff808216808452600160301b8304909116602084015263ffffffff600160601b83048116948401859052600160801b909204909116606083015290916000914382010381614fac57fe5b0490506000826040015163ffffffff168202836000015165ffffffffffff1601905043836060015163ffffffff16820311935050505090565b6000816020015165ffffffffffff16431015615003575060006110ec565b815165ffffffffffff1643101561501c575060006110ec565b6000826040015163ffffffff16836000015165ffffffffffff1643038161503f57fe5b606085015163ffffffff1691900610915050919050565b6000615060615128565b506040805160808101825260075465ffffffffffff808216808452600160301b8304909116602084015263ffffffff600160601b83048116948401859052600160801b9092049091166060830152909160009143820103816150be57fe5b049050816040015163ffffffff168102826000015165ffffffffffff16019250505090565b6040805160a08101825260008082526020820181905291810182905260608101829052608081019190915290565b604080518082019091526000808252602082015290565b6040805160808101825260008082526020820181905291810182905260608101919091529056fea165627a7a723058201440322aef1ad1f3f28cdb49ee7ea0bf381e0d900466f32cde9ae05211679f6c0029436f6e7374727563746f7220617267756d656e7473206d757374206265206e6f6e2d30",
  "source": "pragma solidity >=0.5.6 <0.6.0;\n\nimport \"./ERC1654/ERC1654.sol\";\nimport \"./WizardConstants.sol\";\nimport \"./WizardGuildInterface.sol\";\nimport \"./DuelResolverInterface.sol\";\nimport \"./TournamentTimeAbstract.sol\";\nimport \"./TournamentInterface.sol\";\n\n\n/// @title A basic Cheeze Wizards Tournament\n/// @notice This contract mediates a Tournament between any number of Cheeze Wizards with\n///         the following features:\n///               - All Wizards who enter the Tournament are required to provide a contribution\n///                 to the Big Cheeze prize pool that is directly proportional to their power\n///                 level. There is no way for some Wizards to have a power level that is disproportionate\n///                 to their pot contribution amount; not even for the Tournament creators.\n///               - All Tournaments created with this contract follow the time constraints set out in the\n///                 TournamentTimeAbstract contract. While different Tournament instances might run more\n///                 quickly or more slowly than others, the basic cadence of the Tournament is consistent\n///                 across all instances.\n///               - The Tournament contract is designed such that, once the contract is set up, that\n///                 all participants can trustlessly enjoy the Tournament without fear of being ripped\n///                 off by the organizers. Some care needs to be taken _before_ you enter your Wizard\n///                 in the Tournament (including ensuring that you are actually entering into a copy\n///                 of this Tournament contract that hasn't been modified!), but once your Wizard has\n///                 been entered, you can have confidence that the rules of the contest will be followed\n///                 correctly, without fear of manipulation or fraud on the part of the contest creators.\ncontract BasicTournament is TournamentInterface, TournamentTimeAbstract, WizardConstants,\n    DuelResolverInterfaceId {\n\n    // A Duel officially starts (both commits are locked in on-chain)\n    event DuelStart(\n        bytes32 duelId,\n        uint256 wizardId1,\n        uint256 wizardId2,\n        uint256 timeoutBlock,\n        bool isAscensionBattle,\n        bytes32 commit1,\n        bytes32 commit2\n    );\n\n    // A Duel resolves normally, powers are post-resolution values\n    event DuelEnd(\n        bytes32 duelId,\n        uint256 wizardId1,\n        uint256 wizardId2,\n        bytes32 moveSet1,\n        bytes32 moveSet2,\n        uint256 power1,\n        uint256 power2\n    );\n\n    // A Wizard challenges its opponent with the commitment of its moves.\n    event OneSidedCommitAdded(\n        uint256 committingWizardId,\n        uint256 otherWizardId,\n        uint256 committingWizardNonce,\n        uint256 otherWizardNonce,\n        bytes32 commitment\n    );\n\n    // A Wizard cancelled the commitment against its opponent.\n    event OneSidedCommitCancelled(\n        uint256 wizardId\n    );\n\n    // A Wizard revealed its own moves for a Duel.\n    event OneSidedRevealAdded(\n        bytes32 duelId,\n        uint256 committingWizardId,\n        uint256 otherWizardId\n    );\n\n    // A Duel times out, powers are post-resolution values\n    event DuelTimeOut(bytes32 duelId, uint256 wizardId1, uint256 wizardId2, uint256 power1, uint256 power2);\n\n    // A Wizard has been formally eliminated. Note that Elimination can only happen in the Elimination phase, and\n    // is NOT necessarily associated with a Wizard going to power zero.\n    event WizardElimination(uint256 wizardId);\n\n    // A Wizard in the \"danger zone\" has opted to try to Ascend\n    event AscensionStart(uint256 wizardId);\n\n    // A Wizard tried to Ascend when someone was in the Ascension Chamber; locked into a fight with each other.\n    event AscensionPairUp(uint256 wizardId1, uint256 wizardId2);\n\n    // A Wizard in the Ascension Chamber wasn't challenged during the Fight Window, their power triples!\n    event AscensionComplete(uint256 wizardId, uint256 power);\n\n    // A Wizard is challenging the ascending Wizard with the commitment of its moves.\n    event AscensionChallenged(uint256 ascendingWizardId, uint256 challengingWizardId, bytes32 commitment);\n\n    // A Wizard has been revived; power is the revival amount chosen (above Blue Mold level, below maxPower)\n    event Revive(uint256 wizId, uint256 power);\n\n    uint8 internal constant REASON_COMPLETE_ASCENSION = 1;\n    uint8 internal constant REASON_RESOLVE_ONE_SIDED_ASCENSION_BATTLE = 2;\n    uint8 internal constant REASON_GIFT_POWER = 3;\n    // One Wizard sent all of its power to another. \"sendingWizId\" has zero power after this\n    // reason is a enum type to distinguish between the different reasons that caused the power transfer.\n    //   1: The power transfer was caused by the completeAscension function.\n    //        An ascending wizard did not respond to a challenge, and loses all its power to the challenging wizard\n    //   2: The power transfer was caused by the resolveOneSidedAscensionBattle function.\n    //        A wizard in an ascension pair up did not commit moves during the fight window,\n    //        and the other wizard who did commit moves will take all of the non-committing wizards power\n    //   3: The power transfer was caused by the giftPower function.\n    //        The controller of a wizard elected to call a function that donates all of their wizards power\n    //        to another wizard of their choosing\n    event PowerTransferred(uint256 sendingWizId, uint256 receivingWizId, uint256 amountTransferred, uint8 reason);\n\n    // The winner (or one of the winners) has claimed their portion of the prize.\n    event PrizeClaimed(uint256 claimingWinnerId, uint256 prizeAmount);\n\n    // Used to prefix signed data blobs to prevent from signing a transaction\n    byte internal constant EIP191_PREFIX = byte(0x19);\n    byte internal constant EIP191_VERSION_DATA = byte(0);\n\n    /// @dev The ratio between the cost of a Wizard (in wei) and the power of the wizard.\n    ///      power = cost / powerScale\n    ///      cost = power * powerScale\n    /// @dev Note the \"cost\" here is the cost for the GateKeeper to mint a wizard in Tournament, not the\n    ///      cost for a user to acquire a certain power of wizard.\n    ///      GateKeeper has a hardcoded MAX_POWER_SCALE, which is 1000, so Tournament's powerScale is usually\n    ///      lower than MAX_POWER_SCALE in order for the GateKeeper to be profitable. Also see the comments on the\n    ///      powerScale_ argument in Tournament's constructor function.\n    uint256 public powerScale;\n\n    /// @dev The maximum power level attainable by a Wizard\n    uint88 internal constant MAX_POWER = uint88(-1);\n\n    // Address of the GateKeeper, likely to be a smart contract, but we don't care if it is\n    // TODO: Update this address once the Gate Keeper is deployed.\n    address public constant GATE_KEEPER = address(0x68132EB4BfD84b2D6A23ec4fB1B106F5C8574F2D);\n\n    // The Wizard Guild contract. This is a variable so subclasses can modify it for\n    // testing, but by default it cannot change from this default.\n    // TODO: Update this address once the Wizard Guild is deployed.\n    WizardGuildInterface public constant WIZARD_GUILD = WizardGuildInterface(address(0x0d8c864DA1985525e0af0acBEEF6562881827bd5));\n\n    // The Duel Resolver contract\n    DuelResolverInterface public duelResolver;\n\n    /// @notice Power and other data while the Wizard is participating in the Tournament\n    /// @dev fits into two words\n    struct BattleWizard {\n        /// @notice the wizards current power\n        uint88 power;\n\n        /// @notice the highest power a Wizard ever reached during a tournament\n        uint88 maxPower;\n\n        /// @notice a nonce value incremented when the Wizard's power level changes\n        uint32 nonce;\n\n        /// @notice a cached copy of the affinity of the Wizard - how handy!\n        uint8 affinity;\n\n        /// @notice The \"id\" of the Duel the Wizard is currently engaged in (which is actually\n        ///         the hash of the duel's parameters, see _beginDuel().)\n        bytes32 currentDuel;\n    }\n\n    mapping(uint256 => BattleWizard) internal wizards;\n\n    /// @notice The total number of Wizards in this tournament. Goes up as new Wizards are entered\n    ///         (during the Enter Phases), and goes down as Wizards get eliminated. We know we can\n    ///         look for winners once this gets down to 5 or less!\n    uint256 internal remainingWizards;\n\n    function getRemainingWizards() external view returns(uint256) {\n        return remainingWizards;\n    }\n\n    /// @notice A structure used to keep track of one-sided commitments that have been made on chain.\n    ///         We anticipate most duels will make use of the doubleCommitment mechanism (because it\n    ///         uses less gas), but that requires a trusted intermediary, so we provide one-sided commitments\n    ///         for fully trustless interactions.\n    struct SingleCommitment {\n        uint256 opponentId;\n        bytes32 commitmentHash;\n    }\n\n    // Key is Wizard ID, value is their selected opponent and their commitment hash\n    mapping(uint256 => SingleCommitment) internal pendingCommitments;\n\n    /// @notice A mapping that keeps track of one-sided reveals that have been made on chain. Like one-sided\n    ///         commits, we expect one-sided reveals to be rare. But not quite as rare! If a player takes too\n    ///         long to submit their reveal, their opponent will want to do a one-sided reveal to win the duel!\n    ///         First key is Duel ID, second key is Wizard ID, value is the revealed moveset. (This structure\n    ///         might seem odd if you aren't familiar with how Solidity handles storage-based mappings. If you\n    ///         are confused, it's worth looking into; it's non-obvious, but quite efficient and clever!)\n    mapping(bytes32 => mapping(uint256 => bytes32)) internal revealedMoves;\n\n    // There can be at most 1 ascending Wizard at a time, who's ID is stored in this variable. If a second\n    // Wizard tries to ascend when someone is already in the chamber, we make 'em fight!\n    uint256 internal ascendingWizardId;\n\n    function getAscendingWizardId() external view returns (uint256) {\n        return ascendingWizardId;\n    }\n\n    // If there is a Wizard in the growth chamber when a second Wizard attempts to ascend, those two\n    // Wizards are paired off into an Ascension Battle. This dictionary keeps track of the IDs of these\n    // paired off Wizards. Wizard 1's ID maps to Wizard 2, and vice versa. (This means that each Ascension\n    // Battle requires the storage of two words, which is kinda lame... \\_()_/ )\n    mapping(uint256 => uint256) internal ascensionOpponents;\n\n    // If there are an odd number of Wizards that attempt to ascend, one of them will be left in the\n    // Ascension Chamber when the Fighting Window starts. ANY Wizard can challenge them, and they MUST\n    // accept! This structure stores the commitment from the first challenger (if there is one).\n    //\n    // NOTE: The fields in this version of the structure are used subtly different than in the pending\n    // commitments mapping. In pendingCommitments, the opponentId is the ID of the person you want to fight\n    // and the commitmentHash is the commitment of YOUR moves. In the ascensionCommitment variable, the\n    // opponentId is the Wizard that has challenged the ascending Wizard, and the commitmentHash is their\n    // own moves. It makes sense in context, but it is technically a semantic switch worth being explicit about.\n    SingleCommitment internal ascensionCommitment;\n\n    struct Duel {\n        uint128 timeout;\n        bool isAscensionBattle;\n    }\n\n    /// @notice All of the currently active Duels, keyed by Duel ID\n    mapping(bytes32 => Duel) internal duels;\n\n    constructor(\n        address cooAddress_,\n        address duelResolver_,\n        // Note the InauguralGateKeeper defines the MAX_POWER_SCALE to be 1000. And the power scale here is supposed to be\n        // less than MAX_POWER_SCALE in order for the GateKeeper to be profitable.\n        // For example, If the Tournament uses 500 as the powerScale_, then 50% of the ether sent with the conjureWizard call will\n        // go to the GateKeeper and the other 50% will be forwarded to the Tournament.\n        // That means, with 500 as the powerScale_ of the Tournament, if a user calls GateKeeper's conjureWizard with 1 ether,\n        // then 0.5 ether will be forwarded to the Tournament contract as the pot prize to mint a wizard with 1000 power,\n        // and 0.5 ether will be retained in the GateKeeper contract as its earning.\n        // So using 1000 as the powerScale_ of the Tournament would make the GateKeeper unprofitable.\n        uint256 powerScale_,\n        uint40 tournamentStartBlock_,\n        uint32 admissionDuration_,\n        uint32 revivalDuration_,\n        uint24 ascensionDuration_,\n        uint24 fightDuration_,\n        uint24 cullingDuration_,\n        uint88 blueMoldBasePower_,\n        uint24 sessionsBetweenMoldDoubling_,\n        uint24 duelTimeoutBlocks_\n    )\n        public\n        TournamentTimeAbstract(\n            cooAddress_,\n            tournamentStartBlock_,\n            admissionDuration_,\n            revivalDuration_,\n            ascensionDuration_,\n            fightDuration_,\n            cullingDuration_,\n            duelTimeoutBlocks_,\n            blueMoldBasePower_,\n            sessionsBetweenMoldDoubling_\n        )\n    {\n        duelResolver = DuelResolverInterface(duelResolver_);\n        require(\n            duelResolver_ != address(0) &&\n            duelResolver.supportsInterface(_INTERFACE_ID_DUELRESOLVER));\n\n        powerScale = powerScale_;\n    }\n\n    /// @notice We allow this contract to accept any payments. All Eth sent in this way\n    ///         automatically becomes part of the prize pool. This is useful in cases\n    ///         where the Tournament organizers want to \"seed the pot\" with more funds\n    ///         than are contributed by the players.\n    function() external payable {}\n\n    /// @notice Query if a contract implements an interface\n    /// @param interfaceId The interface identifier, as specified in ERC-165\n    /// @dev Interface identification is specified in ERC-165. This function\n    ///      uses less than 30,000 gas.\n    function supportsInterface(bytes4 interfaceId) external view returns (bool) {\n        return\n            interfaceId == this.supportsInterface.selector || // ERC165\n            interfaceId == _INTERFACE_ID_TOURNAMENT; // Tournament\n    }\n\n    /// @notice Returns true if the Tournament is currently active.\n    ///\n    ///         NOTE: This will return false (not active) either before the Tournament\n    ///               begins (before any Wizards enter), or after it is over (after all\n    ///               Wizards have been eliminated.) It also considers a Tournament inactive\n    ///               if 200 * blueWallDoubling blocks have passed. (After 100 doublings\n    ///               ALL of the Wizards will have succumbed to the Blue Wall, and another\n    ///               100 doublings should be enough time for the winners to withdraw their\n    ///               winnings. Anything left after that is fair game for the GateKeeper to take.)\n    function isActive() public view returns (bool) {\n        uint256 maximumTournamentLength = blueMoldParameters.moldDoublingDuration * 200;\n\n        if (block.number > blueMoldParameters.blueMoldStartBlock + maximumTournamentLength) {\n            return false;\n        } else {\n            return remainingWizards != 0;\n        }\n    }\n\n\n    // NOTE: This might seem a like a slightly odd pattern. Typical smart contract code\n    //       (including other smart contracts that are part of Cheeze Wizards) would\n    //       just include the require() statement in the modifier itself instead of\n    //       creating an additional function.\n    //\n    //       Unfortunately, this contract is very close to the maximum size limit\n    //       for Ethereum (which is 24576 bytes, as per EIP-170). Modifiers work by\n    //       more-or-less copy-and-pasting the code in them into the functions they\n    //       decorate. It turns out that copying these modifiers (especially the\n    //       contents of checkController() into every function that uses them adds\n    //       up to a very large amount of space. By defining the modifier to be\n    //       no more than a function call, we can save several KBs of contract size\n    //       at a very small gas cost (an internal branch is just 10 gas)).\n\n    function checkGateKeeper() internal view {\n        require(msg.sender == GATE_KEEPER, \"Only GateKeeper can call\");\n    }\n\n\n    // Modifier for functions only exposed to the GateKeeper\n    modifier onlyGateKeeper() {\n        checkGateKeeper();\n        _;\n    }\n\n    function checkExists(uint256 wizardId) internal view {\n        require(wizards[wizardId].maxPower != 0, \"Wizard does not exist\");\n    }\n\n    // Modifier to ensure a specific Wizard is currently entered into the Tournament\n    modifier exists(uint256 wizardId) {\n        checkExists(wizardId);\n        _;\n    }\n\n    function checkController(uint256 wizardId) internal view {\n        require(wizards[wizardId].maxPower != 0, \"Wizard does not exist\");\n        require(WIZARD_GUILD.isApprovedOrOwner(msg.sender, wizardId), \"Must be Wizard controller\");\n    }\n\n    // Modifier for functions that only the owner (or an approved operator) should be able to call\n    // Also checks that the Wizard exists!\n    modifier onlyWizardController(uint256 wizardId) {\n        checkController(wizardId);\n        _;\n    }\n\n    /// @notice A function to get the current state of the Wizard, includes the computed properties:\n    ///         ascending (is this Wizard in the ascension chamber), ascensionOpponent (the ID of\n    ///         an ascensionChallenger, if any) molded (this Wizard's power below the Blue Mold power\n    ///         level), and ready (see the isReady() method for definition). You can tell if a Wizard\n    ///         is in a battle by checking \"currentDuel\" against 0.\n    function getWizard(uint256 wizardId) public view exists(wizardId) returns(\n        uint256 affinity,\n        uint256 power,\n        uint256 maxPower,\n        uint256 nonce,\n        bytes32 currentDuel,\n        bool ascending,\n        uint256 ascensionOpponent,\n        bool molded,\n        bool ready\n    ) {\n        BattleWizard memory wizard = wizards[wizardId];\n\n        affinity = wizard.affinity;\n        power = wizard.power;\n        maxPower = wizard.maxPower;\n        nonce = wizard.nonce;\n        currentDuel = wizard.currentDuel;\n\n        ascending = ascendingWizardId == wizardId;\n        ascensionOpponent = ascensionOpponents[wizardId];\n        molded = _blueMoldPower() > wizard.power;\n        ready = _isReady(wizardId, wizard);\n    }\n\n    /// @notice A finger printing function to capture the important state data about a Wizard into\n    ///         a secure hash. This is especially useful during sales and trading to be sure that the Wizard's\n    ///         state hasn't changed materially between the time the trade/purchase decision was made and\n    ///         when the actual transfer is executed on-chain.\n    function wizardFingerprint(uint256 wizardId) external view returns (bytes32) {\n        (uint256 affinity,\n        uint256 power,\n        uint256 maxPower,\n        uint256 nonce,\n        bytes32 currentDuel,\n        bool ascending,\n        uint256 ascensionOpponent,\n        bool molded,\n        ) = getWizard(wizardId);\n\n        uint256 pendingOpponent = pendingCommitments[wizardId].opponentId;\n\n        // Includes all Wizard state (including computed properties) plus the Wizard ID\n        // TODO: remove all pending commitment code\n        return keccak256(\n            abi.encodePacked(\n                wizardId,\n                affinity,\n                power,\n                maxPower,\n                nonce,\n                currentDuel,\n                ascending,\n                ascensionOpponent,\n                molded,\n                pendingOpponent\n            ));\n    }\n\n    /// @notice Returns true if a Wizard is \"ready\", meaning it can participate in a battle, ascension, or power\n    ///         transfer. A \"ready\" Wizard is not ascending, not battling, not moldy, hasn't committed to an ascension\n    ///         battle, and has a valid affinity.\n    function isReady(uint256 wizardId) public view exists(wizardId) returns (bool) {\n        BattleWizard memory wizard = wizards[wizardId];\n\n        return _isReady(wizardId, wizard);\n    }\n\n    /// @notice An internal version of the isReady function that leverages a BattleWizard struct\n    ///         that is already in memory\n    function _isReady(uint256 wizardId, BattleWizard memory wizard) internal view returns (bool) {\n        // IMPORTANT NOTE: oneSidedCommit() needs to recreate 90% of this logic, because it needs to check to\n        //     see if a Wizard is ready, but it allows the Wizard to have an ascension opponent. If you make any\n        //     changes to this function, you should double check that the same edit doesn't need to be made\n        //     to oneSidedCommit().\n        return ((wizardId != ascendingWizardId) &&\n            (ascensionOpponents[wizardId] == 0) &&\n            (ascensionCommitment.opponentId != wizardId) &&\n            (_blueMoldPower() <= wizard.power) &&\n            (wizard.affinity != ELEMENT_NOTSET) &&\n            (wizard.currentDuel == 0));\n    }\n\n    /// @notice The function called by the GateKeeper to enter wizards into the tournament. Only the GateKeeper can\n    ///         call this function, meaning that the GateKeeper gets to decide who can enter. However! The Tournament\n    ///         enforces that ALL Wizards that are entered into the Tournament have paid the same pro-rata share of\n    ///         the prize pool as matches their starting power. Additionally, the starting power for each Wizard\n    ///         in the Tournament can't exceed the innate power of the Wizard when it was created. This is done to\n    ///         ensure the Tournament is possible.\n    /// @param wizardIds The IDs of the Wizards to enter into the Tournament, can be length 1.\n    /// @param powers The list of powers for each of the Wizards (one-to-one mapping by index).\n    function enterWizards(uint256[] calldata wizardIds, uint88[] calldata powers) external payable duringEnterPhase onlyGateKeeper {\n        require(wizardIds.length == powers.length, \"Mismatched parameter lengths\");\n\n        uint256 totalCost = 0;\n\n        for (uint256 i = 0; i < wizardIds.length; i++) {\n            uint256 wizardId = wizardIds[i];\n            uint88 power = powers[i];\n\n            require(wizards[wizardId].maxPower == 0, \"Wizard already in tournament\");\n\n            (, uint88 innatePower, uint8 affinity, ) = WIZARD_GUILD.getWizard(wizardId);\n\n            require(power > 0 && power <= innatePower, \"Invalid power\");\n\n            wizards[wizardId] = BattleWizard({\n                power: power,\n                maxPower: power,\n                nonce: 0,\n                affinity: affinity,\n                currentDuel: 0\n            });\n\n            totalCost += power * powerScale;\n        }\n\n        remainingWizards += wizardIds.length;\n\n        require(msg.value >= totalCost, \"Insufficient funds\");\n    }\n\n    /// @dev Brings a tired Wizard back to fightin' strength. Can only be used during the revival\n    ///      phase. The buy-back can be to any power level between the Blue Wall power (at the low end)\n    ///      and the previous max power achieved by this Wizard in this tournament. This does mean a revival\n    ///      can bring a Wizard back above their innate power! The contribution into the pot MUST be equivalent\n    ///      to the cost that would be needed to bring in a new Wizard at the same power level. Can only\n    ///      be called by the GateKeeper to allow the GateKeeper to manage the pot contribution rate and\n    ///      potentially apply other rules or requirements to revival.\n    function revive(uint256 wizardId) external payable exists(wizardId) duringRevivalPhase onlyGateKeeper {\n        BattleWizard storage wizard = wizards[wizardId];\n\n        uint88 maxPower = wizard.maxPower;\n        uint88 revivalPower = uint88(msg.value / powerScale);\n\n        require((revivalPower > _blueMoldPower()) && (revivalPower <= maxPower), \"Invalid power level\");\n        require(wizard.power == 0, \"Can only revive tired Wizards\");\n\n        // There is no scenario in which a Wizard can be \"not ready\" and have a zero power.\n        // require(isReady(wizardId), \"Can't revive a busy Wizard\");\n\n        wizard.power = revivalPower;\n        wizard.nonce += 1;\n\n        emit Revive(wizardId, revivalPower);\n    }\n\n    /// @notice Updates the cached value of a Wizard's affinity with the value from the Wizard Guild.\n    ///         Only useful for Exclusive Wizards that initially have no elemental affinity, and which\n    ///         is then selected by the owner. When the Wizard enters the Tournament it might not have\n    ///         it's affinity set yet, and this will copy the affinity from the Guild contract if it's\n    ///         been updated. Can be called by anyone since it can't be abused.\n    /// @param wizardId The id of the Wizard to update\n    function updateAffinity(uint256 wizardId) external exists(wizardId) {\n        (, , uint8 newAffinity, ) = WIZARD_GUILD.getWizard(wizardId);\n        BattleWizard storage wizard = wizards[wizardId];\n        require(wizard.affinity == ELEMENT_NOTSET, \"Affinity already updated\");\n        wizard.affinity = newAffinity;\n    }\n\n    function startAscension(uint256 wizardId) external duringAscensionWindow onlyWizardController(wizardId) {\n        BattleWizard memory wizard = wizards[wizardId];\n\n        require(_isReady(wizardId, wizard), \"Can't ascend a busy wizard!\");\n\n        require(wizard.power < _blueMoldPower() * 2, \"Not eligible for ascension\");\n\n        if (ascendingWizardId != 0) {\n            // there is already a Wizard ascending! Pair up the incoming Wizard with the\n            // Wizard in the Ascension Chamber and make them fight it out!\n            ascensionOpponents[ascendingWizardId] = wizardId;\n            ascensionOpponents[wizardId] = ascendingWizardId;\n\n            emit AscensionPairUp(ascendingWizardId, wizardId);\n\n            // Empty out the Ascension Chamber for the next Ascension\n            ascendingWizardId = 0;\n        } else {\n            // the chamber is empty, get in!\n            ascendingWizardId = wizardId;\n\n            emit AscensionStart(wizardId);\n        }\n    }\n\n    function _checkChallenge(uint256 challengerId, uint256 recipientId) internal view {\n        require(pendingCommitments[challengerId].opponentId == 0, \"Pending battle already exists\");\n        require(recipientId > 0, \"No Wizard is ascending\");\n        require(challengerId != recipientId, \"Cannot duel oneself!\");\n    }\n\n    /// @notice Any live Wizard can challenge an ascending Wizard during the fight phase. They must\n    ///         provide a commitment of their moves (which is totally reasonable, since they know\n    ///         exactly who they will be fighting!)\n    function challengeAscending(uint256 wizardId, bytes32 commitment) external duringFightWindow onlyWizardController(wizardId) {\n        require(ascensionCommitment.opponentId == 0, \"Wizard already challenged\");\n\n        _checkChallenge(wizardId, ascendingWizardId);\n\n        // Ascension Battles MUST come well before the end of the fight window to give the\n        // ascending Wizard a chance to respond with their own commitment.\n        require(canChallengeAscendingWizard(), \"Challenge too late\");\n\n        BattleWizard memory wizard = wizards[wizardId];\n\n        require(_isReady(wizardId, wizard), \"Wizard not ready\");\n        // We don't need to call isReady() on the ascendingWizard: It's definitionally ready for a challenge!\n\n        // Store a pending commitment that the ascending Wizard can accept\n        ascensionCommitment = SingleCommitment({opponentId: wizardId, commitmentHash: commitment});\n        emit AscensionChallenged(ascendingWizardId, wizardId, commitment);\n    }\n\n    /// @notice Allows the Ascending Wizard to respond to an ascension commitment with their own move commitment,\n    //          thereby starting an Ascension Battle.\n    function acceptAscensionChallenge(bytes32 commitment) external duringFightWindow onlyWizardController(ascendingWizardId) {\n        uint256 challengerId = ascensionCommitment.opponentId;\n        require(challengerId != 0, \"No challenge to accept\");\n\n        if (challengerId < ascendingWizardId) {\n            _beginDuel(challengerId, ascendingWizardId, ascensionCommitment.commitmentHash, commitment, true);\n        } else {\n            _beginDuel(ascendingWizardId, challengerId, commitment, ascensionCommitment.commitmentHash, true);\n        }\n\n        // The duel has begun! THERE CAN BE ONLY ONE!!!\n        delete ascensionCommitment;\n        delete ascendingWizardId;\n    }\n\n    /// @notice Completes the Ascension for the Wizard in the Ascension Chamber. Note that this can only be called\n    ///         during a Resolution Window, and a Wizard can only enter the Ascension Chamber during the Ascension Window,\n    ///         and there is _always_ a Fight Window between the Ascension Window and the Resolution Window. In other\n    ///         words, there is a always a chance for a challenger to battle the Ascending Wizard before the\n    ///         ascension can complete.\n    function completeAscension() external duringResolutionWindow {\n        require(ascendingWizardId != 0, \"No Wizard to ascend\");\n\n        BattleWizard storage ascendingWiz = wizards[ascendingWizardId];\n\n        if (ascensionCommitment.opponentId != 0) {\n            // Someone challenged the ascending Wizard, but the ascending Wizard didn't fight!\n            // You. Are. Outtahere!\n            _transferPower(ascendingWizardId, ascensionCommitment.opponentId, REASON_COMPLETE_ASCENSION);\n        }\n        else {\n            // Oh lucky day! The Wizard survived a complete fight cycle without any challengers\n            // coming along! Let's just triple their power.\n            //\n            // A note to the naive: THIS WILL NEVER ACTUALLY HAPPEN.\n            _updatePower(ascendingWiz, ascendingWiz.power * 3);\n            ascendingWiz.nonce += 1;\n        }\n\n        emit AscensionComplete(ascendingWizardId, ascendingWiz.power);\n\n        ascendingWizardId = 0;\n    }\n\n    function oneSidedCommit(uint256 committingWizardId, uint256 otherWizardId, bytes32 commitment)\n            external duringFightWindow onlyWizardController(committingWizardId) exists(otherWizardId)\n    {\n        _checkChallenge(committingWizardId, otherWizardId);\n\n        bool isAscensionBattle = false;\n\n        if ((ascensionOpponents[committingWizardId] != 0) || (ascensionOpponents[otherWizardId] != 0)) {\n            require(\n                (ascensionOpponents[committingWizardId] == otherWizardId) &&\n                (ascensionOpponents[otherWizardId] == committingWizardId), \"Must resolve Ascension Battle\");\n\n            isAscensionBattle = true;\n        }\n\n        BattleWizard memory committingWiz = wizards[committingWizardId];\n        BattleWizard memory otherWiz = wizards[otherWizardId];\n\n        // Ideally, we'd use the isReady() function here, but it will return false if the caller has an\n        // ascension opponent, which, of course, our Wizards just might!\n        require(\n            (committingWizardId != ascendingWizardId) &&\n            (ascensionCommitment.opponentId != committingWizardId) &&\n            (_blueMoldPower() <= committingWiz.power) &&\n            (committingWiz.affinity != ELEMENT_NOTSET) &&\n            (committingWiz.currentDuel == 0), \"Wizard not ready\");\n\n        require(\n            (otherWizardId != ascendingWizardId) &&\n            (ascensionCommitment.opponentId != otherWizardId) &&\n            (_blueMoldPower() <= otherWiz.power) &&\n            (otherWiz.affinity != ELEMENT_NOTSET) &&\n            (otherWiz.currentDuel == 0), \"Wizard not ready.\");\n\n        SingleCommitment memory otherCommitment = pendingCommitments[otherWizardId];\n\n        if (otherCommitment.opponentId == 0) {\n            // The other Wizard does not currently have any pending commitments, we will store a\n            // pending commitment so that the other Wizard can pick it up later.\n            pendingCommitments[committingWizardId] = SingleCommitment({opponentId: otherWizardId, commitmentHash: commitment});\n\n            emit OneSidedCommitAdded(\n                committingWizardId,\n                otherWizardId,\n                committingWiz.nonce,\n                otherWiz.nonce,\n                commitment);\n        } else if (otherCommitment.opponentId == committingWizardId) {\n            // We've found a matching commitment! Be sure to order them correctly...\n            if (committingWizardId < otherWizardId) {\n                _beginDuel(committingWizardId, otherWizardId, commitment, otherCommitment.commitmentHash, isAscensionBattle);\n            } else {\n                _beginDuel(otherWizardId, committingWizardId, otherCommitment.commitmentHash, commitment, isAscensionBattle);\n            }\n\n            delete pendingCommitments[otherWizardId];\n\n            if (isAscensionBattle) {\n                delete ascensionOpponents[committingWizardId];\n                delete ascensionOpponents[otherWizardId];\n            }\n        }\n        else {\n            revert(\"Opponent has a pending challenge\");\n        }\n    }\n\n    function cancelCommitment(uint256 wizardId) external onlyWizardController(wizardId) {\n        require(ascensionOpponents[wizardId] == 0, \"Can't cancel Ascension Battle\");\n\n        // Only emit the event when pendingCommitment exists.\n        if (pendingCommitments[wizardId].opponentId != 0) {\n            emit OneSidedCommitCancelled(wizardId);\n        }\n\n        delete pendingCommitments[wizardId];\n    }\n\n    /// @notice Commits two Wizards into a duel with a single transaction. Both Wizards must be \"ready\"\n    ///      (not ascending, not battling, not moldy, and having a valid affinity), and it must be during a\n    ///      Fight Window.\n    /// @dev A note on implementation: Each duel is identified by a hash that combines both Wizard IDs,\n    ///      both Wizard nonces, and both commits. Just the IDs and nonces are sufficient to ensure a unique\n    ///      identifier of the duel, but by including the commits in the hash, we don't need to store the commits\n    ///      on-chain (which is pretty expensive, given that they each take up 32 bytes). This does mean that\n    ///      the duel resolution functions require the caller to pass in both commits in order to be resolved, but\n    ///      the commit data is publicly available. Overall, this results in a pretty significant gas savings.\n    ///\n    ///      Earlier versions of this function provided convenience functionality, such as checking to see if a\n    ///      Wizard was ready to ascend, or needed to be removed from a timed-out duel before starting this duel.\n    ///      Each of those checks took more gas, required more code, and ultimately just tested conditions that are\n    ///      trivial to check off-chain (where code is cheap and gas is for cars). This results in clearer\n    ///      on-chain code, and very little extra effort off-chain.\n    /// @param wizardId1 The id of the 1st wizard\n    /// @param wizardId2 The id of the 2nd wizard\n    /// @param commit1 The commitment hash of the 1st Wizard's moves\n    /// @param commit2 The commitment hash of the 2nd Wizard's moves\n    /// @param sig1 The signature corresponding to wizard1\n    /// @param sig2 The signature corresponding to wizard2\n    function doubleCommit(\n        uint256 wizardId1,\n        uint256 wizardId2,\n        bytes32 commit1,\n        bytes32 commit2,\n        bytes calldata sig1,\n        bytes calldata sig2) external duringFightWindow returns (bytes32 duelId) {\n\n        // Ideally, we'd use the exists() modifiers instead of this code, but doing so runs over\n        // Solidity's stack limit\n        checkExists(wizardId1);\n        checkExists(wizardId2);\n\n        // The Wizard IDs must be strictly in ascending order so that we don't treat a battle between\n        // \"wizard 3 and wizard 5\" as different than the battle between \"wizard 5 and wizard 3\".\n        // This also ensures that a Wizards isn't trying to duel itself!\n        require(wizardId1 < wizardId2, \"Wizard IDs must be ordered\");\n\n        bool isAscensionBattle = false;\n\n        if ((ascensionOpponents[wizardId1] != 0) || (ascensionOpponents[wizardId2] != 0)) {\n            require(\n                (ascensionOpponents[wizardId1] == wizardId2) &&\n                (ascensionOpponents[wizardId2] == wizardId1), \"Must resolve Ascension Battle\");\n\n            isAscensionBattle = true;\n\n            // We can safely delete the ascensionOpponents values now because either this function\n            // will culminate in a committed duel, or it will revert entirely. It also lets us\n            // use the _isReady() convenience function (which treats a Wizard with a non-zero\n            // ascension opponent as not ready).\n            delete ascensionOpponents[wizardId1];\n            delete ascensionOpponents[wizardId2];\n        }\n\n        // Get in-memory copies of the wizards\n        BattleWizard memory wiz1 = wizards[wizardId1];\n        BattleWizard memory wiz2 = wizards[wizardId2];\n\n        require(_isReady(wizardId1, wiz1) && _isReady(wizardId2, wiz2), \"Wizard not ready\");\n\n        // Check that the signatures match the duel data and commitments\n        bytes32 signedHash1 = _signedHash(wizardId1, wizardId2, wiz1.nonce, wiz2.nonce, commit1);\n        bytes32 signedHash2 = _signedHash(wizardId1, wizardId2, wiz1.nonce, wiz2.nonce, commit2);\n        WIZARD_GUILD.verifySignatures(wizardId1, wizardId2, signedHash1, signedHash2, sig1, sig2);\n\n        // If both signatures have passed, we can begin the duel!\n        duelId = _beginDuel(wizardId1, wizardId2, commit1, commit2, isAscensionBattle);\n\n        // Remove any potential commitments so that they won't be reused\n        delete pendingCommitments[wizardId1];\n        delete pendingCommitments[wizardId2];\n    }\n\n    /// @notice An internal utility function that computes the hash that is used for the commitment signature\n    ///         from each Wizard.\n    function _signedHash(uint256 wizardId1, uint256 wizardId2, uint32 nonce1, uint32 nonce2, bytes32 commit)\n        internal view returns(bytes32)\n    {\n        return keccak256(\n            abi.encodePacked(\n            EIP191_PREFIX,\n            EIP191_VERSION_DATA,\n            this,\n            wizardId1,\n            wizardId2,\n            nonce1,\n            nonce2,\n            commit\n        ));\n    }\n\n    /// @notice The internal utility function to create the duel structure on chain, requires Commitments\n    ///         from both Wizards.\n    function _beginDuel(uint256 wizardId1, uint256 wizardId2, bytes32 commit1, bytes32 commit2, bool isAscensionBattle)\n            internal returns (bytes32 duelId)\n    {\n        // Get a reference to the Wizard objects in storage\n        BattleWizard storage wiz1 = wizards[wizardId1];\n        BattleWizard storage wiz2 = wizards[wizardId2];\n\n        // Compute a unique ID for this battle, this ID can't be reused because we strictly increase\n        // the nonce for each Wizard whenever a battle is recreated. (Includes the contract address\n        // to avoid replay attacks between different tournaments).\n        duelId = keccak256(\n            abi.encodePacked(\n            this,\n            wizardId1,\n            wizardId2,\n            wiz1.nonce,\n            wiz2.nonce,\n            commit1,\n            commit2\n        ));\n\n        // Store the duel ID in each Wizard, to mark the fact that they are fighting\n        wiz1.currentDuel = duelId;\n        wiz2.currentDuel = duelId;\n\n        // Keep track of the timeout for this duel\n        uint256 duelTimeout;\n\n        if (isAscensionBattle) {\n            // Ascension Battles always last for a while after the current fight window to ensure\n            // both sides have a well-defined timeframe for revealing their moves (Ascension Battles)\n            // are inherently more asynchronous than normal battles.\n            duelTimeout = _ascensionDuelTimeout();\n        } else {\n            // Normal battles just timeout starting .... NOW!\n            duelTimeout = block.number + tournamentTimeParameters.duelTimeoutDuration;\n        }\n\n        duels[duelId] = Duel({timeout: uint128(duelTimeout), isAscensionBattle: isAscensionBattle});\n\n        emit DuelStart(duelId, wizardId1, wizardId2, duelTimeout, isAscensionBattle, commit1, commit2);\n    }\n\n    /// @notice Reveals the moves for one of the Wizards in a duel. This should be called rarely, but\n    ///         is necessary in order to resolve a duel where one player is unwilling or unable to reveal\n    ///         their moves (also useful if a coordinating intermediary is unavailable or unwanted for some reason).\n    ///         It's worth noting that this method doesn't check any signatures or filter on msg.sender because\n    ///         it is cryptographically impossible for someone to submit a moveset and salt that matches the\n    ///         commitment (which was signed, don't forget!).\n    ///\n    ///         Note: This function doesn't need exists(wizardId) because an eliminated Wizard would have\n    ///               currentDuel == 0\n    /// @param committingWizardId The Wizard whose moves are being revealed\n    /// @param commit A copy of the commitment used previously, not stored on-chain to save gas\n    /// @param moveSet The revealed move set\n    /// @param salt The salt used to secure the commitment hash\n    /// @param otherWizardId The other Wizard in this battle\n    /// @param otherCommit The other Wizard's commitment, not stored on-chain to save gas\n    function oneSidedReveal(\n        uint256 committingWizardId,\n        bytes32 commit,\n        bytes32 moveSet,\n        bytes32 salt,\n        uint256 otherWizardId,\n        bytes32 otherCommit) external\n    {\n        BattleWizard memory wizard = wizards[committingWizardId];\n        BattleWizard memory otherWizard = wizards[otherWizardId];\n\n        bytes32 duelId = wizard.currentDuel;\n\n        require(duelId != 0, \"Wizard not dueling\");\n\n        // Check that the passed data matches the duel hash\n        bytes32 computedDuelId;\n\n        // Make sure we compute the duel ID with the Wizards sorted in ascending order\n        if (committingWizardId < otherWizardId) {\n            computedDuelId = keccak256(\n                abi.encodePacked(\n                this,\n                committingWizardId,\n                otherWizardId,\n                wizard.nonce,\n                otherWizard.nonce,\n                commit,\n                otherCommit\n            ));\n        } else {\n            computedDuelId = keccak256(\n                abi.encodePacked(\n                this,\n                otherWizardId,\n                committingWizardId,\n                otherWizard.nonce,\n                wizard.nonce,\n                otherCommit,\n                commit\n            ));\n        }\n\n        require(computedDuelId == duelId, \"Invalid duel data\");\n\n        // Confirm that the revealed data matches the commitment\n        require(keccak256(abi.encodePacked(moveSet, salt)) == commit, \"Moves don't match commitment\");\n\n        // We need to verify that the provided moveset is valid here. Otherwise the duel resolution will\n        // fail later, and the duel can never be resolved. We treat a _valid_ commit/reveal of an _invalid_\n        // moveset as being equivalent of not providing a reveal (which is subject to automatic loss). I mean,\n        // you really should have known better!\n        require(duelResolver.isValidMoveSet(moveSet), \"Invalid moveset\");\n\n        if (revealedMoves[duelId][otherWizardId] != 0) {\n            // We have the revealed moves for the other Wizard also, we can resolve the duel now\n            if (committingWizardId < otherWizardId) {\n                _resolveDuel(duelId, committingWizardId, otherWizardId, moveSet, revealedMoves[duelId][otherWizardId]);\n            } else {\n                _resolveDuel(duelId, otherWizardId, committingWizardId, revealedMoves[duelId][otherWizardId], moveSet);\n            }\n        }\n        else {\n            require(block.number < duels[duelId].timeout, \"Duel expired\");\n            // Store our revealed moves for later resolution\n            revealedMoves[duelId][committingWizardId] = moveSet;\n            emit OneSidedRevealAdded(duelId, committingWizardId, otherWizardId);\n        }\n    }\n\n    /// @notice Reveals the moves for both Wizards at once, saving lots of gas and lowering the number\n    ///         of required transactions. As with oneSidedReveal(), no authentication is required other\n    ///         than matching the reveals to the commits. It is not an error if oneSidedReveal is called\n    ///         and then doubleReveal, although we do ignore the previous one-sided reveal if it exists.\n    ///         The _resolvedDuel utility function will clean up any cached revealedMoves for BOTH Wizards.\n    ///\n    ///         NOTE: As with the doubleCommit() method, the Wizards must be provided in _strict_ ascending\n    ///         order for this function to work correctly.\n    ///\n    ///         NOTE: This function will fail if _either_ of the Wizards have submitted an invalid moveset.\n    ///         The correct way of handling this situation is to use oneSidedReveal() (if one moveset is valid\n    ///         and the other is not) and then let the Battle timeout, or -- if both movesets are invalid --\n    ///         don't do any reveals and let the Battle timeout.\n    ///\n    ///         Note: This function doesn't need exists(wizardId1) exists(wizardId2) because an\n    ///               eliminated Wizard would have currentDuel == 0\n    /// @param wizardId1 The id of the 1st wizard\n    /// @param wizardId2 The id of the 2nd wizard\n    /// @param commit1 A copy of the 1st Wizard's commitment, not stored on-chain to save gas\n    /// @param commit2 A copy of the 2nd Wizard's commitment, not stored on-chain to save gas\n    /// @param moveSet1 The plaintext reveal (moveset) of the 1st wizard\n    /// @param moveSet2 The plaintext reveal (moveset) of the 2nd wizard\n    /// @param salt1 The secret salt of the 1st wizard\n    /// @param salt2 The secret salt of the 2nd wizard\n    function doubleReveal(\n        uint256 wizardId1,\n        uint256 wizardId2,\n        bytes32 commit1,\n        bytes32 commit2,\n        bytes32 moveSet1,\n        bytes32 moveSet2,\n        bytes32 salt1,\n        bytes32 salt2) external\n    {\n        // Get a reference to the Wizard objects in storage\n        BattleWizard storage wiz1 = wizards[wizardId1];\n        BattleWizard storage wiz2 = wizards[wizardId2];\n\n        // In order to match the duel ID generated by the commit functions, the Wizard IDs must be strictly\n        // in ascending order. However! We don't actually check that here because that just wastes gas\n        // to perform a check that the duel ID comparison below will have to do anyway. But, we're leaving\n        // this commented out here as a reminder...\n        // require(wizardId1 < wizardId2, \"Wizard IDs must be ordered\");\n\n        // Confirm that the duel data passed into the function matches the duel ID in the Wizard\n        bytes32 duelId = keccak256(\n            abi.encodePacked(\n            this,\n            wizardId1,\n            wizardId2,\n            wiz1.nonce,\n            wiz2.nonce,\n            commit1,\n            commit2\n        ));\n\n        // NOTE: We don't actually need to check the currentDuel field of the other Wizard because\n        // we trust the hash function.\n        require(wiz1.currentDuel == duelId, \"Invalid duel data\");\n\n        // Confirm that the reveals match the commitments\n        require(\n            (keccak256(abi.encodePacked(moveSet1, salt1)) == commit1) &&\n            (keccak256(abi.encodePacked(moveSet2, salt2)) == commit2), \"Moves don't match commitment\");\n\n        // Resolve the duel!\n        _resolveDuel(duelId, wizardId1, wizardId2, moveSet1, moveSet2);\n    }\n\n    /// @notice An utility function to resolve a duel once both movesets have been revealed.\n    function _resolveDuel(bytes32 duelId, uint256 wizardId1, uint256 wizardId2, bytes32 moveSet1, bytes32 moveSet2) internal {\n        Duel memory duelInfo = duels[duelId];\n\n        require(block.number < duelInfo.timeout, \"Duel expired\");\n\n        // Get a reference to the Wizard objects in storage\n        BattleWizard storage wiz1 = wizards[wizardId1];\n        BattleWizard storage wiz2 = wizards[wizardId2];\n\n        int256 battlePower1 = wiz1.power;\n        int256 battlePower2 = wiz2.power;\n\n        int256 moldPower = int256(_blueMoldPower());\n\n        if (duelInfo.isAscensionBattle) {\n            // In Ascension Battles, if one Wizard is more powerful than the other Wizard by\n            // more than double the current blue mold level, we cap the at-risk power of that\n            // more powerful Wizard to match the power level of the weaker wizard. This probably\n            // isn't clear, so here are some examples. In all of these examples, the second wizard\n            // is more powerful than the first, but the logic is equivalent in both directions.\n            // In each case, we assume the blue mold level is 100. (The non-intuitive lines are\n            // marked with an arrow.)\n            //\n            //  power1   |   power2   |   battlePower2\n            //   100     |    100     |     100\n            //   100     |    200     |     200\n            //   100     |    300     |     300\n            //   100     |    301     |     100  <==\n            //   199     |    200     |     200\n            //   199     |    300     |     300\n            //   199     |    399     |     399\n            //   199     |    400     |     199  <==\n            //\n            // This technique is necessary to achieve three somewhat conflicting goals\n            // simultaneously:\n            //    - Anyone should be able to battle an ascending Wizard, regardless of the\n            //      power differential\n            //    - Your probability of winning an Ascension Battle should be proportional to\n            //      the amount of power you put at risk\n            //    - A Wizard that is Ascending should be _guaranteed_ that, if they manage to\n            //      win the Ascension Battle, they will have enough power to escape the next\n            //      Blue Mold increase. (And if they lose, at least they had a fair shot.)\n            //\n            // Note that although a very powerful Wizard becomes less likely to win under this\n            // scheme (because they aren't using their entire power in this battle), they are\n            // putting much less power at risk (while the ascending Wizard is risking EVERYTHING).\n            if (battlePower1 > battlePower2 + 2*moldPower) {\n                battlePower1 = battlePower2;\n            } else if (battlePower2 > battlePower1 + 2*moldPower) {\n                battlePower2 = battlePower1;\n            }\n        }\n\n        int256 powerDiff = duelResolver.resolveDuel(\n            moveSet1,\n            moveSet2,\n            uint256(battlePower1),\n            uint256(battlePower2),\n            wiz1.affinity,\n            wiz2.affinity);\n\n        // A duel resolver should never return a negative value with a magnitude greater than the\n        // first wizard's power, or a positive value with a magnitude greater than the second\n        // wizard's power. We enforce that here to be safe (since it is an external contract).\n        if (powerDiff < -battlePower1) {\n            powerDiff = -battlePower1;\n        } else if (powerDiff > battlePower2) {\n            powerDiff = battlePower2;\n        }\n\n        // Given the checks above, both of these values will resolve to >= 0\n        battlePower1 += powerDiff;\n        battlePower2 -= powerDiff;\n\n        if (duelInfo.isAscensionBattle) {\n            // In an Ascension Battle, we always transfer 100% of the power-at-risk. Give it\n            // to the Wizard with the highest power after the battle (which might not be the\n            // Wizard who got the higher score!)\n            if (battlePower1 >= battlePower2) {\n                // NOTE! The comparison above is very carefully chosen: In the case of a\n                // tie in the power level after the battle (exceedingly unlikely, but possible!)\n                // we want the win to go to the Wizard with the lower ID. Since all of the duel\n                // functions require the wizards to be strictly ascending ID order, that's\n                // wizardId1, which means we want a tie to land in this leg of the if-else statement.\n                powerDiff += battlePower2;\n            } else {\n                powerDiff -= battlePower1;\n            }\n        }\n\n        // We now apply the power differential to the _actual_ Wizard powers (and not just\n        // the power-at-risk).\n        int256 power1 = wiz1.power + powerDiff;\n        int256 power2 = wiz2.power - powerDiff;\n\n        // We now check to see if either of the wizards ended up under the blue mold level.\n        // If so, we transfer ALL of the rest of the power from the weaker Wizard to the winner.\n        if (power1 < moldPower) {\n            power2 += power1;\n            power1 = 0;\n        }\n        else if (power2 < moldPower) {\n            power1 += power2;\n            power2 = 0;\n        }\n\n        _updatePower(wiz1, power1);\n        _updatePower(wiz2, power2);\n\n        // unlock wizards\n        wiz1.currentDuel = 0;\n        wiz2.currentDuel = 0;\n\n        // Increment the Wizard nonces\n        wiz1.nonce += 1;\n        wiz2.nonce += 1;\n\n        // Clean up old data\n        delete duels[duelId];\n        delete revealedMoves[duelId][wizardId1];\n        delete revealedMoves[duelId][wizardId2];\n\n        // emit event\n        emit DuelEnd(duelId, wizardId1, wizardId2, moveSet1, moveSet2, wiz1.power, wiz2.power);\n    }\n\n    /// @notice Utility function to update the power on a Wizard, ensuring it doesn't overflow\n    ///         a uint88 and also updates maxPower as appropriate.\n    // solium-disable-next-line security/no-assign-params\n    function _updatePower(BattleWizard storage wizard, int256 newPower) internal {\n        if (newPower > MAX_POWER) {\n            newPower = MAX_POWER;\n        }\n\n        wizard.power = uint88(newPower);\n\n        if (wizard.maxPower < newPower) {\n            wizard.maxPower = uint88(newPower);\n        }\n    }\n\n    /// @notice Utility function to transfer all power from sending Wizard to receiving Wizard\n    /// and emit a PowerTransferred event\n    function _transferPower(uint256 sendingWizardId, uint256 receivingWizardId, uint8 reason) internal {\n        BattleWizard storage sendingWiz = wizards[sendingWizardId];\n        BattleWizard storage receivingWiz = wizards[receivingWizardId];\n\n        _updatePower(receivingWiz, receivingWiz.power + sendingWiz.power);\n\n        emit PowerTransferred(sendingWizardId, receivingWizardId, sendingWiz.power, reason);\n\n        sendingWiz.power = 0;\n        // update the nonces to reflect the state change and invalidate any pending commitments\n        sendingWiz.nonce += 1;\n        receivingWiz.nonce += 1;\n    }\n\n    /// @notice used for when wizards locked in an ascension battle but one wizard didn't submit their commit\n    function resolveOneSidedAscensionBattle(uint256 wizardId) external duringResolutionWindow {\n        uint256 opponentId = ascensionOpponents[wizardId];\n        require(opponentId != 0, \"No opponent\");\n\n        SingleCommitment memory commit = pendingCommitments[wizardId];\n        require(commit.opponentId == opponentId, \"No commit\");\n\n        _transferPower(opponentId, wizardId, REASON_RESOLVE_ONE_SIDED_ASCENSION_BATTLE);\n\n        // clean up state\n        delete pendingCommitments[wizardId];\n        delete ascensionOpponents[wizardId];\n        delete ascensionOpponents[opponentId];\n    }\n\n    /// @notice Resolves a duel that has timed out. This can only happen if one or both players\n    ///         didn't reveal their moves. If both don't reveal, there is no power transfer, if one\n    ///         revealed, they win ALL the power.\n    ///\n    ///         Note: This function doesn't need exists(wizardId1) exists(wizardId2) because an\n    ///               eliminated Wizard would have currentDuel == 0\n    function resolveTimedOutDuel(uint256 wizardId1, uint256 wizardId2) external {\n        // This check is required in order to prevent attackers from wiping out wizards in a timed out duels.\n        require(wizardId1 != wizardId2, \"Same Wizard\");\n        BattleWizard storage wiz1 = wizards[wizardId1];\n        BattleWizard storage wiz2 = wizards[wizardId2];\n\n        bytes32 duelId = wiz1.currentDuel;\n\n        require(duelId != 0 && wiz2.currentDuel == duelId);\n        require(block.number >= duels[duelId].timeout);\n\n        int256 allPower = wiz1.power + wiz2.power;\n\n        if (revealedMoves[duelId][wizardId1] != 0) {\n            // The first Wizard revealed their moves, but the second one didn't (otherwise it\n            // would have been resolved). Transfer all of the power from two to one.\n            _updatePower(wiz1, allPower);\n            wiz2.power = 0;\n        } else if (revealedMoves[duelId][wizardId2] != 0) {\n            // The second Wizard revealed, so it drains the first.\n            _updatePower(wiz2, allPower);\n            wiz1.power = 0;\n        }\n        // NOTE: If neither Wizard did a reveal, we just end the battle with no power transfer.\n\n        // unlock wizards\n        wiz1.currentDuel = 0;\n        wiz2.currentDuel = 0;\n\n        // Increment the Wizard nonces\n        wiz1.nonce += 1;\n        wiz2.nonce += 1;\n\n        // Clean up old data\n        delete duels[duelId];\n        delete revealedMoves[duelId][wizardId1];\n        delete revealedMoves[duelId][wizardId2];\n\n        // emit event\n        emit DuelTimeOut(duelId, wizardId1, wizardId2, wiz1.power, wiz2.power);\n    }\n\n    /// @notice Transfer the power of one Wizard to another. The caller has to be the owner\n    ///         or have approval of the sending Wizard. Both Wizards must be ready (not moldy,\n    ///         ascending or in a duel), and we limit power transfers to happen during Fight\n    ///         Windows (this is important so that power transfers don't interfere with Culling\n    ///         or Ascension operations).\n    /// @param sendingWizardId The Wizard to transfer power from. After the transfer,\n    ///        this Wizard will have no power.\n    /// @param receivingWizardId The Wizard to transfer power to.\n    function giftPower(uint256 sendingWizardId, uint256 receivingWizardId) external\n        onlyWizardController(sendingWizardId) exists(receivingWizardId) duringFightWindow\n    {\n        require(sendingWizardId != receivingWizardId);\n        require(isReady(sendingWizardId) && isReady(receivingWizardId));\n\n        _transferPower(sendingWizardId, receivingWizardId, REASON_GIFT_POWER);\n    }\n\n    /// @notice A function that will permanently remove eliminated Wizards from the smart contract.\n    ///\n    ///         The way that this (and cullMoldedWithMolded()) works isn't entirely obvious, so please settle\n    ///         down for story time!\n    ///\n    ///         The \"obvious\" solution to eliminating Wizards from the Tournament is to simply delete\n    ///         them from the wizards mapping when they are beaten into submission (Oh! Sorry! Marketing\n    ///         team says I should say \"tired\".) But we can't do this during the revival phase, because\n    ///         maybe that player wants to revive their Wizard. What's more is that when the Blue Mold\n    ///         starts, there is no on-chain event that fires when the Blue Mold power level doubles\n    ///         (which can also lead to Wizard elimination).\n    ///\n    ///         The upshot is that we could have a bunch of Wizards sitting around in the wizards mapping\n    ///         that are below the Blue Mold level, possibly even with a power level of zero. If we can't\n    ///         get rid of them somehow, we can't know when the Tournament is over (which would make for\n    ///         a pretty crappy tournament, huh?).\n    ///\n    ///         The next obvious solution? If a Wizard is below the Blue Mold level, just let anyone come\n    ///         along and delete that sucker. Whoa, there, Cowboy! Maybe you should think it through for\n    ///         a minute before you jump to any conclusions. Give it a minute, you'll see what I mean.\n    ///\n    ///         Yup. I knew you'd see it. If we start deleting ALL the Wizards below the Blue Mold level,\n    ///         there's a not-so-rare edge case where the last two or three or ten Wizards decide not\n    ///         to fight each other, and they all get molded. Eek! Another great way to make for a crappy\n    ///         tournament! No winner!\n    ///\n    ///         So, if we do end up with ALL of the Wizards molded, how do we resolve the Tournament? Our\n    ///         solution is to let the 5 most powerful molded Wizards split the pot pro-rata (so, if you have\n    ///         60% of the total power represented in the 5 winning Wizards, you get 60% of the pot.)\n    ///\n    ///         But this puts us in a bit of a pickle. How can we delete a molded Wizard if it might just\n    ///         be a winner?!\n    ///\n    ///         Simple! If someone wants to permanently remove a Wizard from the tournament, they just have\n    ///         to pass in a reference to _another_ Wizard (or Wizards) that _prove_ that the Wizard they\n    ///         want to eliminate can't possibly be the winner.\n    ///\n    ///         This function handles the simpler of the two cases: If the caller can point to a Wizard\n    ///         that is _above_ the Blue Mold level, then _any_ Wizard that is below the Blue\n    ///         mold level can be safely eliminated.\n    ///\n    ///         Note that there are no restrictions on who can cull moldy Wizards. Anyone can call, so\n    ///         long as they have the necessary proof!\n    /// @param wizardIds A list of moldy Wizards to permanently remove from the Tournament\n    /// @param survivor The ID of a surviving Wizard, as proof that it's safe to remove those moldy folks\n    function cullMoldedWithSurvivor(uint256[] calldata wizardIds, uint256 survivor) external\n        exists(survivor) duringCullingWindow\n    {\n        uint256 moldLevel = _blueMoldPower();\n\n        require(wizards[survivor].power >= moldLevel, \"Survivor isn't alive\");\n\n        for (uint256 i = 0; i < wizardIds.length; i++) {\n            uint256 wizardId = wizardIds[i];\n            if (wizards[wizardId].maxPower != 0 && wizards[wizardId].power < moldLevel) {\n                _deleteWizard(wizardId);\n            }\n        }\n    }\n\n    /// @notice Another function to remove eliminated Wizards from the smart contract.\n    ///\n    ///         Well, partner, it's good to see you back again. I hope you've recently read the comments\n    ///         on cullMoldedWithSurvivor() because that'll provide you with some much needed context here.\n    ///\n    ///         This function handles the other case, what if there IS no unmolded Wizard to point to, how do\n    ///         you cull the excess moldy Wizards to pare it down to the five final survivors that should split\n    ///         the pot?\n    ///\n    ///         Well, the answer is much the same as before, only instead of pointing to a single example of\n    ///         a Wizard that has a better claim to the pot, we require that the caller provides a reference\n    ///         to FIVE other Wizards who have a better claim to the pot.\n    ///\n    ///         It would be pretty easy to write this function in a way that was very expensive, so in order\n    ///         to save ourselves a lot of gas, we require that the list of Wizards is in strictly descending\n    ///         order of power (if two wizards have identical power levels, we consider the one with the\n    ///         lower ID as being more powerful).\n    ///\n    ///         We also require that the first (i.e. most powerful) Wizard in the list is moldy, even though\n    ///         it's not going to be eliminated! This may not seem strictly necessary, but it makes the\n    ///         logic simpler (because then we can just assume that ALL the Wizards are moldy, without any\n    ///         further checks). If it isn't moldy, the caller should just use the cullMoldedWithSurvivor()\n    ///         method instead!\n    ///\n    ///         \"Oh ho!\" you say, taking great pleasure in your clever insight. \"How can you be so sure that\n    ///         the first five Wizards passed in as 'leaders' are _actually_ the five most powerful molded\n    ///         Wizards?\" Well, my dear friend... you are right: We can't!\n    ///\n    ///         However it turns out that's actually fine! If the caller (for some reason) decides to start the list\n    ///         with the Wizards ranked 6-10 in the Tournament, they can do it that and we'd never know the\n    ///         difference.... Except that's not actually a problem, because they'd still only be able to remove\n    ///         molded Wizards ranked 11th or higher, all of which are due for removal anyway. (It's the same\n    ///         argument that we don't actually know -- inside this function -- if there's a non-molded Wizard;\n    ///         it's still safe to allow the caller to eliminate molded Wizards ranked 6th or higher.)\n    /// @param moldyWizardIds A list of moldy Wizards, in strictly decreasing power order. Entries 5+ in this list\n    ///         will be permanently removed from the Tournament\n    function cullMoldedWithMolded(uint256[] calldata moldyWizardIds) external duringCullingWindow {\n        require(moldyWizardIds.length > 0, \"Empty ids\");\n\n        uint256 currentId;\n        uint256 currentPower;\n        uint256 previousId = moldyWizardIds[0];\n        uint256 previousPower = wizards[previousId].power;\n\n        // It's dumb to call this function with fewer than 5 wizards, but nothing bad will happen\n        // so we don't waste gas preventing it.\n        // require(moldyWizardsIds.length > 5, \"No wizards to eliminate\");\n\n        require(previousPower < _blueMoldPower(), \"Not moldy\");\n        // The power of a dueling molded Wizard isn't finalized. So shouldn't be used for culling other wizards.\n        require(wizards[previousId].currentDuel == 0, \"Dueling\");\n\n        for (uint256 i = 1; i < moldyWizardIds.length; i++) {\n            currentId = moldyWizardIds[i];\n            checkExists(currentId);\n            currentPower = wizards[currentId].power;\n\n            // Confirm that this new Wizard has a worse claim on the prize than the previous Wizard\n            require(\n                (currentPower < previousPower) ||\n                ((currentPower == previousPower) && (currentId > previousId)),\n                \"Wizards not strictly ordered\");\n\n            if (i >= 5) {\n                _deleteWizard(currentId);\n            } else {\n                // Preventing a dueling molded wizards from culling other wizards.\n                require(wizards[currentId].currentDuel == 0, \"Dueling\");\n            }\n\n            previousId = currentId;\n            previousPower = currentPower;\n        }\n    }\n\n    // @notice Utility function to delete a wizard from storage.\n    //         It makes sure the wizard is not current dueling,\n    //         because deleting a dueling wizard will lock the other wizard forever.\n    function _deleteWizard(uint256 wizardId) internal {\n        require(wizards[wizardId].currentDuel == 0, \"Wizard is dueling\");\n        delete wizards[wizardId];\n        remainingWizards--;\n        emit WizardElimination(wizardId);\n    }\n\n    /// @notice One last culling function that simply removes Wizards with zero power. They can't\n    ///         even get a cut of the final pot... (Worth noting: Culling Windows are only available\n    ///         during the Elimination Phase, so even Wizards that go to zero can't be removed during\n    ///         the Revival Phase.)\n    function cullTiredWizards(uint256[] calldata wizardIds) external duringCullingWindow {\n        for (uint256 i = 0; i < wizardIds.length; i++) {\n            uint256 wizardId = wizardIds[i];\n            if (wizards[wizardId].maxPower != 0 && wizards[wizardId].power == 0) {\n                _deleteWizard(wizardId);\n            }\n        }\n    }\n\n    /// @notice This is a pretty important function! When the Tournament has a single remaining Wizard left\n    ///         we can send them ALL of the funds in this smart contract. Notice that we don't actually check\n    ///         to see if the claimant is moldy: If there is a single remaining Wizard in the Tournament, they\n    ///         get to take the pot, regardless of the mold level.\n    function claimTheBigCheeze(uint256 claimingWinnerId) external duringCullingWindow onlyWizardController(claimingWinnerId) {\n        require(remainingWizards == 1, \"Keep fighting!\");\n\n        // They did it! They were the final survivor. They get all the money!\n        emit PrizeClaimed(claimingWinnerId, address(this).balance);\n\n        remainingWizards = 0;\n        delete wizards[claimingWinnerId];\n\n        msg.sender.transfer(address(this).balance);\n    }\n\n    /// @notice A function that allows one of the 5 most powerful Wizards to claim their pro-rata share of\n    ///         the pot if the Tournament ends with all Wizards succumbing to the Blue Mold. Note that\n    ///         all but five of the Moldy Wizards need to first be eliminated with cullMoldedWithMolded().\n    ///\n    ///         It might seem like it would be tricky to split the pot one player at a time. Imagine that\n    ///         there are just three winners, with power levels 20, 30, and 50. If the third player claims\n    ///         first, they will get 50% of the (remaining) pot, but if they claim last, they will get\n    ///         100% of the remaining pot! If you run some examples, you'll see that by decreasing the pot\n    ///         size by a value exactly proportional to the power of the removed Wizard, everyone gets\n    ///         the same amount of winnings, regardless of the order in which they claim (plus or minus\n    ///         a wei or two due to rounding).\n    /// @param claimingWinnerId The Wizard who's share is currently being claimed\n    /// @param allWinners The complete set of all remaining Wizards in the tournament. This set MUST\n    ///                   be ordered by ascending ID.\n    function claimSharedWinnings(uint256 claimingWinnerId, uint256[] calldata allWinners)\n        external duringCullingWindow onlyWizardController(claimingWinnerId)\n    {\n        require(remainingWizards <= 5, \"Too soon to claim\");\n        require(remainingWizards == allWinners.length, \"Must provide all winners\");\n        require(wizards[claimingWinnerId].power != 0, \"No cheeze for you!\");\n\n        uint256 moldLevel = _blueMoldPower();\n        uint256 totalPower = 0;\n        uint256 lastWizard = 0;\n\n        // Check to see that all of the remaining Wizards are molded and not yet eliminated,\n        // assuming they are, keep track of the total power level of the remaining entrants\n        for (uint256 i = 0; i < allWinners.length; i++) {\n            uint256 wizardId = allWinners[i];\n            uint256 wizardPower = wizards[wizardId].power;\n\n            require(wizardId > lastWizard, \"Winners not unique and ordered\");\n            require(wizards[wizardId].maxPower != 0, \"Wizard already eliminated\");\n            require(wizardPower < moldLevel, \"Wizard not moldy\");\n\n            lastWizard = wizardId;\n            totalPower += wizardPower;\n        }\n\n        uint256 claimingWinnerShare = address(this).balance * wizards[claimingWinnerId].power / totalPower;\n\n        // Be sure to delete their claim on the prize before sending them the balance!\n        delete wizards[claimingWinnerId];\n        remainingWizards--;\n\n        emit PrizeClaimed(claimingWinnerId, claimingWinnerShare);\n\n        msg.sender.transfer(claimingWinnerShare);\n    }\n\n    /// @notice Allows the GateKeeper to destroy this contract if it's not needed anymore.\n    function destroy() external onlyGateKeeper {\n        require(isActive() == false);\n\n        selfdestruct(msg.sender);\n    }\n}\n",
  "sourcePath": "/data/contracts/BasicTournament.sol",
  "compiler": {
    "name": "solc",
    "version": "0.5.8+commit.23d335f2.Emscripten.clang"
  },
  "schemaVersion": "3.0.11",
  "updatedAt": "2019-10-17T22:58:19.211Z",
  "devdoc": {
    "methods": {
      "claimSharedWinnings(uint256,uint256[])": {
        "params": {
          "allWinners": "The complete set of all remaining Wizards in the tournament. This set MUST                   be ordered by ascending ID.",
          "claimingWinnerId": "The Wizard who's share is currently being claimed"
        }
      },
      "cullMoldedWithMolded(uint256[])": {
        "params": {
          "moldyWizardIds": "A list of moldy Wizards, in strictly decreasing power order. Entries 5+ in this list         will be permanently removed from the Tournament"
        }
      },
      "cullMoldedWithSurvivor(uint256[],uint256)": {
        "params": {
          "survivor": "The ID of a surviving Wizard, as proof that it's safe to remove those moldy folks",
          "wizardIds": "A list of moldy Wizards to permanently remove from the Tournament"
        }
      },
      "doubleCommit(uint256,uint256,bytes32,bytes32,bytes,bytes)": {
        "details": "A note on implementation: Each duel is identified by a hash that combines both Wizard IDs,      both Wizard nonces, and both commits. Just the IDs and nonces are sufficient to ensure a unique      identifier of the duel, but by including the commits in the hash, we don't need to store the commits      on-chain (which is pretty expensive, given that they each take up 32 bytes). This does mean that      the duel resolution functions require the caller to pass in both commits in order to be resolved, but      the commit data is publicly available. Overall, this results in a pretty significant gas savings.     ///      Earlier versions of this function provided convenience functionality, such as checking to see if a      Wizard was ready to ascend, or needed to be removed from a timed-out duel before starting this duel.      Each of those checks took more gas, required more code, and ultimately just tested conditions that are      trivial to check off-chain (where code is cheap and gas is for cars). This results in clearer      on-chain code, and very little extra effort off-chain.",
        "params": {
          "commit1": "The commitment hash of the 1st Wizard's moves",
          "commit2": "The commitment hash of the 2nd Wizard's moves",
          "sig1": "The signature corresponding to wizard1",
          "sig2": "The signature corresponding to wizard2",
          "wizardId1": "The id of the 1st wizard",
          "wizardId2": "The id of the 2nd wizard"
        }
      },
      "doubleReveal(uint256,uint256,bytes32,bytes32,bytes32,bytes32,bytes32,bytes32)": {
        "params": {
          "commit1": "A copy of the 1st Wizard's commitment, not stored on-chain to save gas",
          "commit2": "A copy of the 2nd Wizard's commitment, not stored on-chain to save gas",
          "moveSet1": "The plaintext reveal (moveset) of the 1st wizard",
          "moveSet2": "The plaintext reveal (moveset) of the 2nd wizard",
          "salt1": "The secret salt of the 1st wizard",
          "salt2": "The secret salt of the 2nd wizard",
          "wizardId1": "The id of the 1st wizard",
          "wizardId2": "The id of the 2nd wizard"
        }
      },
      "enterWizards(uint256[],uint88[])": {
        "params": {
          "powers": "The list of powers for each of the Wizards (one-to-one mapping by index).",
          "wizardIds": "The IDs of the Wizards to enter into the Tournament, can be length 1."
        }
      },
      "giftPower(uint256,uint256)": {
        "params": {
          "receivingWizardId": "The Wizard to transfer power to.",
          "sendingWizardId": "The Wizard to transfer power from. After the transfer,        this Wizard will have no power."
        }
      },
      "oneSidedReveal(uint256,bytes32,bytes32,bytes32,uint256,bytes32)": {
        "params": {
          "commit": "A copy of the commitment used previously, not stored on-chain to save gas",
          "committingWizardId": "The Wizard whose moves are being revealed",
          "moveSet": "The revealed move set",
          "otherCommit": "The other Wizard's commitment, not stored on-chain to save gas",
          "otherWizardId": "The other Wizard in this battle",
          "salt": "The salt used to secure the commitment hash"
        }
      },
      "pause(uint256)": {
        "params": {
          "pauseDuration": "the number of blocks to pause for. CAN NOT exceed the length of one Session."
        }
      },
      "revive(uint256)": {
        "details": "Brings a tired Wizard back to fightin' strength. Can only be used during the revival      phase. The buy-back can be to any power level between the Blue Wall power (at the low end)      and the previous max power achieved by this Wizard in this tournament. This does mean a revival      can bring a Wizard back above their innate power! The contribution into the pot MUST be equivalent      to the cost that would be needed to bring in a new Wizard at the same power level. Can only      be called by the GateKeeper to allow the GateKeeper to manage the pot contribution rate and      potentially apply other rules or requirements to revival."
      },
      "setCeo(address)": {
        "params": {
          "newCeo": "The address of the new CEO"
        }
      },
      "setCfo(address)": {
        "params": {
          "newCfo": "The address of the new CFO"
        }
      },
      "setCoo(address)": {
        "params": {
          "newCoo": "The address of the new COO"
        }
      },
      "supportsInterface(bytes4)": {
        "details": "Interface identification is specified in ERC-165. This function      uses less than 30,000 gas.",
        "params": {
          "interfaceId": "The interface identifier, as specified in ERC-165"
        }
      },
      "updateAffinity(uint256)": {
        "params": {
          "wizardId": "The id of the Wizard to update"
        }
      }
    },
    "title": "A basic Cheeze Wizards Tournament"
  },
  "userdoc": {
    "methods": {
      "acceptAscensionChallenge(bytes32)": {
        "notice": "Allows the Ascending Wizard to respond to an ascension commitment with their own move commitment,"
      },
      "challengeAscending(uint256,bytes32)": {
        "notice": "Any live Wizard can challenge an ascending Wizard during the fight phase. They must         provide a commitment of their moves (which is totally reasonable, since they know         exactly who they will be fighting!)"
      },
      "claimSharedWinnings(uint256,uint256[])": {
        "notice": "A function that allows one of the 5 most powerful Wizards to claim their pro-rata share of         the pot if the Tournament ends with all Wizards succumbing to the Blue Mold. Note that         all but five of the Moldy Wizards need to first be eliminated with cullMoldedWithMolded().     ///         It might seem like it would be tricky to split the pot one player at a time. Imagine that         there are just three winners, with power levels 20, 30, and 50. If the third player claims         first, they will get 50% of the (remaining) pot, but if they claim last, they will get         100% of the remaining pot! If you run some examples, you'll see that by decreasing the pot         size by a value exactly proportional to the power of the removed Wizard, everyone gets         the same amount of winnings, regardless of the order in which they claim (plus or minus         a wei or two due to rounding)."
      },
      "claimTheBigCheeze(uint256)": {
        "notice": "This is a pretty important function! When the Tournament has a single remaining Wizard left         we can send them ALL of the funds in this smart contract. Notice that we don't actually check         to see if the claimant is moldy: If there is a single remaining Wizard in the Tournament, they         get to take the pot, regardless of the mold level."
      },
      "completeAscension()": {
        "notice": "Completes the Ascension for the Wizard in the Ascension Chamber. Note that this can only be called         during a Resolution Window, and a Wizard can only enter the Ascension Chamber during the Ascension Window,         and there is _always_ a Fight Window between the Ascension Window and the Resolution Window. In other         words, there is a always a chance for a challenger to battle the Ascending Wizard before the         ascension can complete."
      },
      "cullMoldedWithMolded(uint256[])": {
        "notice": "Another function to remove eliminated Wizards from the smart contract.     ///         Well, partner, it's good to see you back again. I hope you've recently read the comments         on cullMoldedWithSurvivor() because that'll provide you with some much needed context here.     ///         This function handles the other case, what if there IS no unmolded Wizard to point to, how do         you cull the excess moldy Wizards to pare it down to the five final survivors that should split         the pot?     ///         Well, the answer is much the same as before, only instead of pointing to a single example of         a Wizard that has a better claim to the pot, we require that the caller provides a reference         to FIVE other Wizards who have a better claim to the pot.     ///         It would be pretty easy to write this function in a way that was very expensive, so in order         to save ourselves a lot of gas, we require that the list of Wizards is in strictly descending         order of power (if two wizards have identical power levels, we consider the one with the         lower ID as being more powerful).     ///         We also require that the first (i.e. most powerful) Wizard in the list is moldy, even though         it's not going to be eliminated! This may not seem strictly necessary, but it makes the         logic simpler (because then we can just assume that ALL the Wizards are moldy, without any         further checks). If it isn't moldy, the caller should just use the cullMoldedWithSurvivor()         method instead!     ///         \"Oh ho!\" you say, taking great pleasure in your clever insight. \"How can you be so sure that         the first five Wizards passed in as 'leaders' are _actually_ the five most powerful molded         Wizards?\" Well, my dear friend... you are right: We can't!     ///         However it turns out that's actually fine! If the caller (for some reason) decides to start the list         with the Wizards ranked 6-10 in the Tournament, they can do it that and we'd never know the         difference.... Except that's not actually a problem, because they'd still only be able to remove         molded Wizards ranked 11th or higher, all of which are due for removal anyway. (It's the same         argument that we don't actually know -- inside this function -- if there's a non-molded Wizard;         it's still safe to allow the caller to eliminate molded Wizards ranked 6th or higher.)"
      },
      "cullMoldedWithSurvivor(uint256[],uint256)": {
        "notice": "A function that will permanently remove eliminated Wizards from the smart contract.     ///         The way that this (and cullMoldedWithMolded()) works isn't entirely obvious, so please settle         down for story time!     ///         The \"obvious\" solution to eliminating Wizards from the Tournament is to simply delete         them from the wizards mapping when they are beaten into submission (Oh! Sorry! Marketing         team says I should say \"tired\".) But we can't do this during the revival phase, because         maybe that player wants to revive their Wizard. What's more is that when the Blue Mold         starts, there is no on-chain event that fires when the Blue Mold power level doubles         (which can also lead to Wizard elimination).     ///         The upshot is that we could have a bunch of Wizards sitting around in the wizards mapping         that are below the Blue Mold level, possibly even with a power level of zero. If we can't         get rid of them somehow, we can't know when the Tournament is over (which would make for         a pretty crappy tournament, huh?).     ///         The next obvious solution? If a Wizard is below the Blue Mold level, just let anyone come         along and delete that sucker. Whoa, there, Cowboy! Maybe you should think it through for         a minute before you jump to any conclusions. Give it a minute, you'll see what I mean.     ///         Yup. I knew you'd see it. If we start deleting ALL the Wizards below the Blue Mold level,         there's a not-so-rare edge case where the last two or three or ten Wizards decide not         to fight each other, and they all get molded. Eek! Another great way to make for a crappy         tournament! No winner!     ///         So, if we do end up with ALL of the Wizards molded, how do we resolve the Tournament? Our         solution is to let the 5 most powerful molded Wizards split the pot pro-rata (so, if you have         60% of the total power represented in the 5 winning Wizards, you get 60% of the pot.)     ///         But this puts us in a bit of a pickle. How can we delete a molded Wizard if it might just         be a winner?!     ///         Simple! If someone wants to permanently remove a Wizard from the tournament, they just have         to pass in a reference to _another_ Wizard (or Wizards) that _prove_ that the Wizard they         want to eliminate can't possibly be the winner.     ///         This function handles the simpler of the two cases: If the caller can point to a Wizard         that is _above_ the Blue Mold level, then _any_ Wizard that is below the Blue         mold level can be safely eliminated.     ///         Note that there are no restrictions on who can cull moldy Wizards. Anyone can call, so         long as they have the necessary proof!"
      },
      "cullTiredWizards(uint256[])": {
        "notice": "One last culling function that simply removes Wizards with zero power. They can't         even get a cut of the final pot... (Worth noting: Culling Windows are only available         during the Elimination Phase, so even Wizards that go to zero can't be removed during         the Revival Phase.)"
      },
      "destroy()": {
        "notice": "Allows the GateKeeper to destroy this contract if it's not needed anymore."
      },
      "doubleCommit(uint256,uint256,bytes32,bytes32,bytes,bytes)": {
        "notice": "Commits two Wizards into a duel with a single transaction. Both Wizards must be \"ready\"      (not ascending, not battling, not moldy, and having a valid affinity), and it must be during a      Fight Window."
      },
      "doubleReveal(uint256,uint256,bytes32,bytes32,bytes32,bytes32,bytes32,bytes32)": {
        "notice": "Reveals the moves for both Wizards at once, saving lots of gas and lowering the number         of required transactions. As with oneSidedReveal(), no authentication is required other         than matching the reveals to the commits. It is not an error if oneSidedReveal is called         and then doubleReveal, although we do ignore the previous one-sided reveal if it exists.         The _resolvedDuel utility function will clean up any cached revealedMoves for BOTH Wizards.     ///         NOTE: As with the doubleCommit() method, the Wizards must be provided in _strict_ ascending         order for this function to work correctly.     ///         NOTE: This function will fail if _either_ of the Wizards have submitted an invalid moveset.         The correct way of handling this situation is to use oneSidedReveal() (if one moveset is valid         and the other is not) and then let the Battle timeout, or -- if both movesets are invalid --         don't do any reveals and let the Battle timeout.     ///         Note: This function doesn't need exists(wizardId1) exists(wizardId2) because an               eliminated Wizard would have currentDuel == 0"
      },
      "enterWizards(uint256[],uint88[])": {
        "notice": "The function called by the GateKeeper to enter wizards into the tournament. Only the GateKeeper can         call this function, meaning that the GateKeeper gets to decide who can enter. However! The Tournament         enforces that ALL Wizards that are entered into the Tournament have paid the same pro-rata share of         the prize pool as matches their starting power. Additionally, the starting power for each Wizard         in the Tournament can't exceed the innate power of the Wizard when it was created. This is done to         ensure the Tournament is possible."
      },
      "getWizard(uint256)": {
        "notice": "A function to get the current state of the Wizard, includes the computed properties:         ascending (is this Wizard in the ascension chamber), ascensionOpponent (the ID of         an ascensionChallenger, if any) molded (this Wizard's power below the Blue Mold power         level), and ready (see the isReady() method for definition). You can tell if a Wizard         is in a battle by checking \"currentDuel\" against 0."
      },
      "giftPower(uint256,uint256)": {
        "notice": "Transfer the power of one Wizard to another. The caller has to be the owner         or have approval of the sending Wizard. Both Wizards must be ready (not moldy,         ascending or in a duel), and we limit power transfers to happen during Fight         Windows (this is important so that power transfers don't interfere with Culling         or Ascension operations)."
      },
      "isActive()": {
        "notice": "Returns true if the Tournament is currently active.     ///         NOTE: This will return false (not active) either before the Tournament               begins (before any Wizards enter), or after it is over (after all               Wizards have been eliminated.) It also considers a Tournament inactive               if 200 * blueWallDoubling blocks have passed. (After 100 doublings               ALL of the Wizards will have succumbed to the Blue Wall, and another               100 doublings should be enough time for the winners to withdraw their               winnings. Anything left after that is fair game for the GateKeeper to take.)"
      },
      "isReady(uint256)": {
        "notice": "Returns true if a Wizard is \"ready\", meaning it can participate in a battle, ascension, or power         transfer. A \"ready\" Wizard is not ascending, not battling, not moldy, hasn't committed to an ascension         battle, and has a valid affinity."
      },
      "oneSidedReveal(uint256,bytes32,bytes32,bytes32,uint256,bytes32)": {
        "notice": "Reveals the moves for one of the Wizards in a duel. This should be called rarely, but         is necessary in order to resolve a duel where one player is unwilling or unable to reveal         their moves (also useful if a coordinating intermediary is unavailable or unwanted for some reason).         It's worth noting that this method doesn't check any signatures or filter on msg.sender because         it is cryptographically impossible for someone to submit a moveset and salt that matches the         commitment (which was signed, don't forget!).     ///         Note: This function doesn't need exists(wizardId) because an eliminated Wizard would have               currentDuel == 0"
      },
      "pause(uint256)": {
        "notice": "Pauses the Tournament, starting immediately, for a duration specified in blocks. This function can be called if the Tournament is already paused, but only to extend the pause period until at most `(block.number + sessionDuration)`. In other words, the Tournament can't be paused indefinitely unless this function is called periodically, at least once every session length.     /// NOTE: This function is reasonably expensive and inefficient because it has to update so many storage       variables. This is done intentionally because pausing should be rare and it's far more important       to optimize the hot paths (which are the modifiers above). "
      },
      "resolveOneSidedAscensionBattle(uint256)": {
        "notice": "used for when wizards locked in an ascension battle but one wizard didn't submit their commit"
      },
      "resolveTimedOutDuel(uint256,uint256)": {
        "notice": "Resolves a duel that has timed out. This can only happen if one or both players         didn't reveal their moves. If both don't reveal, there is no power transfer, if one         revealed, they win ALL the power.     ///         Note: This function doesn't need exists(wizardId1) exists(wizardId2) because an               eliminated Wizard would have currentDuel == 0"
      },
      "setCeo(address)": {
        "notice": "Assigns a new address to act as the CEO. Only available to the current CEO."
      },
      "setCfo(address)": {
        "notice": "Assigns a new address to act as the CFO. Only available to the current CEO."
      },
      "setCoo(address)": {
        "notice": "Assigns a new address to act as the COO. Only available to the current CEO."
      },
      "supportsInterface(bytes4)": {
        "notice": "Query if a contract implements an interface"
      },
      "updateAffinity(uint256)": {
        "notice": "Updates the cached value of a Wizard's affinity with the value from the Wizard Guild.         Only useful for Exclusive Wizards that initially have no elemental affinity, and which         is then selected by the owner. When the Wizard enters the Tournament it might not have         it's affinity set yet, and this will copy the affinity from the Guild contract if it's         been updated. Can be called by anyone since it can't be abused."
      },
      "wizardFingerprint(uint256)": {
        "notice": "A finger printing function to capture the important state data about a Wizard into         a secure hash. This is especially useful during sales and trading to be sure that the Wizard's         state hasn't changed materially between the time the trade/purchase decision was made and         when the actual transfer is executed on-chain."
      }
    },
    "notice": "This contract mediates a Tournament between any number of Cheeze Wizards with         the following features:               - All Wizards who enter the Tournament are required to provide a contribution                 to the Big Cheeze prize pool that is directly proportional to their power                 level. There is no way for some Wizards to have a power level that is disproportionate                 to their pot contribution amount; not even for the Tournament creators.               - All Tournaments created with this contract follow the time constraints set out in the                 TournamentTimeAbstract contract. While different Tournament instances might run more                 quickly or more slowly than others, the basic cadence of the Tournament is consistent                 across all instances.               - The Tournament contract is designed such that, once the contract is set up, that                 all participants can trustlessly enjoy the Tournament without fear of being ripped                 off by the organizers. Some care needs to be taken _before_ you enter your Wizard                 in the Tournament (including ensuring that you are actually entering into a copy                 of this Tournament contract that hasn't been modified!), but once your Wizard has                 been entered, you can have confidence that the rules of the contest will be followed                 correctly, without fear of manipulation or fraud on the part of the contest creators."
  }
}