{
  "contractName": "ThreeAffinityDuelResolver",
  "abi": [
    {
      "constant": true,
      "inputs": [],
      "name": "MOVE_MASK",
      "outputs": [
        {
          "name": "",
          "type": "bytes32"
        }
      ],
      "payable": false,
      "stateMutability": "view",
      "type": "function"
    },
    {
      "constant": true,
      "inputs": [],
      "name": "MOVE_DELTA",
      "outputs": [
        {
          "name": "",
          "type": "uint256"
        }
      ],
      "payable": false,
      "stateMutability": "view",
      "type": "function"
    },
    {
      "constant": true,
      "inputs": [],
      "name": "WEIGHT_SUM",
      "outputs": [
        {
          "name": "",
          "type": "uint256"
        }
      ],
      "payable": false,
      "stateMutability": "view",
      "type": "function"
    },
    {
      "constant": true,
      "inputs": [
        {
          "name": "interfaceId",
          "type": "bytes4"
        }
      ],
      "name": "supportsInterface",
      "outputs": [
        {
          "name": "",
          "type": "bool"
        }
      ],
      "payable": false,
      "stateMutability": "view",
      "type": "function"
    },
    {
      "constant": true,
      "inputs": [
        {
          "name": "moveSet",
          "type": "bytes32"
        }
      ],
      "name": "isValidMoveSet",
      "outputs": [
        {
          "name": "",
          "type": "bool"
        }
      ],
      "payable": false,
      "stateMutability": "pure",
      "type": "function"
    },
    {
      "constant": true,
      "inputs": [
        {
          "name": "",
          "type": "uint256"
        }
      ],
      "name": "isValidAffinity",
      "outputs": [
        {
          "name": "",
          "type": "bool"
        }
      ],
      "payable": false,
      "stateMutability": "pure",
      "type": "function"
    },
    {
      "constant": true,
      "inputs": [
        {
          "name": "moveSet1",
          "type": "bytes32"
        },
        {
          "name": "moveSet2",
          "type": "bytes32"
        },
        {
          "name": "power1",
          "type": "uint256"
        },
        {
          "name": "power2",
          "type": "uint256"
        },
        {
          "name": "affinity1",
          "type": "uint256"
        },
        {
          "name": "affinity2",
          "type": "uint256"
        }
      ],
      "name": "resolveDuel",
      "outputs": [
        {
          "name": "power",
          "type": "int256"
        }
      ],
      "payable": false,
      "stateMutability": "pure",
      "type": "function"
    }
  ],
  "bytecode": "0x608060405234801561001057600080fd5b5061062c806100206000396000f3fe608060405234801561001057600080fd5b506004361061007d5760003560e01c8063b089894c1161005b578063b089894c146100f4578063cdcf1e1c1461012f578063e9563dee14610137578063f92d1960146101545761007d565b806301ffc9a7146100825780631823fbbc146100bd578063a8007fb5146100da575b600080fd5b6100a96004803603602081101561009857600080fd5b50356001600160e01b03191661015c565b604080519115158252519081900360200190f35b6100a9600480360360208110156100d357600080fd5b503561019b565b6100e26101e2565b60408051918252519081900360200190f35b6100e2600480360360c081101561010a57600080fd5b5080359060208101359060408101359060608101359060808101359060a001356101f1565b6100e2610287565b6100a96004803603602081101561014d57600080fd5b5035610296565b6100e261029c565b60006001600160e01b03198216600160e01b6301ffc9a702148061019357506001600160e01b03198216600160e11b6320fe278f02145b90505b919050565b600160d91b647efefefeff02016000600160d81b64030303030302821682146101c657506000610196565b600182901b8216156101da57506000610196565b506001919050565b600160d81b6403030303030281565b60006101fc8761019b565b801561020c575061020c8661019b565b6102605760408051600160e51b62461bcd02815260206004820152600f60248201527f496e76616c6964206d6f76657365740000000000000000000000000000000000604482015290519081900360640190fd5b600061026e888886866102a2565b905061027b8187876103b1565b98975050505050505050565b600160d91b6401010101010281565b50600190565b6101a881565b60006102ac6105e2565b506040805160a081018252604e8152604f60208201526051918101919091526056606082015260646080820152600160d91b647efefefeff0295860195949094019360011993840193929092019160005b60058110156103a357600087826020811061031457fe5b1a60f81b60f81c60ff169050600087836020811061032e57fe5b1a60f890811b901c9050808203806103485750505061039b565b8081026004141561035a5760011d6000035b6064028288141561036f576064608282020590505b86821415610381576064608282020590505b84846005811061038d57fe5b602002015102949094019350505b6001016102fd565b505060649005949350505050565b6000808412156103d3576103c98460000383856103b1565b6000039050610526565b600160f51b831080156103e95750600160f51b82105b61043d5760408051600160e51b62461bcd02815260206004820152601360248201527f496e76616c696420706f7765722076616c756500000000000000000000000000604482015290519081900360640190fd5b60008311801561044d5750600082115b6104a15760408051600160e51b62461bcd02815260206004820152601360248201527f496e76616c696420706f7765722076616c756500000000000000000000000000604482015290519081900360640190fd5b836104ae57506000610526565b60006101a861040086020490506104008111156104ca57506104005b60006104d88261020061052d565b9050846007028411156104f057846007029350610502565b83600702851115610502578360070294505b600061051b828787610400028161051557fe5b0461052d565b8502600a1c93505050505b9392505050565b60006008820160041c61054484826040600561054c565b949350505050565b60006104008184868161055b57fe5b0490505b6016811061057c576016870a9190910260dc1c906015190161055f565b80156105905780870a91909102600a82021c905b600085878161059b57fe5b0690508415806105a9575080155b156105b957829350505050610544565b6105cc886104000387836001890361054c565b6104000392909202600a1c979650505050505050565b6040518060a00160405280600590602082028038833950919291505056fea165627a7a72305820996940750a71c3e240b0e9532ee8afe0f9015b2dfa59d097a3aac0e4a7ed14170029",
  "source": "pragma solidity >=0.5.6 <0.6.0;\n\nimport \"./DuelResolverInterface.sol\";\n\n\ncontract ThreeAffinityDuelResolver is DuelResolverInterface {\n    /// @dev A bitmask that filters all but the bits that are significant as part of a valid move set for this\n    /// duel resolver.\n    bytes32 public constant MOVE_MASK = 0x0303030303000000000000000000000000000000000000000000000000000000;\n\n    /// @dev The moves come in from the front end as 2, 3, and 4; the logic below is simpler if the valid\n    /// moves are 0, 1, 2. Thus, we subtract 2 from each value to put things in the range that works well for us.\n    /// See WizardConstants for the element values, to understand where 2, 3 and 4 come from.\n    uint256 public constant MOVE_DELTA = 0x0202020202000000000000000000000000000000000000000000000000000000;\n\n    /// @dev The relative weight applied to each round in the duel. We ramp up the weight as the duel progresses\n    /// to make the later rounds more impactful, and to minimize the probability of a dead tie (which is super\n    /// boring!)\n    uint256 public constant WEIGHT_SUM = 78 + 79 + 81 + 86 + 100;\n\n    /// @notice Query if a contract implements an interface\n    /// @param interfaceId The interface identifier, as specified in ERC-165\n    /// @dev Interface identification is specified in ERC-165. This function\n    ///      uses less than 30,000 gas.\n    function supportsInterface(bytes4 interfaceId) external view returns (bool) {\n        return\n            interfaceId == this.supportsInterface.selector || // ERC165\n            interfaceId == _INTERFACE_ID_DUELRESOLVER; // DuelResolverInterface\n    }\n\n    /// @notice Checks to see that the given move set is valid for the RPS game. Valid format is 5 set bytes followed by\n    /// 27 zero bytes.  Each set byte can be 2, 3, or 4. All other values are rejected as invalid.\n    /// @param moveSet the moveset to be validated\n    function isValidMoveSet(bytes32 moveSet) public pure returns(bool) { // solium-disable-line security/no-assign-params\n        // Map the input values 2, 3, 4 onto 0, 1, 2.\n        moveSet = bytes32(uint256(moveSet) - MOVE_DELTA);\n\n        // Fails if any bit is set outside the allowed mask\n        if (moveSet != (moveSet & MOVE_MASK)) {\n            return false;\n        }\n\n        // The previous line ensures that all values are 0, 1, 2, or 3, but\n        // 3 isn’t actually valid. The following check ensures that no two\n        // adjacent bits are set, which excludes any threes.\n        if ((moveSet & (moveSet << 1)) != bytes32(0)) {\n            return false;\n        }\n\n        return true;\n    }\n\n    /// @notice Any affinity value is acceptable with this resolver, we just safely ignore any affinities\n    /// that don't match Fire, Air, or Water.\n    function isValidAffinity(uint256) public pure returns(bool) {\n        return true;\n    }\n\n    function resolveDuel(\n        bytes32 moveSet1,\n        bytes32 moveSet2,\n        uint256 power1,\n        uint256 power2,\n        uint256 affinity1,\n        uint256 affinity2)\n        public pure returns(int256 power)\n    {\n        require(isValidMoveSet(moveSet1) && isValidMoveSet(moveSet2), \"Invalid moveset\");\n\n        int256 score = _duelScore(moveSet1, moveSet2, affinity1, affinity2);\n        power = _powerTransfer(score, power1, power2);\n    }\n\n    /// @notice Calculate the score for a duel. A positive score means the first wizard\n    ///         won the match, a negative score means the second wizard won, and zero\n    ///         means they tied (boooooring).\n    /// @dev A NOTE ON VARIABLE NAMING: Throughout this file, you will find variables that end with\n    /// Qn, where n is 6 or 10. This is used to indicate that these are fixed point fractional\n    /// values, with a denominator of 64 (2^6) or 1024 (2^10). Wikipedia has a decent description\n    /// of fixed-point arithmetic if you are unfamiliar (https://en.wikipedia.org/wiki/Fixed-point_arithmetic)\n    // solium-disable-next-line security/no-assign-params\n    function _duelScore(bytes32 moveSet1, bytes32 moveSet2, uint256 affinity1, uint256 affinity2) internal pure returns (int256 score) {\n        // Although these values are essentially constants, we have to keep them\n        // inside the function for it to be pure.\n        int256[5] memory weights = [int256(78), int256(79), int256(81), int256(86), int256(100)];\n\n        // Map the input values 2, 3, 4 onto 0, 1, 2 to make the calculations easier.\n        moveSet1 = bytes32(uint256(moveSet1) - MOVE_DELTA);\n        moveSet2 = bytes32(uint256(moveSet2) - MOVE_DELTA);\n        affinity1 -= 2;\n        affinity2 -= 2;\n\n        for (uint256 i = 0; i < 5; i++) {\n            // So this bit of casting is a bit weird. Subscripting a bytes32 value gives you a byte object,\n            // which seems like something that could be cast into an integer. But the Solidity docs point out\n            // that \"byte\" is actually just an alias for bytes1, which is more like an array type. What Solidity\n            // does allow is a cast between a bytesX object and an integer of the same size, so we have to cast\n            // to an 8-bit integer before we are allowed to cast to a full word. ¯\\_(ツ)_/¯\n            int256 move1 = int256(uint8(moveSet1[i]));\n            int256 move2 = int256(uint8(moveSet2[i]));\n            int256 diff = move1 - move2;\n\n            if (diff == 0) {\n                continue;\n            }\n\n            // Results in 1 if p1 beats p2, -1 if p2 beats p1\n            // 1 (water) beats 0 (fire) = (1)  | 0 (fire) loses to 1 (water) = (-1)\n            // 2 (wind) beats 1 (water) = (1)  | 1 (water) loses to 2 (wind) = (-1)\n            // 0 (fire) beats 2 (wind)  = (-2) | 2 (wind) loses to 0 (fire)  = (2)\n            if (diff*diff == 4) {\n                diff = -(diff >> 1);\n            }\n\n            // Switch to a fixed-point math with a numerator of 100\n            diff *= 100;\n\n            // The result is 30% larger if the a wizard is playing their affinity\n            // This effect can compound!\n            if (move1 == int256(affinity1)) {\n                diff = diff * 130 / 100;\n            }\n\n            if (move2 == int256(affinity2)) {\n                diff = diff * 130 / 100;\n            }\n\n            score += diff * weights[i];\n        }\n\n        score /= 100;\n    }\n\n    /// @dev Returns the amount of power to be transferred from the first wizard to the second wizard. The value\n    /// is negative if power is actually transferred from second to first.\n    /// @param score The result of the RPS minigame, a positive score means the first wizard\n    /// won the match, a negative score means the second wizard won.\n    // solium-disable-next-line security/no-assign-params\n    function _powerTransfer(int256 score, uint256 power1, uint256 power2) private pure returns(int256) {\n        // if the score is negative, switch the positions of the wizards so that the rest of the\n        // logic in this function only has to handle the case where the first wizard is the winner,\n        // and the power transfer is positive. We do this before verifying the inputs so they\n        // are not verified twice.\n        if (score < 0) {\n            return -_powerTransfer(-score, power2, power1);\n        }\n\n        // Cap the power of each player so the arithmetic cannot possibly overflow.\n        require((power1 < (1<<245)) && power2 < (1<<245), \"Invalid power value\");\n\n        // Wizard power values must be strictly positive or something has gone very wrong.\n        require(power1 > 0 && power2 > 0, \"Invalid power value\");\n\n        if (score == 0) {\n            // Handle the simple case of a tie first\n            return 0;\n        }\n\n        // From here on out in the function, we can assume that the first wizard is the winner, and the\n        // power transfer will be > 0.\n\n        // Convert the score into a number 0-1\n        uint256 normalizedScoreQ10 = 1024 * uint256(score) / WEIGHT_SUM;\n\n        // Because elemental wizards get a bonus (or penalty) when using their affinity spells, there is\n        // a chance that the total score for an Elemental Wizard will exceed 100%. We cap it at 100%...\n        if (normalizedScoreQ10 > 1024) {\n            normalizedScoreQ10 = 1024;\n        }\n\n        // The base transfer ratio is the square root of the normalized score. We use our fakePow\n        // function to get an approximation of the square root. x^(1/2) == sqrt(x)\n        uint256 baseTransferRatioQ10 = _fakePowQ10(normalizedScoreQ10, 1024 * 1/2);\n\n        // The base transfer ratio (BTR) is now, more or less, the inverse of the linearized probability\n        // of the outcome. By \"inverse probability\", we mean the BTR will be small if the outcome was\n        // quite likely (winning by a little), and large if the outcome was unlikely (winning by a lot).\n        // By \"linearized\" we mean that if the outcome was twice as unlikely, the BTR will be doubled.\n        // (Please don't ignore the phrase \"more or less\" here! The true probability distribution depends\n        // on the wizard alignments and is close to a gaussian density curve. Approximating this curve\n        // using a parabola makes it feasible to compute on-chain, and has an error term we can live with...)\n        //\n        // However, this BTR computed above is only appropriate in a \"fair fight\"; that is, when the\n        // wizards have equal power. When one wizard has more power than the other, we have to do something\n        // a bit different!\n        //\n        // The goal here is to keep the fight fair (in that neither the stronger nor weaker wizard has\n        // a systemic advantage), but to have as much power as possible to be at stake for both wizards. This\n        // seems like a paradox! If we're playing a symmetric game akin to RPS, and each player has the same\n        // probability distribution for the outcomes, how can keep the match fair while having one player have\n        // more value at risk?\n        //\n        // The answer is to \"bend\" the odds so that small wins (which are much more common) favour the stronger\n        // wizard, since large wins will favour the weaker wizard. The math below is more magic than science (appropriate\n        // for wizards, I suppose!), but has the impact that -- even though the stronger wizards has \"more to\n        // lose\" -- the fight is still balanced. Most of the time, the winning margin will be small, and stronger\n        // wizard will get a bigger reward than the weaker wizard would get from winning with the same margin.\n        // BUT, if they win by a large enough margin, the weak wizard can drain a wizard even 7 times more powerful!\n        //\n        // We do cap the \"at risk\" power of the stronger wizard to 7x the weaker wizard, otherwise the\n        // probability curves get WAAAAY out of whack (basically, the battle quickly devolves into an \"all or\n        // nothing\" exchange with next to zero odds of winning anything for the weaker wizard).\n\n        if (power2 > power1 * 7) {\n            power2 = power1 * 7;\n        } else if (power1 > power2 * 7) {\n            power1 = power2 * 7;\n        }\n\n        // Use our power function to bend the curve to something very close to a zero EV for each player.\n        uint256 transferRatioQ10 = _fakePowQ10(baseTransferRatioQ10, 1024 * power2 / power1);\n\n        // Return the actual power transferred, which is determined as a fraction of the loser's power\n        // in the preceding math.\n        return int256((power2 * transferRatioQ10) >> 10);\n    }\n\n    /// @dev A function that approximates x^y, where x and y are fixed point values with a denominator\n    /// of 1024 (10 bits). x must be in the range 0-1 (0-1024 as an int) and y can be any\n    /// value > 1/128 (>8 as an int). For efficiency, y values are rounded to the nearest 1/64th\n    /// (which seemed in our testing to be the sweet spot between accuracy and efficiency).\n    ///\n    /// This function will produce wholly accurate results for all integer powers (i.e.\n    /// when y is a multiple of 1024 when viewed as an int), and will produce reasonable results\n    /// when y has a fractional component. The error term on this approximation isn't tiny, but\n    /// over the range 0-1 the errors tend to cancel out, which means the integral of the approximation\n    /// is VERY close to the integral of the real power function. This is critical, because we use\n    /// this approximation for determining the power transfer after a duel. This approximation can\n    /// result in errors, but systemically - across a large number of fights - those errors will\n    /// cancel out and result in a system very close to the expected equilibrium.\n    ///\n    /// tl;dr We fake the power function in a way that means that any error the approximation introduces\n    /// is just as likely to help you as hurt you, while saving a butt-ton of gas.\n    function _fakePowQ10(uint256 xQ10, uint256 yQ10) private pure returns(uint256) {\n\n        // Round the y value to the nearest 1/64th, while also converting from\n        // a denominator of 1024 to a denominator of 64.\n        // Apologies for how unclear this is, but it makes for tighter code!\n        // A more explicit version would look like this:\n        //    float y = float(xQ10) / 1024.0;\n        //    y = floor(y + 0.5);\n        //    int xQ6 = int(y * 64);\n        uint256 yQ6 = (yQ10 + 8) >> 4;\n\n        // Call the recursive internal function to do that actual math\n        return _fakePowInternal(xQ10, yQ6, 64, 5);\n    }\n\n\n    /// @dev An internal helper function for the fakePow function. X must be a value between 0-1\n    /// expressed as a fixed point value with a denominator of 1024. numerator and denominator\n    /// can be any integers. Returns the value x^(n/d).\n    function _fakePowInternal(uint256 xQ10, uint256 numerator, uint256 denominator, uint256 iterations) private pure returns (uint256) {\n        // Initialize the result to 1 (1024 is 1 in Q10)\n        uint256 resultQ10 = 1024;\n\n        // Grab the integer part of the exponent, which we can compute exactly\n        uint256 integerExponent = numerator / denominator;\n\n        // We have to be careful with overflow here. We know that x fits in 11 bits, because\n        // we require x to be in the range 0-1. We also know that if x fits in n bits, then\n        // x^y fits in n*y bits. So, any power <23 will safely fit into 256-bits. Any power\n        // >= 23 might not! We can loop over powers >22 (which will be very rare!) and safely\n        // compute them in chunks without overflow.\n        while (integerExponent >= 22) {\n            resultQ10 *= xQ10 ** 22;\n            resultQ10 >>= 220; // back out the 22 extra multiples of 1024\n            integerExponent -= 22;\n        }\n\n        // Handle any remaining integer part of the power function without the possibility\n        // of overflow\n        if (integerExponent > 0) {\n            resultQ10 *= xQ10 ** integerExponent;\n            resultQ10 >>= (integerExponent * 10);\n        }\n\n        uint256 fractionalExponent = numerator % denominator;\n\n        // If we've run out of iterations, or there is no fractional part, we can\n        // just return the value we've computed to this point.\n        if ((iterations == 0) || (fractionalExponent == 0)) {\n            return resultQ10;\n        }\n\n        // This is the magic, and -- I'll be honest -- I don't have much other than some\n        // empirical testing to defend it. If we have a fractional power n/d, where n < d\n        // we recursively call this function \"flipping\" everything. We flip the base value\n        // x, by using 1-x. And we flip the fractional exponent and use d/n which will\n        // result in a power > 1.  And then we flip the result again by using 1-result.\n        //\n        // The result is a value that is _quite close_ to x^(n/d), but is much cheaper to\n        // to compute on a VM that only has an integer unit.\n        resultQ10 *= (1024 - _fakePowInternal(1024 - xQ10, denominator, fractionalExponent, iterations - 1));\n\n        return resultQ10 >> 10;\n    }\n}\n",
  "sourcePath": "/data/contracts/ThreeAffinityDuelResolver.sol",
  "compiler": {
    "name": "solc",
    "version": "0.5.8+commit.23d335f2.Emscripten.clang"
  },
  "schemaVersion": "3.0.11",
  "updatedAt": "2019-10-02T17:47:35.585Z",
  "devdoc": {
    "methods": {
      "isValidMoveSet(bytes32)": {
        "params": {
          "moveSet": "the moveset to be validated"
        }
      },
      "supportsInterface(bytes4)": {
        "details": "Interface identification is specified in ERC-165. This function      uses less than 30,000 gas.",
        "params": {
          "interfaceId": "The interface identifier, as specified in ERC-165"
        }
      }
    }
  },
  "userdoc": {
    "methods": {
      "isValidAffinity(uint256)": {
        "notice": "Any affinity value is acceptable with this resolver, we just safely ignore any affinities that don't match Fire, Air, or Water."
      },
      "isValidMoveSet(bytes32)": {
        "notice": "Checks to see that the given move set is valid for the RPS game. Valid format is 5 set bytes followed by 27 zero bytes.  Each set byte can be 2, 3, or 4. All other values are rejected as invalid."
      },
      "supportsInterface(bytes4)": {
        "notice": "Query if a contract implements an interface"
      }
    }
  }
}