{
  "contractName": "WizardGuild",
  "abi": [
    {
      "constant": true,
      "inputs": [],
      "name": "cfoAddress",
      "outputs": [
        {
          "name": "",
          "type": "address"
        }
      ],
      "payable": false,
      "stateMutability": "view",
      "type": "function"
    },
    {
      "constant": true,
      "inputs": [
        {
          "name": "wizardId",
          "type": "uint256"
        }
      ],
      "name": "getApproved",
      "outputs": [
        {
          "name": "",
          "type": "address"
        }
      ],
      "payable": false,
      "stateMutability": "view",
      "type": "function"
    },
    {
      "constant": false,
      "inputs": [
        {
          "name": "to",
          "type": "address"
        },
        {
          "name": "wizardId",
          "type": "uint256"
        }
      ],
      "name": "approve",
      "outputs": [],
      "payable": false,
      "stateMutability": "nonpayable",
      "type": "function"
    },
    {
      "constant": true,
      "inputs": [],
      "name": "ceoAddress",
      "outputs": [
        {
          "name": "",
          "type": "address"
        }
      ],
      "payable": false,
      "stateMutability": "view",
      "type": "function"
    },
    {
      "constant": false,
      "inputs": [
        {
          "name": "from",
          "type": "address"
        },
        {
          "name": "to",
          "type": "address"
        },
        {
          "name": "wizardId",
          "type": "uint256"
        }
      ],
      "name": "transferFrom",
      "outputs": [],
      "payable": false,
      "stateMutability": "nonpayable",
      "type": "function"
    },
    {
      "constant": false,
      "inputs": [
        {
          "name": "newCfo",
          "type": "address"
        }
      ],
      "name": "setCfo",
      "outputs": [],
      "payable": false,
      "stateMutability": "nonpayable",
      "type": "function"
    },
    {
      "constant": false,
      "inputs": [
        {
          "name": "from",
          "type": "address"
        },
        {
          "name": "to",
          "type": "address"
        },
        {
          "name": "wizardId",
          "type": "uint256"
        }
      ],
      "name": "safeTransferFrom",
      "outputs": [],
      "payable": false,
      "stateMutability": "nonpayable",
      "type": "function"
    },
    {
      "constant": true,
      "inputs": [
        {
          "name": "",
          "type": "uint256"
        }
      ],
      "name": "wizardsById",
      "outputs": [
        {
          "name": "affinity",
          "type": "uint8"
        },
        {
          "name": "innatePower",
          "type": "uint88"
        },
        {
          "name": "owner",
          "type": "address"
        },
        {
          "name": "metadata",
          "type": "bytes32"
        }
      ],
      "payable": false,
      "stateMutability": "view",
      "type": "function"
    },
    {
      "constant": true,
      "inputs": [
        {
          "name": "wizardId",
          "type": "uint256"
        }
      ],
      "name": "ownerOf",
      "outputs": [
        {
          "name": "",
          "type": "address"
        }
      ],
      "payable": false,
      "stateMutability": "view",
      "type": "function"
    },
    {
      "constant": true,
      "inputs": [
        {
          "name": "owner",
          "type": "address"
        }
      ],
      "name": "balanceOf",
      "outputs": [
        {
          "name": "",
          "type": "uint256"
        }
      ],
      "payable": false,
      "stateMutability": "view",
      "type": "function"
    },
    {
      "constant": false,
      "inputs": [
        {
          "name": "newCeo",
          "type": "address"
        }
      ],
      "name": "setCeo",
      "outputs": [],
      "payable": false,
      "stateMutability": "nonpayable",
      "type": "function"
    },
    {
      "constant": false,
      "inputs": [
        {
          "name": "newCoo",
          "type": "address"
        }
      ],
      "name": "setCoo",
      "outputs": [],
      "payable": false,
      "stateMutability": "nonpayable",
      "type": "function"
    },
    {
      "constant": false,
      "inputs": [
        {
          "name": "to",
          "type": "address"
        },
        {
          "name": "approved",
          "type": "bool"
        }
      ],
      "name": "setApprovalForAll",
      "outputs": [],
      "payable": false,
      "stateMutability": "nonpayable",
      "type": "function"
    },
    {
      "constant": true,
      "inputs": [],
      "name": "cooAddress",
      "outputs": [
        {
          "name": "",
          "type": "address"
        }
      ],
      "payable": false,
      "stateMutability": "view",
      "type": "function"
    },
    {
      "constant": false,
      "inputs": [
        {
          "name": "from",
          "type": "address"
        },
        {
          "name": "to",
          "type": "address"
        },
        {
          "name": "wizardId",
          "type": "uint256"
        },
        {
          "name": "_data",
          "type": "bytes"
        }
      ],
      "name": "safeTransferFrom",
      "outputs": [],
      "payable": false,
      "stateMutability": "nonpayable",
      "type": "function"
    },
    {
      "constant": true,
      "inputs": [
        {
          "name": "owner",
          "type": "address"
        },
        {
          "name": "operator",
          "type": "address"
        }
      ],
      "name": "isApprovedForAll",
      "outputs": [
        {
          "name": "",
          "type": "bool"
        }
      ],
      "payable": false,
      "stateMutability": "view",
      "type": "function"
    },
    {
      "inputs": [
        {
          "name": "_cooAddress",
          "type": "address"
        }
      ],
      "payable": false,
      "stateMutability": "nonpayable",
      "type": "constructor"
    },
    {
      "anonymous": false,
      "inputs": [
        {
          "indexed": false,
          "name": "seriesIndex",
          "type": "uint64"
        },
        {
          "indexed": false,
          "name": "reservedIds",
          "type": "uint256"
        }
      ],
      "name": "SeriesOpen",
      "type": "event"
    },
    {
      "anonymous": false,
      "inputs": [
        {
          "indexed": false,
          "name": "seriesIndex",
          "type": "uint64"
        }
      ],
      "name": "SeriesClose",
      "type": "event"
    },
    {
      "anonymous": false,
      "inputs": [
        {
          "indexed": true,
          "name": "wizardId",
          "type": "uint256"
        },
        {
          "indexed": false,
          "name": "metadata",
          "type": "bytes32"
        }
      ],
      "name": "MetadataSet",
      "type": "event"
    },
    {
      "anonymous": false,
      "inputs": [
        {
          "indexed": false,
          "name": "wizardId",
          "type": "uint256"
        },
        {
          "indexed": false,
          "name": "affinity",
          "type": "uint8"
        },
        {
          "indexed": false,
          "name": "innatePower",
          "type": "uint256"
        }
      ],
      "name": "WizardConjured",
      "type": "event"
    },
    {
      "anonymous": false,
      "inputs": [
        {
          "indexed": false,
          "name": "wizardId",
          "type": "uint256"
        },
        {
          "indexed": false,
          "name": "affinity",
          "type": "uint8"
        }
      ],
      "name": "WizardAffinityAssigned",
      "type": "event"
    },
    {
      "anonymous": false,
      "inputs": [
        {
          "indexed": true,
          "name": "from",
          "type": "address"
        },
        {
          "indexed": true,
          "name": "to",
          "type": "address"
        },
        {
          "indexed": true,
          "name": "tokenId",
          "type": "uint256"
        }
      ],
      "name": "Transfer",
      "type": "event"
    },
    {
      "anonymous": false,
      "inputs": [
        {
          "indexed": true,
          "name": "owner",
          "type": "address"
        },
        {
          "indexed": true,
          "name": "approved",
          "type": "address"
        },
        {
          "indexed": true,
          "name": "tokenId",
          "type": "uint256"
        }
      ],
      "name": "Approval",
      "type": "event"
    },
    {
      "anonymous": false,
      "inputs": [
        {
          "indexed": true,
          "name": "owner",
          "type": "address"
        },
        {
          "indexed": true,
          "name": "operator",
          "type": "address"
        },
        {
          "indexed": false,
          "name": "approved",
          "type": "bool"
        }
      ],
      "name": "ApprovalForAll",
      "type": "event"
    },
    {
      "anonymous": false,
      "inputs": [
        {
          "indexed": false,
          "name": "previousCeo",
          "type": "address"
        },
        {
          "indexed": false,
          "name": "newCeo",
          "type": "address"
        }
      ],
      "name": "CEOTransferred",
      "type": "event"
    },
    {
      "anonymous": false,
      "inputs": [
        {
          "indexed": false,
          "name": "previousCoo",
          "type": "address"
        },
        {
          "indexed": false,
          "name": "newCoo",
          "type": "address"
        }
      ],
      "name": "COOTransferred",
      "type": "event"
    },
    {
      "anonymous": false,
      "inputs": [
        {
          "indexed": false,
          "name": "previousCfo",
          "type": "address"
        },
        {
          "indexed": false,
          "name": "newCfo",
          "type": "address"
        }
      ],
      "name": "CFOTransferred",
      "type": "event"
    },
    {
      "constant": true,
      "inputs": [],
      "name": "getNextWizardIndex",
      "outputs": [
        {
          "name": "",
          "type": "uint256"
        }
      ],
      "payable": false,
      "stateMutability": "view",
      "type": "function"
    },
    {
      "constant": false,
      "inputs": [
        {
          "name": "minter",
          "type": "address"
        },
        {
          "name": "reservedIds",
          "type": "uint256"
        }
      ],
      "name": "openSeries",
      "outputs": [
        {
          "name": "seriesId",
          "type": "uint64"
        }
      ],
      "payable": false,
      "stateMutability": "nonpayable",
      "type": "function"
    },
    {
      "constant": false,
      "inputs": [],
      "name": "closeSeries",
      "outputs": [],
      "payable": false,
      "stateMutability": "nonpayable",
      "type": "function"
    },
    {
      "constant": true,
      "inputs": [
        {
          "name": "interfaceId",
          "type": "bytes4"
        }
      ],
      "name": "supportsInterface",
      "outputs": [
        {
          "name": "",
          "type": "bool"
        }
      ],
      "payable": false,
      "stateMutability": "view",
      "type": "function"
    },
    {
      "constant": true,
      "inputs": [
        {
          "name": "id",
          "type": "uint256"
        }
      ],
      "name": "getWizard",
      "outputs": [
        {
          "name": "owner",
          "type": "address"
        },
        {
          "name": "innatePower",
          "type": "uint88"
        },
        {
          "name": "affinity",
          "type": "uint8"
        },
        {
          "name": "metadata",
          "type": "bytes32"
        }
      ],
      "payable": false,
      "stateMutability": "view",
      "type": "function"
    },
    {
      "constant": false,
      "inputs": [
        {
          "name": "powers",
          "type": "uint88[]"
        },
        {
          "name": "affinities",
          "type": "uint8[]"
        },
        {
          "name": "owner",
          "type": "address"
        }
      ],
      "name": "mintWizards",
      "outputs": [
        {
          "name": "wizardIds",
          "type": "uint256[]"
        }
      ],
      "payable": false,
      "stateMutability": "nonpayable",
      "type": "function"
    },
    {
      "constant": false,
      "inputs": [
        {
          "name": "wizardIds",
          "type": "uint256[]"
        },
        {
          "name": "powers",
          "type": "uint88[]"
        },
        {
          "name": "affinities",
          "type": "uint8[]"
        },
        {
          "name": "owner",
          "type": "address"
        }
      ],
      "name": "mintReservedWizards",
      "outputs": [],
      "payable": false,
      "stateMutability": "nonpayable",
      "type": "function"
    },
    {
      "constant": false,
      "inputs": [
        {
          "name": "wizardIds",
          "type": "uint256[]"
        },
        {
          "name": "metadata",
          "type": "bytes32[]"
        }
      ],
      "name": "setMetadata",
      "outputs": [],
      "payable": false,
      "stateMutability": "nonpayable",
      "type": "function"
    },
    {
      "constant": false,
      "inputs": [
        {
          "name": "wizardId",
          "type": "uint256"
        },
        {
          "name": "newAffinity",
          "type": "uint8"
        }
      ],
      "name": "setAffinity",
      "outputs": [],
      "payable": false,
      "stateMutability": "nonpayable",
      "type": "function"
    },
    {
      "constant": true,
      "inputs": [
        {
          "name": "spender",
          "type": "address"
        },
        {
          "name": "tokenId",
          "type": "uint256"
        }
      ],
      "name": "isApprovedOrOwner",
      "outputs": [
        {
          "name": "",
          "type": "bool"
        }
      ],
      "payable": false,
      "stateMutability": "view",
      "type": "function"
    },
    {
      "constant": true,
      "inputs": [
        {
          "name": "wizardId",
          "type": "uint256"
        },
        {
          "name": "hash",
          "type": "bytes32"
        },
        {
          "name": "sig",
          "type": "bytes"
        }
      ],
      "name": "verifySignature",
      "outputs": [],
      "payable": false,
      "stateMutability": "view",
      "type": "function"
    },
    {
      "constant": true,
      "inputs": [
        {
          "name": "wizardId1",
          "type": "uint256"
        },
        {
          "name": "wizardId2",
          "type": "uint256"
        },
        {
          "name": "hash1",
          "type": "bytes32"
        },
        {
          "name": "hash2",
          "type": "bytes32"
        },
        {
          "name": "sig1",
          "type": "bytes"
        },
        {
          "name": "sig2",
          "type": "bytes"
        }
      ],
      "name": "verifySignatures",
      "outputs": [],
      "payable": false,
      "stateMutability": "view",
      "type": "function"
    }
  ],
  "bytecode": "0x60806040523480156200001157600080fd5b506040516020806200306e833981018060405260208110156200003357600080fd5b50518060006200004a3362000085602090811b901c565b6200005b82620000ef60201b60201c565b6001600160a01b038116156200007c576200007c81620001e460201b60201c565b5050506200036f565b600054604080516001600160a01b039283168152918316602083015280517f9d05f170f1d545b1aa21c4a4f79f17ff737f5f020ea1b333d88f29f0bbfa9fc69281900390910190a1600080546001600160a01b0319166001600160a01b0392909216919091179055565b6000546001600160a01b031633146200016957604080517f08c379a000000000000000000000000000000000000000000000000000000000815260206004820152600860248201527f4f6e6c792043454f000000000000000000000000000000000000000000000000604482015290519081900360640190fd5b6200017a81620002d960201b60201c565b600154604080516001600160a01b039283168152918316602083015280517f1cd3afc04e6ae479d2b9f74533351b52218c5b2ae4f847f681a5eac514fe11849281900390910190a1600180546001600160a01b0319166001600160a01b0392909216919091179055565b6000546001600160a01b031633146200025e57604080517f08c379a000000000000000000000000000000000000000000000000000000000815260206004820152600860248201527f4f6e6c792043454f000000000000000000000000000000000000000000000000604482015290519081900360640190fd5b6200026f81620002d960201b60201c565b600254604080516001600160a01b039283168152918316602083015280517fe1033d3cc535efc343c53636bdc05c52a44d9e70b089d4ad6e974379f2c651d69281900390910190a1600280546001600160a01b0319166001600160a01b0392909216919091179055565b6001600160a01b038116158015906200030057506000546001600160a01b03828116911614155b6200036c57604080517f08c379a000000000000000000000000000000000000000000000000000000000815260206004820152601360248201527f496e76616c69642043454f206164647265737300000000000000000000000000604482015290519081900360640190fd5b50565b612cef806200037f6000396000f3fe608060405234801561001057600080fd5b50600436106101c45760003560e01c80635938d97a116100f9578063a096d9f011610097578063b88d4fde11610071578063b88d4fde14610950578063c5ffd6e114610a14578063e985e9c514610a1c578063fac8eafc14610a4a576101c4565b8063a096d9f014610844578063a22cb4651461091a578063b047fb5014610948576101c4565b806388975198116100d357806388975198146106bb57806398d7a414146106e15780639986a0c6146107075780639d1580231461072d576101c4565b80635938d97a1461060f5780636352211e1461066657806370a0823114610683576101c4565b80632d46ed561161016657806342842e0e1161014057806342842e0e1461044d578063430c2081146104835780634616c514146104af57806355fdbeec146104f8576101c4565b80632d46ed561461036f5780632f81b15d146103955780634094099a14610445576101c4565b8063095ea7b3116101a2578063095ea7b3146102455780630a0f81681461027357806323b872dd1461027b5780632738ec3c146102b1576101c4565b806301ffc9a7146101c95780630519ce7914610204578063081812fc14610228575b600080fd5b6101f0600480360360208110156101df57600080fd5b50356001600160e01b031916610aa1565b604080519115158252519081900360200190f35b61020c610acf565b604080516001600160a01b039092168252519081900360200190f35b61020c6004803603602081101561023e57600080fd5b5035610ade565b6102716004803603604081101561025b57600080fd5b506001600160a01b038135169060200135610b43565b005b61020c610c5a565b6102716004803603606081101561029157600080fd5b506001600160a01b03813581169160208101359091169060400135610c69565b610271600480360360408110156102c757600080fd5b810190602081018135600160201b8111156102e157600080fd5b8201836020820111156102f357600080fd5b803590602001918460208302840111600160201b8311171561031457600080fd5b919390929091602081019035600160201b81111561033157600080fd5b82018360208201111561034357600080fd5b803590602001918460208302840111600160201b8311171561036457600080fd5b509092509050610cc1565b6102716004803603602081101561038557600080fd5b50356001600160a01b0316610fac565b610271600480360360608110156103ab57600080fd5b813591602081013591810190606081016040820135600160201b8111156103d157600080fd5b8201836020820111156103e357600080fd5b803590602001918460018302840111600160201b8311171561040457600080fd5b91908080601f01602080910402602001604051908101604052809392919081815260200183838082843760009201919091525092955061106f945050505050565b610271611106565b6102716004803603606081101561046357600080fd5b506001600160a01b03813581169160208101359091169060400135611252565b6101f06004803603604081101561049957600080fd5b506001600160a01b03813516906020013561126d565b6104db600480360360408110156104c557600080fd5b506001600160a01b038135169060200135611280565b6040805167ffffffffffffffff9092168252519081900360200190f35b6105bf6004803603606081101561050e57600080fd5b810190602081018135600160201b81111561052857600080fd5b82018360208201111561053a57600080fd5b803590602001918460208302840111600160201b8311171561055b57600080fd5b919390929091602081019035600160201b81111561057857600080fd5b82018360208201111561058a57600080fd5b803590602001918460208302840111600160201b831117156105ab57600080fd5b9193509150356001600160a01b03166114d3565b60408051602080825283518183015283519192839290830191858101910280838360005b838110156105fb5781810151838201526020016105e3565b505050509050019250505060405180910390f35b61062c6004803603602081101561062557600080fd5b5035611672565b6040805160ff90951685526001600160581b0390931660208501526001600160a01b03909116838301526060830152519081900360800190f35b61020c6004803603602081101561067c57600080fd5b50356116b1565b6106a96004803603602081101561069957600080fd5b50356001600160a01b031661170f565b60408051918252519081900360200190f35b610271600480360360208110156106d157600080fd5b50356001600160a01b0316611775565b610271600480360360408110156106f757600080fd5b508035906020013560ff166117da565b6102716004803603602081101561071d57600080fd5b50356001600160a01b031661196a565b6102716004803603608081101561074357600080fd5b810190602081018135600160201b81111561075d57600080fd5b82018360208201111561076f57600080fd5b803590602001918460208302840111600160201b8311171561079057600080fd5b919390929091602081019035600160201b8111156107ad57600080fd5b8201836020820111156107bf57600080fd5b803590602001918460208302840111600160201b831117156107e057600080fd5b919390929091602081019035600160201b8111156107fd57600080fd5b82018360208201111561080f57600080fd5b803590602001918460208302840111600160201b8311171561083057600080fd5b9193509150356001600160a01b0316611a2d565b610271600480360360c081101561085a57600080fd5b81359160208101359160408201359160608101359181019060a081016080820135600160201b81111561088c57600080fd5b82018360208201111561089e57600080fd5b803590602001918460018302840111600160201b831117156108bf57600080fd5b919390929091602081019035600160201b8111156108dc57600080fd5b8201836020820111156108ee57600080fd5b803590602001918460018302840111600160201b8311171561090f57600080fd5b509092509050611c8f565b6102716004803603604081101561093057600080fd5b506001600160a01b0381351690602001351515611d11565b61020c611de0565b6102716004803603608081101561096657600080fd5b6001600160a01b03823581169260208101359091169160408201359190810190608081016060820135600160201b8111156109a057600080fd5b8201836020820111156109b257600080fd5b803590602001918460018302840111600160201b831117156109d357600080fd5b91908080601f016020809104026020016040519081016040528093929190818152602001838380828437600092019190915250929550611def945050505050565b6106a9611e4a565b6101f060048036036040811015610a3257600080fd5b506001600160a01b0381358116916020013516611e50565b610a6760048036036020811015610a6057600080fd5b5035611e7e565b604080516001600160a01b0390951685526001600160581b03909316602085015260ff909116838301526060830152519081900360800190f35b60006001600160e01b03198216600160e01b6341d4d437021480610ac95750610ac982611f5a565b92915050565b6002546001600160a01b031681565b6000610ae982611f93565b610b2757604051600160e51b62461bcd02815260040180806020018281038252602c815260200180612bd5602c913960400191505060405180910390fd5b506000908152600460205260409020546001600160a01b031690565b6000610b4e826116b1565b9050806001600160a01b0316836001600160a01b03161415610ba457604051600160e51b62461bcd028152600401808060200182810382526021815260200180612c4f6021913960400191505060405180910390fd5b336001600160a01b0382161480610bc05750610bc08133611e50565b610bfe57604051600160e51b62461bcd028152600401808060200182810382526038815260200180612b286038913960400191505060405180910390fd5b60008281526004602052604080822080546001600160a01b0319166001600160a01b0387811691821790925591518593918516917f8c5be1e5ebec7d5bd14f71427d1e84f3dd0314c0f7b2291e5b200ac8c7c3b92591a4505050565b6000546001600160a01b031681565b610c733382611fb7565b610cb157604051600160e51b62461bcd028152600401808060200182810382526031815260200180612c706031913960400191505060405180910390fd5b610cbc83838361205e565b505050565b600754600160401b90046001600160a01b0316610d285760408051600160e51b62461bcd02815260206004820152601b60248201527f4e6f207365726965732069732063757272656e746c79206f70656e0000000000604482015290519081900360640190fd5b600754600160401b90046001600160a01b0316331480610d5257506001546001600160a01b031633145b610d9057604051600160e51b62461bcd028152600401808060200182810382526023815260200180612ca16023913960400191505060405180910390fd5b828114610de75760408051600160e51b62461bcd02815260206004820152601e60248201527f496e636f6e73697374656e7420706172616d65746572206c656e677468730000604482015290519081900360640190fd5b60005b83811015610fa5576000858583818110610e0057fe5b9050602002013590506000848484818110610e1757fe5b600754602091909102929092013592505067ffffffffffffffff1660c01b6001600160c01b0319831614610e955760408051600160e51b62461bcd02815260206004820152601d60248201527f57697a61726473206e6f7420696e2063757272656e7420736572696573000000604482015290519081900360640190fd5b60008281526003602052604090206001015415610efc5760408051600160e51b62461bcd02815260206004820152601460248201527f4d6574616461746120616c726561647920736574000000000000000000000000604482015290519081900360640190fd5b80610f515760408051600160e51b62461bcd02815260206004820152601060248201527f496e76616c6964206d6574616461746100000000000000000000000000000000604482015290519081900360640190fd5b6000828152600360209081526040918290206001018390558151838152915184927ff6812173c9728bd3bab2f1a94129341e47af8b8b78e2da481f8c45659d2d59eb92908290030190a25050600101610dea565b5050505050565b6000546001600160a01b03163314610ffc5760408051600160e51b62461bcd0281526020600482015260086024820152600160c01b674f6e6c792043454f02604482015290519081900360640190fd5b61100581612191565b600254604080516001600160a01b039283168152918316602083015280517fe1033d3cc535efc343c53636bdc05c52a44d9e70b089d4ad6e974379f2c651d69281900390910190a1600280546001600160a01b0319166001600160a01b0392909216919091179055565b600061107a846116b1565b905061108781848461220b565b156110925750610cbc565b600061109d85610ade565b90506110aa81858561220b565b156110b6575050610cbc565b60408051600160e51b62461bcd02815260206004820152601160248201527f496e76616c6964207369676e6174757265000000000000000000000000000000604482015290519081900360640190fd5b600754600160401b90046001600160a01b031661116d5760408051600160e51b62461bcd02815260206004820152601b60248201527f4e6f207365726965732069732063757272656e746c79206f70656e0000000000604482015290519081900360640190fd5b600754600160401b90046001600160a01b031633148061119757506001546001600160a01b031633145b6111d557604051600160e51b62461bcd028152600401808060200182810382526025815260200180612c2a6025913960400191505060405180910390fd5b60078054600160401b600160e01b031981169091556040805167ffffffffffffffff9092168252517f05ba38dc3f1ba4a8bd95dbf51dd0f0141267df538cdd31a01819e9929acdce0d9181900360200190a16007805467ffffffffffffffff8082166001011667ffffffffffffffff199091161790556000600855565b610cbc83838360405180602001604052806000815250611def565b60006112798383611fb7565b9392505050565b6001546000906001600160a01b031633146112d35760408051600160e51b62461bcd0281526020600482015260086024820152600160c01b674f6e6c7920434f4f02604482015290519081900360640190fd5b600754600160401b90046001600160a01b03161561133b5760408051600160e51b62461bcd02815260206004820152601860248201527f412073657269657320697320616c7265616479206f70656e0000000000000000604482015290519081900360640190fd5b6001600160a01b0383166113995760408051600160e51b62461bcd02815260206004820152601a60248201527f4d696e74657220616464726573732063616e6e6f742062652030000000000000604482015290519081900360640190fd5b60075467ffffffffffffffff166113f25781611756146113ed57604051600160e51b62461bcd028152600401808060200182810382526022815260200180612bb36022913960400191505060405180910390fd5b61144d565b600160c01b821061144d5760408051600160e51b62461bcd02815260206004820152601360248201527f496e76616c696420726573657276656449647300000000000000000000000000604482015290519081900360640190fd5b60078054600160401b600160e01b031916600160401b6001600160a01b038616021790819055600183016008556040805167ffffffffffffffff90921682526020820184905280517f5be5961d909b3736a7b784a2d25cea0eb131c6c34ccdf94b2a376819c258ec8a9281900390910190a15060075467ffffffffffffffff1692915050565b600754606090600160401b90046001600160a01b0316331461153f5760408051600160e51b62461bcd02815260206004820152601760248201527f4f6e6c792063616c6c61626c65206279206d696e746572000000000000000000604482015290519081900360640190fd5b8285146115965760408051600160e51b62461bcd02815260206004820152601e60248201527f496e636f6e73697374656e7420706172616d65746572206c656e677468730000604482015290519081900360640190fd5b6040805184815260208086028201019091528380156115bf578160200160208202803883390190505b5060085460075491925067ffffffffffffffff90911660c01b0160005b8481101561165c57818382815181106115f157fe5b602002602001018181525050818060010192505061165483828151811061161457fe5b6020026020010151858a8a8581811061162957fe5b905060200201356001600160581b031689898681811061164557fe5b9050602002013560ff16612465565b6001016115dc565b506001600160c01b031660085595945050505050565b6003602052600090815260409020805460019091015460ff82169161010081046001600160581b031691600160601b9091046001600160a01b03169084565b600081815260036020526040812054600160601b90046001600160a01b031680610ac957604051600160e51b62461bcd028152600401808060200182810382526029815260200180612b8a6029913960400191505060405180910390fd5b60006001600160a01b03821661175957604051600160e51b62461bcd02815260040180806020018281038252602a815260200180612b60602a913960400191505060405180910390fd5b506001600160a01b031660009081526005602052604090205490565b6000546001600160a01b031633146117c55760408051600160e51b62461bcd0281526020600482015260086024820152600160c01b674f6e6c792043454f02604482015290519081900360640190fd5b6117ce81612191565b6117d781612708565b50565b600754600160401b90046001600160a01b031633146118435760408051600160e51b62461bcd02815260206004820152601760248201527f4f6e6c792063616c6c61626c65206279206d696e746572000000000000000000604482015290519081900360640190fd5b60075467ffffffffffffffff1660c01b6001600160c01b03198316146118b35760408051600160e51b62461bcd02815260206004820152601c60248201527f57697a617264206e6f7420696e2063757272656e742073657269657300000000604482015290519081900360640190fd5b6000828152600360205260409020805460ff161561191b5760408051600160e51b62461bcd02815260206004820181905260248201527f416666696e6974792063616e206f6e6c792062652063686f73656e206f6e6365604482015290519081900360640190fd5b805460ff191660ff8316908117825560408051858152602081019290925280517fef597ca22f25aec904866c3228f39dd59d3bc8345b8fd3cbea7ce568c5b1b22a9281900390910190a1505050565b6000546001600160a01b031633146119ba5760408051600160e51b62461bcd0281526020600482015260086024820152600160c01b674f6e6c792043454f02604482015290519081900360640190fd5b6119c381612191565b600154604080516001600160a01b039283168152918316602083015280517f1cd3afc04e6ae479d2b9f74533351b52218c5b2ae4f847f681a5eac514fe11849281900390910190a1600180546001600160a01b0319166001600160a01b0392909216919091179055565b600754600160401b90046001600160a01b03163314611a965760408051600160e51b62461bcd02815260206004820152601760248201527f4f6e6c792063616c6c61626c65206279206d696e746572000000000000000000604482015290519081900360640190fd5b8582148015611aa457508584145b611af85760408051600160e51b62461bcd02815260206004820152601e60248201527f496e636f6e73697374656e7420706172616d65746572206c656e677468730000604482015290519081900360640190fd5b60005b86811015611c85576000888883818110611b1157fe5b600754602091909102929092013592505067ffffffffffffffff1660c01b6001600160c01b0319821614611b8f5760408051600160e51b62461bcd02815260206004820152601d60248201527f57697a61726473206e6f7420696e2063757272656e7420736572696573000000604482015290519081900360640190fd5b6001600160c01b038116611bed5760408051600160e51b62461bcd02815260206004820152601960248201527f57697a617264732069642063616e6e6f74206265207a65726f00000000000000604482015290519081900360640190fd5b6008546001600160c01b03821610611c4f5760408051600160e51b62461bcd02815260206004820152601d60248201527f57697a61726473206e6f7420696e2072657365727665642072616e6765000000604482015290519081900360640190fd5b611c7c8184898986818110611c6057fe5b905060200201356001600160581b031688888781811061164557fe5b50600101611afb565b5050505050505050565b611cd0888786868080601f01602080910402602001604051908101604052809392919081815260200183838082843760009201919091525061106f92505050565b611c85878684848080601f01602080910402602001604051908101604052809392919081815260200183838082843760009201919091525061106f92505050565b6001600160a01b038216331415611d725760408051600160e51b62461bcd02815260206004820152601960248201527f4552433732313a20617070726f766520746f2063616c6c657200000000000000604482015290519081900360640190fd5b3360008181526006602090815260408083206001600160a01b03871680855290835292819020805460ff1916861515908117909155815190815290519293927f17307eab39ab6107e8899845ad3d59bd9653f200f220920489ca2b5937696c31929181900390910190a35050565b6001546001600160a01b031681565b611dfa848484610c69565b611e0684848484612772565b611e4457604051600160e51b62461bcd028152600401808060200182810382526032815260200180612aa66032913960400191505060405180910390fd5b50505050565b60085490565b6001600160a01b03918216600090815260066020908152604080832093909416825291909152205460ff1690565b600080600080611e8c612a7e565b506000858152600360209081526040918290208251608081018452815460ff8116825261010081046001600160581b031693820193909352600160601b9092046001600160a01b031692820183905260010154606082015290611f395760408051600160e51b62461bcd02815260206004820152601560248201527f57697a61726420646f6573206e6f742065786973740000000000000000000000604482015290519081900360640190fd5b60408101516020820151825160609093015191989097509195509350915050565b60006001600160e01b03198216600160e01b6301ffc9a7021480610ac95750506001600160e01b031916600160e01b6380ac58cd021490565b600090815260036020526040902054600160601b90046001600160a01b0316151590565b6000611fc282611f93565b61200057604051600160e51b62461bcd02815260040180806020018281038252602c815260200180612afc602c913960400191505060405180910390fd5b600061200b836116b1565b9050806001600160a01b0316846001600160a01b031614806120465750836001600160a01b031661203b84610ade565b6001600160a01b0316145b8061205657506120568185611e50565b949350505050565b826001600160a01b0316612071826116b1565b6001600160a01b0316146120b957604051600160e51b62461bcd028152600401808060200182810382526029815260200180612c016029913960400191505060405180910390fd5b6001600160a01b03821661210157604051600160e51b62461bcd028152600401808060200182810382526024815260200180612ad86024913960400191505060405180910390fd5b61210a816128a2565b6001600160a01b038381166000818152600560209081526040808320805460001901905593861680835284832080546001019055858352600390915283822080546bffffffffffffffffffffffff16600160601b83021790559251849392917fddf252ad1be2c89b69c2b068fc378daa952ba7f163c4a11628f55a4df523b3ef91a4505050565b6001600160a01b038116158015906121b757506000546001600160a01b03828116911614155b6117d75760408051600160e51b62461bcd02815260206004820152601360248201527f496e76616c69642043454f206164647265737300000000000000000000000000604482015290519081900360640190fd5b60006001600160a01b03841661222357506000611279565b61222c846128dd565b1561237e5761224584600160e11b630b135d3f026128e3565b1561237657604080516020808201869052825180830382018152828401808552815191830191909120600160e11b630b135d3f02909152604483018181526064840194855286516084850152865189956000956001600160a01b03881695631626ba7e95948b9490939260a401918501908083838c5b838110156122d35781810151838201526020016122bb565b50505050905090810190601f1680156123005780820380516001836020036101000a031916815260200191505b50935050505060206040518083038186803b15801561231e57600080fd5b505afa158015612332573d6000803e3d6000fd5b505050506040513d602081101561234857600080fd5b505190506001600160e01b03198116600160e11b630b135d3f02141561237357600192505050611279565b50505b506000611279565b600080600061238c85612988565b925092509250600060018760405160200180807f19457468657265756d205369676e6564204d6573736167653a0a333200000000815250601c018281526020019150506040516020818303038152906040528051906020012083868660405160008152602001604052604051808581526020018460ff1660ff1681526020018381526020018281526020019450505050506020604051602081039080840390855afa15801561243f573d6000803e3d6000fd5b5050604051601f1901516001600160a01b038a8116911614955050505050509392505050565b6001600160a01b0383166124c35760408051600160e51b62461bcd02815260206004820181905260248201527f4552433732313a206d696e7420746f20746865207a65726f2061646472657373604482015290519081900360640190fd5b6124cc84611f93565b156125215760408051600160e51b62461bcd02815260206004820152601c60248201527f4552433732313a20746f6b656e20616c7265616479206d696e74656400000000604482015290519081900360640190fd5b600084116125795760408051600160e51b62461bcd02815260206004820152601260248201527f4e6f203020746f6b656e20616c6c6f7765640000000000000000000000000000604482015290519081900360640190fd5b6000826001600160581b0316116125da5760408051600160e51b62461bcd02815260206004820152601d60248201527f57697a61726420706f776572206d757374206265206e6f6e2d7a65726f000000604482015290519081900360640190fd5b6040805160808101825260ff83811682526001600160581b0385811660208085019182526001600160a01b038981168688018181526000606089018181528e8252600386528a822099518a549751935160ff199098169916989098176bffffffffffffffffffffff0019166101009290971691909102959095176bffffffffffffffffffffffff16600160601b94909216939093021785559251600194850155808252600590925283812080549093019092559151869291907fddf252ad1be2c89b69c2b068fc378daa952ba7f163c4a11628f55a4df523b3ef908290a46040805185815260ff831660208201526001600160581b0384168183015290517f3b7fcf44666972972487f1ac302bef03ee0d35027387ba8a897207466a0817259181900360600190a150505050565b600054604080516001600160a01b039283168152918316602083015280517f9d05f170f1d545b1aa21c4a4f79f17ff737f5f020ea1b333d88f29f0bbfa9fc69281900390910190a1600080546001600160a01b0319166001600160a01b0392909216919091179055565b600061277d846128dd565b61278957506001612056565b604051600160e11b630a85bd0102815233600482018181526001600160a01b03888116602485015260448401879052608060648501908152865160848601528651600095928a169463150b7a029490938c938b938b939260a4019060208501908083838e5b838110156128065781810151838201526020016127ee565b50505050905090810190601f1680156128335780820380516001836020036101000a031916815260200191505b5095505050505050602060405180830381600087803b15801561285557600080fd5b505af1158015612869573d6000803e3d6000fd5b505050506040513d602081101561287f57600080fd5b50516001600160e01b031916600160e11b630a85bd010214915050949350505050565b6000818152600460205260409020546001600160a01b0316156117d757600090815260046020526040902080546001600160a01b0319169055565b3b151590565b600080806128fb85600160e01b6301ffc9a702612a0f565b909250905081158061290b575080155b1561291b57600092505050610ac9565b61292d856001600160e01b0319612a0f565b909250905081158061293e57508015155b1561294e57600092505050610ac9565b6129588585612a0f565b909250905060018214801561296d5750806001145b1561297d57600192505050610ac9565b506000949350505050565b600080600083516041146129e65760408051600160e51b62461bcd02815260206004820152601860248201527f496e76616c6964207369676e6174757265206c656e6774680000000000000000604482015290519081900360640190fd5b50505060208101516040820151604183015160ff16601b811015612a0857601b015b9193909250565b604080516001600160e01b031983166024808301919091528251808303909101815260449091018252602081810180516001600160e01b0316600160e01b6301ffc9a702178152825193516000808252948594939091908183858b617530fa9051909890975095505050505050565b6040805160808101825260008082526020820181905291810182905260608101919091529056fe4552433732313a207472616e7366657220746f206e6f6e20455243373231526563656976657220696d706c656d656e7465724552433732313a207472616e7366657220746f20746865207a65726f20616464726573734552433732313a206f70657261746f7220717565727920666f72206e6f6e6578697374656e7420746f6b656e4552433732313a20617070726f76652063616c6c6572206973206e6f74206f776e6572206e6f7220617070726f76656420666f7220616c6c4552433732313a2062616c616e636520717565727920666f7220746865207a65726f20616464726573734552433732313a206f776e657220717565727920666f72206e6f6e6578697374656e7420746f6b656e496e76616c696420726573657276656449647320666f7220317374207365726965734552433732313a20617070726f76656420717565727920666f72206e6f6e6578697374656e7420746f6b656e4552433732313a207472616e73666572206f6620746f6b656e2074686174206973206e6f74206f776e4f6e6c79204d696e746572206f7220434f4f2063616e20636c6f73652061205365726965734552433732313a20617070726f76616c20746f2063757272656e74206f776e65724552433732313a207472616e736665722063616c6c6572206973206e6f74206f776e6572206e6f7220617070726f7665644f6e6c79204d696e746572206f7220434f4f2063616e20736574206d65746164617461a165627a7a72305820b138407e82d760238b182eaea80221baebef2742874f4aef9ca4f40d4f9fefd70029",
  "source": "pragma solidity >=0.5.6 <0.6.0;\n\nimport \"./WizardNFT.sol\";\nimport \"./WizardGuildInterface.sol\";\nimport \"./AccessControl.sol\";\nimport \"./ERC165/ERC165Query.sol\";\nimport \"./SigTools.sol\";\nimport \"./ERC1654/ERC1654.sol\";\n\n\n/// @title The master organization behind all Cheeze Wizardry. The source of all them Wiz.\ncontract WizardGuild is AccessControl, WizardNFT, WizardGuildInterface, ERC165Query {\n\n    /// @notice Emitted when a new Series is opened or closed.\n    event SeriesOpen(uint64 seriesIndex, uint256 reservedIds);\n    event SeriesClose(uint64 seriesIndex);\n\n    /// @notice Emitted when metadata is associated with a Wizard\n    event MetadataSet(uint256 indexed wizardId, bytes32 metadata);\n\n    /// @notice The index of the current Series (zero-based). When no Series is open, this value\n    ///         indicates the index of the _upcoming_ Series. (i.e. it is incremented when the\n    ///         Series is closed. This makes it easier to bootstrap the first Series.)\n    uint64 internal seriesIndex;\n\n    /// @notice The address which is allowed to mint new Wizards in the current Series. When this\n    ///         is set to address(0), there is no open Series.\n    address internal seriesMinter;\n\n    /// @notice The index number of the next Wizard to be created (Neutral or Elemental).\n    ///         NOTE: There is a subtle distinction between a Wizard \"ID\" and a Wizard \"index\".\n    ///               We use the term \"ID\" to refer to a value that includes the Series number in the\n    ///               top 64 bits, while the term \"index\" refers to the Wizard number _within_ its\n    ///               Series. This is especially confusing when talking about Wizards in the first\n    ///               Series (Series 0), because the two values are identical in that case!\n    ///\n    ///               |---------------|--------------------------|\n    ///               |           Wizard ID (256 bits)           |\n    ///               |---------------|--------------------------|\n    ///               |  Series Index |      Wizard Index        |\n    ///               |   (64 bits)   |       (192 bits)         |\n    ///               |---------------|--------------------------|\n    uint256 internal nextWizardIndex;\n\n    function getNextWizardIndex() external view returns (uint256) {\n        return nextWizardIndex;\n    }\n\n    // NOTE: uint256(-1) maps to a value with all bits set, both the << and >> operators will fill\n    // in with zeros when acting on an unsigned value. So, \"uint256(-1) << 192\" resolves to \"a bunch\n    /// of ones, followed by 192 zeros\"\n    uint256 internal constant SERIES_OFFSET = 192;\n    uint256 internal constant SERIES_MASK = uint256(-1) << SERIES_OFFSET;\n    uint256 internal constant INDEX_MASK = uint256(-1) >> 64;\n\n    // The ERC1654 function selector value\n    bytes4 internal constant ERC1654_VALIDSIGNATURE = 0x1626ba7e;\n\n    /// @notice The Guild constructor.\n    /// @param _cooAddress The COO has the ability to create new Series and to update\n    ///         the metadata on the currently open Series (if any). It has no other special\n    ///         abilities, and (in particular), ALL Wizards in a closed series can never be\n    ///         modified or deleted. If the CEO and COO values are ever set to invalid addresses\n    ///        (such as address(1)), then no new Series can ever be created, either.\n    constructor(address _cooAddress) public AccessControl(_cooAddress, address(0)) {\n    }\n\n    /// @notice Require that a Tournament Series is currently open. For example closing\n    ///         a Series does not make sense if none is open.\n    /// @dev While in other contracts we use separate checking functions to avoid having the same\n    ///      string inlined in multiple places, given this modifier is scarcely used it doesn't seem\n    ///      worth the per-call gas cost here.\n    modifier duringSeries() {\n        require(seriesMinter != address(0), \"No series is currently open\");\n        _;\n    }\n\n    /// @notice Require that the caller is the minter of the current series. This implicitely\n    ///         requires that a Series is open, or the minter address would be invalid (can never\n    ///         be matched).\n    /// @dev While in other contracts we use separate checking functions to avoid having the same\n    ///      string inlined in multiple places, given this modifier is scarcely used it doesn't seem\n    ///      worth the per-call gas cost here.\n    modifier onlyMinter() {\n        require(msg.sender == seriesMinter, \"Only callable by minter\");\n        _;\n    }\n\n    /// @notice Open a new Series of Cheeze Wizards! Can only be called by the COO when no Series is open.\n    /// @param minter The address which is allowed to mint Wizards in this series. This contract does not\n    ///         assume that the minter is a smart contract, but it will presumably be in the vast majority\n    ///         of the cases. A minter has absolute control over the creation of new Wizards in an open\n    ///         Series, but CAN NOT manipulate a Series after it has been closed, and CAN NOT manipulate\n    ///         any Wizards that don't belong to its own Series. (Even if the same minting address is used\n    ///         for multiple Series, the Minter only has power over the currently open Series.)\n    /// @param reservedIds The number of IDs (from 1 to reservedIds, inclusive) that are reserved for minting\n    ///         reserved Wizards. (We use the term \"reserved\" here, instead of Exclusive, because there\n    ///         are times -- such as during the importation of the Presale -- when we need to reserve a\n    ///         block of IDs for Wizards that aren't what a user would think of as \"exclusive\". In Series\n    ///         0, the reserved IDs will include all Exclusive Wizards and Presale Wizards. In other Series\n    ///         it might also be the case that the set of \"reserved IDs\" doesn't exactly match the set of\n    ///         \"exclusive\" IDs.)\n    function openSeries(address minter, uint256 reservedIds) external onlyCOO returns (uint64 seriesId) {\n        require(seriesMinter == address(0), \"A series is already open\");\n        require(minter != address(0), \"Minter address cannot be 0\");\n\n        if (seriesIndex == 0) {\n            // The Presale contract has stopped sales.\n            // The ID of the last wizard sold in the Presale contract is 5974.\n            // So the reservedIds for the first series is hardcoded with that ID in order to ensure:\n            // 1) The next Wizard minted will have its ID continued from the last Presale Wizard.\n            // 2) All the Presale wizards can be minted in this contract with their IDs reserved.\n            require(reservedIds == 5974, \"Invalid reservedIds for 1st series\");\n        } else {\n            require(reservedIds < 1 << 192, \"Invalid reservedIds\");\n        }\n\n        // NOTE: The seriesIndex is updated when the Series is _closed_, not when it's opened.\n        //  (The first Series is Series #0.) So in this function, we just leave the seriesIndex alone.\n\n        seriesMinter = minter;\n        nextWizardIndex = reservedIds + 1;\n\n        emit SeriesOpen(seriesIndex, reservedIds);\n\n        return seriesIndex;\n    }\n\n    /// @notice Closes the current Wizard Series. Once a Series has been closed, it is forever sealed and\n    ///         no more Wizards in that Series can ever be minted! Can only be called by the COO when a Series\n    ///         is open.\n    ///\n    ///    NOTE: A series can be closed by the COO or the Minter. (It's assumed that some minters will\n    ///          know when they are done, and others will need to be shut off manually by the COO.)\n    function closeSeries() external duringSeries {\n        require(\n            msg.sender == seriesMinter || msg.sender == cooAddress,\n            \"Only Minter or COO can close a Series\");\n\n        seriesMinter = address(0);\n        emit SeriesClose(seriesIndex);\n\n        // Set up the next series.\n        seriesIndex += 1;\n        nextWizardIndex = 0;\n    }\n\n    /// @notice ERC-165 Query Function.\n    function supportsInterface(bytes4 interfaceId) public view returns (bool) {\n        return interfaceId == _INTERFACE_ID_WIZARDGUILD || super.supportsInterface(interfaceId);\n    }\n\n    /// @notice Returns the information associated with the given Wizard\n    ///         owner - The address that owns this Wizard\n    ///         innatePower - The innate power level of this Wizard, set when minted and entirely\n    ///               immutable\n    ///         affinity - The Elemental Affinity of this Wizard. For most Wizards, this is set\n    ///               when they are minted, but some exclusive Wizards are minted with an affinity\n    ///               of 0 (ELEMENT_NOTSET). A Wizard with an NOTSET affinity should NOT be able\n    ///               to participate in Tournaments. Once the affinity of a Wizard is set to a non-zero\n    ///               value, it can never be changed again.\n    ///         metadata - A 256-bit hash of the Wizard's metadata, which is stored off chain. This\n    ///               contract doesn't specify format of this hash, nor the off-chain storage mechanism\n    ///               but, let's be honest, it's probably an IPFS SHA-256 hash.\n    ///\n    ///         NOTE: Series zero Wizards have one of four Affinities:  Neutral (1), Fire (2), Water (3)\n    ///               or Air (4, sometimes called \"Wind\" in the code). Future Wizard Series may have\n    ///               additional Affinities, and clients of this API should be prepared for that\n    ///               eventuality.\n    function getWizard(uint256 id) public view returns (address owner, uint88 innatePower, uint8 affinity, bytes32 metadata) {\n        Wizard memory wizard = wizardsById[id];\n        require(wizard.owner != address(0), \"Wizard does not exist\");\n        (owner, innatePower, affinity, metadata) = (wizard.owner, wizard.innatePower, wizard.affinity, wizard.metadata);\n    }\n\n    /// @notice A function to be called that conjures a whole bunch of Wizards at once! You know how\n    ///         there's \"a pride of lions\", \"a murder of crows\", and \"a parliament of owls\"? Well, with this\n    ///         here function you can conjure yourself \"a stench of Cheeze Wizards\"!\n    ///\n    ///         Unsurprisingly, this method can only be called by the registered minter for a Series.\n    /// @dev This function DOES NOT CALL onERC721Received() as required by the ERC-721 standard. It is\n    ///         REQUIRED that the Minter calls onERC721Received() after calling this function. The following\n    ///         code snippet should suffice:\n    ///                 // Ensure the Wizard is being assigned to an ERC-721 aware address (either an external address,\n    ///                 // or a smart contract that implements onERC721Received()). We must call onERC721Received for\n    ///                 // each token created because it's allowed for an ERC-721 receiving contract to reject the\n    ///                 // transfer based on the properties of the token.\n    ///                 if (isContract(owner)) {\n    ///                     for (uint256 i = 0; i < wizardIds.length; i++) {\n    ///                         bytes4 retval = IERC721Receiver(owner).onERC721Received(owner, address(0), wizardIds[i], \"\");\n    ///                         require(retval == _ERC721_RECEIVED, \"Contract owner didn't accept ERC721 transfer\");\n    ///                     }\n    ///                 }\n    ///        Although it would be convenient for mintWizards to call onERC721Received, it opens us up to potential\n    ///        reentrancy attacks if the Minter needs to do more state updates after mintWizards() returns.\n    /// @param powers the power level of each wizard\n    /// @param affinities the Elements of the wizards to create\n    /// @param owner the address that will own the newly created Wizards\n    function mintWizards(\n        uint88[] calldata powers,\n        uint8[] calldata affinities,\n        address owner\n    ) external onlyMinter returns (uint256[] memory wizardIds)\n    {\n        require(affinities.length == powers.length, \"Inconsistent parameter lengths\");\n\n        // allocate result array\n        wizardIds = new uint256[](affinities.length);\n\n        // We take this storage variables, and turn it into a local variable for the course\n        // of this loop to save about 5k gas per wizard.\n        uint256 tempWizardId = (uint256(seriesIndex) << SERIES_OFFSET) + nextWizardIndex;\n\n        for (uint256 i = 0; i < affinities.length; i++) {\n            wizardIds[i] = tempWizardId;\n            tempWizardId++;\n\n            _createWizard(wizardIds[i], owner, powers[i], affinities[i]);\n        }\n\n        nextWizardIndex = tempWizardId & INDEX_MASK;\n    }\n\n    /// @notice A function to be called that mints a Series of Wizards in the reserved ID range, can only\n    ///         be called by the Minter for this Series.\n    /// @dev This function DOES NOT CALL onERC721Received() as required by the ERC-721 standard. It is\n    ///         REQUIRED that the Minter calls onERC721Received() after calling this function. See the note\n    ///         above on mintWizards() for more info.\n    /// @param wizardIds the ID values to use for each Wizard, must be in the reserved range of the current Series.\n    /// @param powers the power level of each Wizard.\n    /// @param affinities the Elements of the Wizards to create.\n    /// @param owner the address that will own the newly created Wizards.\n    function mintReservedWizards(\n        uint256[] calldata wizardIds,\n        uint88[] calldata powers,\n        uint8[] calldata affinities,\n        address owner\n    )\n    external onlyMinter\n    {\n        require(\n            wizardIds.length == affinities.length &&\n            wizardIds.length == powers.length, \"Inconsistent parameter lengths\");\n\n        for (uint256 i = 0; i < wizardIds.length; i++) {\n            uint256 currentId = wizardIds[i];\n\n            require((currentId & SERIES_MASK) == (uint256(seriesIndex) << SERIES_OFFSET), \"Wizards not in current series\");\n            require((currentId & INDEX_MASK) > 0, \"Wizards id cannot be zero\");\n\n            // Ideally, we would compare the requested Wizard index against the reserved range directly. However,\n            // it's a bit wasteful to spend storage on a reserved range variable when we can combine some known\n            // true facts instead:\n            //         - nextWizardIndex is initialized to reservedRange + 1 when the Series was opened\n            //         - nextWizardIndex is only incremented when a new Wizard is created\n            //         - therefore, the only empty Wizard IDs less than nextWizardIndex are in the reserved range.\n            //         - _conjureWizard() will abort if we try to reuse an ID.\n            // Combining all of the above, we know that, if the requested index is less than the next index, it\n            // either points to a reserved slot or an occupied slot. Trying to reuse an occupied slot will fail,\n            // so just checking against nextWizardIndex is sufficient to ensure we're pointing at a reserved slot.\n            require((currentId & INDEX_MASK) < nextWizardIndex, \"Wizards not in reserved range\");\n\n            _createWizard(currentId, owner, powers[i], affinities[i]);\n        }\n    }\n\n    /// @notice Sets the metadata values for a list of Wizards. The metadata for a Wizard can only be set once,\n    ///         can only be set by the COO or Minter, and can only be set while the Series is still open. Once\n    ///         a Series is closed, the metadata is locked forever!\n    /// @param wizardIds the ID values of the Wizards to apply metadata changes to.\n    /// @param metadata the raw metadata values for each Wizard. This contract does not define how metadata\n    ///         should be interpreted, but it is likely to be a 256-bit hash of a complete metadata package\n    ///         accessible via IPFS or similar.\n    function setMetadata(uint256[] calldata wizardIds, bytes32[] calldata metadata) external duringSeries {\n        require(msg.sender == seriesMinter || msg.sender == cooAddress, \"Only Minter or COO can set metadata\");\n        require(wizardIds.length == metadata.length, \"Inconsistent parameter lengths\");\n\n        for (uint256 i = 0; i < wizardIds.length; i++) {\n            uint256 currentId = wizardIds[i];\n            bytes32 currentMetadata = metadata[i];\n\n            require((currentId & SERIES_MASK) == (uint256(seriesIndex) << SERIES_OFFSET), \"Wizards not in current series\");\n\n            require(wizardsById[currentId].metadata == bytes32(0), \"Metadata already set\");\n\n            require(currentMetadata != bytes32(0), \"Invalid metadata\");\n\n            wizardsById[currentId].metadata = currentMetadata;\n\n            emit MetadataSet(currentId, currentMetadata);\n        }\n    }\n\n    /// @notice Sets the affinity for a Wizard that doesn't already have its elemental affinity chosen.\n    ///         Only usable for Exclusive Wizards (all non-Exclusives must have their affinity chosen when\n    ///         conjured.) Even Exclusives can't change their affinity once it's been chosen.\n    ///\n    ///         NOTE: This function can only be called by the Series minter, and (therefore) only while the\n    ///         Series is open. A Wizard that has no affinity when a Series is closed will NEVER have an Affinity.\n    /// @param wizardId The ID of the Wizard to update affinity of.\n    /// @param newAffinity The new affinity of the Wizard.\n    function setAffinity(uint256 wizardId, uint8 newAffinity) external onlyMinter {\n        require((wizardId & SERIES_MASK) == (uint256(seriesIndex) << SERIES_OFFSET), \"Wizard not in current series\");\n\n        Wizard storage wizard = wizardsById[wizardId];\n\n        require(wizard.affinity == ELEMENT_NOTSET, \"Affinity can only be chosen once\");\n\n        // set the affinity\n        wizard.affinity = newAffinity;\n\n        // Tell the world this wizards now has an affinity!\n        emit WizardAffinityAssigned(wizardId, newAffinity);\n    }\n\n    /// @notice Returns true if the given \"spender\" address is allowed to manipulate the given token\n    ///         (either because it is the owner of that token, has been given approval to manage that token)\n    function isApprovedOrOwner(address spender, uint256 tokenId) external view returns (bool) {\n        return _isApprovedOrOwner(spender, tokenId);\n    }\n\n    /// @notice Verifies that a given signature represents authority to control the given Wizard ID,\n    ///         reverting otherwise. It handles three cases:\n    ///             - The simplest case: The signature was signed with the private key associated with\n    ///               an external address that is the owner of this Wizard.\n    ///             - The signature was generated with the private key associated with an external address\n    ///               that is \"approved\" for working with this Wizard ID. (See the Wizard Guild and/or\n    ///               the ERC-721 spec for more information on \"approval\".)\n    ///             - The owner or approval address (as in cases one or two) is a smart contract\n    ///               that conforms to ERC-1654, and accepts the given signature as being valid\n    ///               using its own internal logic.\n    ///\n    ///        NOTE: This function DOES NOT accept a signature created by an address that was given \"operator\n    ///               status\" (as granted by ERC-721's setApprovalForAll() functionality). Doing so is\n    ///               considered an extreme edge case that can be worked around where necessary.\n    /// @param wizardId The Wizard ID whose control is in question\n    /// @param hash The message hash we are authenticating against\n    /// @param sig the signature data; can be longer than 65 bytes for ERC-1654\n    function verifySignature(uint256 wizardId, bytes32 hash, bytes memory sig) public view {\n        // First see if the signature belongs to the owner (the most common case)\n        address owner = ownerOf(wizardId);\n\n        if (_validSignatureForAddress(owner, hash, sig)) {\n            return;\n        }\n\n        // Next check if the signature belongs to the approved address\n        address approved = getApproved(wizardId);\n\n        if (_validSignatureForAddress(approved, hash, sig)) {\n            return;\n        }\n\n        revert(\"Invalid signature\");\n    }\n\n    /// @notice Convenience function that verifies signatures for two wizards using equivalent logic to\n    ///         verifySignature(). Included to save on cross-contract calls in the common case where we\n    ///         are verifying the signatures of two Wizards who wish to enter into a Duel.\n    /// @param wizardId1 The first Wizard ID whose control is in question\n    /// @param wizardId2 The second Wizard ID whose control is in question\n    /// @param hash1 The message hash we are authenticating against for the first Wizard\n    /// @param hash2 The message hash we are authenticating against for the first Wizard\n    /// @param sig1 the signature data corresponding to the first Wizard; can be longer than 65 bytes for ERC-1654\n    /// @param sig2 the signature data corresponding to the second Wizard; can be longer than 65 bytes for ERC-1654\n    function verifySignatures(\n        uint256 wizardId1,\n        uint256 wizardId2,\n        bytes32 hash1,\n        bytes32 hash2,\n        bytes calldata sig1,\n        bytes calldata sig2) external view\n    {\n        verifySignature(wizardId1, hash1, sig1);\n        verifySignature(wizardId2, hash2, sig2);\n    }\n\n    /// @notice An internal function that checks if a given signature is a valid signature for a\n    ///         specific address on a particular hash value. Checks for ERC-1654 compatibility\n    ///         first (where the possibleSigner is a smart contract that implements its own\n    ///         signature validation), and falls back to ecrecover() otherwise.\n    function _validSignatureForAddress(address possibleSigner, bytes32 hash, bytes memory signature)\n        internal view returns(bool)\n    {\n        if (possibleSigner == address(0)) {\n            // The most basic Bozo check: The zero address can never be a valid signer!\n            return false;\n        } else if (Address.isContract(possibleSigner)) {\n            // If the address is a contract, it either implements ERC-1654 (and will validate the signature\n            // itself), or we have no way of confirming that this signature matches this address. In other words,\n            // if this address is a contract, there's no point in \"falling back\" to ecrecover().\n            if (doesContractImplementInterface(possibleSigner, ERC1654_VALIDSIGNATURE)) {\n                // cast to ERC1654\n                ERC1654 tso = ERC1654(possibleSigner);\n                bytes4 result = tso.isValidSignature(keccak256(abi.encodePacked(hash)), signature);\n                if (result == ERC1654_VALIDSIGNATURE) {\n                    return true;\n                }\n            }\n\n            return false;\n        } else {\n            // Not a contract, check for a match against an external address\n            // assume EIP 191 signature here\n            (bytes32 r, bytes32 s, uint8 v) = SigTools._splitSignature(signature);\n            address signer = ecrecover(keccak256(abi.encodePacked(\"\\x19Ethereum Signed Message:\\n32\", hash)), v, r, s);\n\n            // Note: Signer could be address(0) here, but we already checked that possibleSigner isn't zero\n            return (signer == possibleSigner);\n        }\n    }\n\n}\n",
  "sourcePath": "/data/contracts/WizardGuild.sol",
  "compiler": {
    "name": "solc",
    "version": "0.5.8+commit.23d335f2.Emscripten.clang"
  },
  "schemaVersion": "3.0.11",
  "updatedAt": "2019-10-02T18:38:11.942Z",
  "devdoc": {
    "methods": {
      "approve(address,uint256)": {
        "params": {
          "to": "address to be approved for the given Wizard",
          "wizardId": "ID of the Wizard to be approved"
        }
      },
      "balanceOf(address)": {
        "params": {
          "owner": "Address to query the balance of."
        },
        "return": "uint256 representing the amount of Wizards owned by the address."
      },
      "constructor": {
        "params": {
          "_cooAddress": "The COO has the ability to create new Series and to update         the metadata on the currently open Series (if any). It has no other special         abilities, and (in particular), ALL Wizards in a closed series can never be         modified or deleted. If the CEO and COO values are ever set to invalid addresses        (such as address(1)), then no new Series can ever be created, either."
        }
      },
      "getApproved(uint256)": {
        "params": {
          "wizardId": "ID of the Wizard to query the approval of"
        },
        "return": "address currently approved for the given Wizard"
      },
      "isApprovedForAll(address,address)": {
        "params": {
          "operator": "operator address which you want to query the approval of",
          "owner": "owner address which you want to query the approval of"
        },
        "return": "bool whether the given operator is approved by the given owner"
      },
      "mintReservedWizards(uint256[],uint88[],uint8[],address)": {
        "details": "This function DOES NOT CALL onERC721Received() as required by the ERC-721 standard. It is         REQUIRED that the Minter calls onERC721Received() after calling this function. See the note         above on mintWizards() for more info.",
        "params": {
          "affinities": "the Elements of the Wizards to create.",
          "owner": "the address that will own the newly created Wizards.",
          "powers": "the power level of each Wizard.",
          "wizardIds": "the ID values to use for each Wizard, must be in the reserved range of the current Series."
        }
      },
      "mintWizards(uint88[],uint8[],address)": {
        "details": "This function DOES NOT CALL onERC721Received() as required by the ERC-721 standard. It is         REQUIRED that the Minter calls onERC721Received() after calling this function. The following         code snippet should suffice:                 // Ensure the Wizard is being assigned to an ERC-721 aware address (either an external address,                 // or a smart contract that implements onERC721Received()). We must call onERC721Received for                 // each token created because it's allowed for an ERC-721 receiving contract to reject the                 // transfer based on the properties of the token.                 if (isContract(owner)) {                     for (uint256 i = 0; i < wizardIds.length; i++) {                         bytes4 retval = IERC721Receiver(owner).onERC721Received(owner, address(0), wizardIds[i], \"\");                         require(retval == _ERC721_RECEIVED, \"Contract owner didn't accept ERC721 transfer\");                     }                 }        Although it would be convenient for mintWizards to call onERC721Received, it opens us up to potential        reentrancy attacks if the Minter needs to do more state updates after mintWizards() returns.",
        "params": {
          "affinities": "the Elements of the wizards to create",
          "owner": "the address that will own the newly created Wizards",
          "powers": "the power level of each wizard"
        }
      },
      "openSeries(address,uint256)": {
        "params": {
          "minter": "The address which is allowed to mint Wizards in this series. This contract does not         assume that the minter is a smart contract, but it will presumably be in the vast majority         of the cases. A minter has absolute control over the creation of new Wizards in an open         Series, but CAN NOT manipulate a Series after it has been closed, and CAN NOT manipulate         any Wizards that don't belong to its own Series. (Even if the same minting address is used         for multiple Series, the Minter only has power over the currently open Series.)",
          "reservedIds": "The number of IDs (from 1 to reservedIds, inclusive) that are reserved for minting         reserved Wizards. (We use the term \"reserved\" here, instead of Exclusive, because there         are times -- such as during the importation of the Presale -- when we need to reserve a         block of IDs for Wizards that aren't what a user would think of as \"exclusive\". In Series         0, the reserved IDs will include all Exclusive Wizards and Presale Wizards. In other Series         it might also be the case that the set of \"reserved IDs\" doesn't exactly match the set of         \"exclusive\" IDs.)"
        }
      },
      "ownerOf(uint256)": {
        "params": {
          "wizardId": "ID of the Wizard to query the owner of"
        },
        "return": "address currently marked as the owner of the given Wizard"
      },
      "safeTransferFrom(address,address,uint256)": {
        "params": {
          "from": "current owner of the Wizard.",
          "to": "address to receive the ownership of the given Wizard.",
          "wizardId": "ID of the Wizard to be transferred."
        }
      },
      "safeTransferFrom(address,address,uint256,bytes)": {
        "params": {
          "_data": "bytes data to send along with a safe transfer check",
          "from": "current owner of the Wizard.",
          "to": "address to receive the ownership of the given Wizard.",
          "wizardId": "ID of the Wizard to be transferred."
        }
      },
      "setAffinity(uint256,uint8)": {
        "params": {
          "newAffinity": "The new affinity of the Wizard.",
          "wizardId": "The ID of the Wizard to update affinity of."
        }
      },
      "setApprovalForAll(address,bool)": {
        "params": {
          "approved": "representing the status of the approval to be set",
          "to": "operator address to set the approval"
        }
      },
      "setCeo(address)": {
        "params": {
          "newCeo": "The address of the new CEO"
        }
      },
      "setCfo(address)": {
        "params": {
          "newCfo": "The address of the new CFO"
        }
      },
      "setCoo(address)": {
        "params": {
          "newCoo": "The address of the new COO"
        }
      },
      "setMetadata(uint256[],bytes32[])": {
        "params": {
          "metadata": "the raw metadata values for each Wizard. This contract does not define how metadata         should be interpreted, but it is likely to be a 256-bit hash of a complete metadata package         accessible via IPFS or similar.",
          "wizardIds": "the ID values of the Wizards to apply metadata changes to."
        }
      },
      "transferFrom(address,address,uint256)": {
        "params": {
          "from": "current owner of the Wizard.",
          "to": "address to receive the ownership of the given Wizard.",
          "wizardId": "ID of the Wizard to be transferred."
        }
      },
      "verifySignature(uint256,bytes32,bytes)": {
        "params": {
          "hash": "The message hash we are authenticating against",
          "sig": "the signature data; can be longer than 65 bytes for ERC-1654",
          "wizardId": "The Wizard ID whose control is in question"
        }
      },
      "verifySignatures(uint256,uint256,bytes32,bytes32,bytes,bytes)": {
        "params": {
          "hash1": "The message hash we are authenticating against for the first Wizard",
          "hash2": "The message hash we are authenticating against for the first Wizard",
          "sig1": "the signature data corresponding to the first Wizard; can be longer than 65 bytes for ERC-1654",
          "sig2": "the signature data corresponding to the second Wizard; can be longer than 65 bytes for ERC-1654",
          "wizardId1": "The first Wizard ID whose control is in question",
          "wizardId2": "The second Wizard ID whose control is in question"
        }
      }
    },
    "title": "The master organization behind all Cheeze Wizardry. The source of all them Wiz."
  },
  "userdoc": {
    "methods": {
      "approve(address,uint256)": {
        "notice": "Approves another address to transfer the given Wizard The zero address indicates there is no approved address. There can only be one approved address per Wizard at a given time. Can only be called by the Wizard owner or an approved operator."
      },
      "balanceOf(address)": {
        "notice": "Gets the number of Wizards owned by the specified address."
      },
      "closeSeries()": {
        "notice": "Closes the current Wizard Series. Once a Series has been closed, it is forever sealed and         no more Wizards in that Series can ever be minted! Can only be called by the COO when a Series         is open.     ///    NOTE: A series can be closed by the COO or the Minter. (It's assumed that some minters will          know when they are done, and others will need to be shut off manually by the COO.)"
      },
      "constructor": "The Guild constructor.",
      "getApproved(uint256)": {
        "notice": "Gets the approved address for a Wizard, or zero if no address set Reverts if the Wizard does not exist."
      },
      "getWizard(uint256)": {
        "notice": "Returns the information associated with the given Wizard         owner - The address that owns this Wizard         innatePower - The innate power level of this Wizard, set when minted and entirely               immutable         affinity - The Elemental Affinity of this Wizard. For most Wizards, this is set               when they are minted, but some exclusive Wizards are minted with an affinity               of 0 (ELEMENT_NOTSET). A Wizard with an NOTSET affinity should NOT be able               to participate in Tournaments. Once the affinity of a Wizard is set to a non-zero               value, it can never be changed again.         metadata - A 256-bit hash of the Wizard's metadata, which is stored off chain. This               contract doesn't specify format of this hash, nor the off-chain storage mechanism               but, let's be honest, it's probably an IPFS SHA-256 hash.     ///         NOTE: Series zero Wizards have one of four Affinities:  Neutral (1), Fire (2), Water (3)               or Air (4, sometimes called \"Wind\" in the code). Future Wizard Series may have               additional Affinities, and clients of this API should be prepared for that               eventuality."
      },
      "isApprovedForAll(address,address)": {
        "notice": "Tells whether an operator is approved by a given owner."
      },
      "isApprovedOrOwner(address,uint256)": {
        "notice": "Returns true if the given \"spender\" address is allowed to manipulate the given token         (either because it is the owner of that token, has been given approval to manage that token)"
      },
      "mintReservedWizards(uint256[],uint88[],uint8[],address)": {
        "notice": "A function to be called that mints a Series of Wizards in the reserved ID range, can only         be called by the Minter for this Series."
      },
      "mintWizards(uint88[],uint8[],address)": {
        "notice": "A function to be called that conjures a whole bunch of Wizards at once! You know how         there's \"a pride of lions\", \"a murder of crows\", and \"a parliament of owls\"? Well, with this         here function you can conjure yourself \"a stench of Cheeze Wizards\"!     ///         Unsurprisingly, this method can only be called by the registered minter for a Series."
      },
      "openSeries(address,uint256)": {
        "notice": "Open a new Series of Cheeze Wizards! Can only be called by the COO when no Series is open."
      },
      "ownerOf(uint256)": {
        "notice": "Gets the owner of the specified Wizard"
      },
      "safeTransferFrom(address,address,uint256)": {
        "notice": "Safely transfers the ownership of a given Wizard to another address If the target address is a contract, it must implement `onERC721Received`, which is called upon a safe transfer, and return the magic value `bytes4(keccak256(\"onERC721Received(address,address,uint256,bytes)\"))`; otherwise, the transfer is reverted. Requires the msg.sender to be the owner, approved, or operator."
      },
      "safeTransferFrom(address,address,uint256,bytes)": {
        "notice": "Safely transfers the ownership of a given Wizard to another address If the target address is a contract, it must implement `onERC721Received`, which is called upon a safe transfer, and return the magic value `bytes4(keccak256(\"onERC721Received(address,address,uint256,bytes)\"))`; otherwise, the transfer is reverted. Requires the msg.sender to be the owner, approved, or operator"
      },
      "setAffinity(uint256,uint8)": {
        "notice": "Sets the affinity for a Wizard that doesn't already have its elemental affinity chosen.         Only usable for Exclusive Wizards (all non-Exclusives must have their affinity chosen when         conjured.) Even Exclusives can't change their affinity once it's been chosen.     ///         NOTE: This function can only be called by the Series minter, and (therefore) only while the         Series is open. A Wizard that has no affinity when a Series is closed will NEVER have an Affinity."
      },
      "setApprovalForAll(address,bool)": {
        "notice": "Sets or unsets the approval of a given operator. An operator is allowed to transfer all Wizards of the sender on their behalf."
      },
      "setCeo(address)": {
        "notice": "Assigns a new address to act as the CEO. Only available to the current CEO."
      },
      "setCfo(address)": {
        "notice": "Assigns a new address to act as the CFO. Only available to the current CEO."
      },
      "setCoo(address)": {
        "notice": "Assigns a new address to act as the COO. Only available to the current CEO."
      },
      "setMetadata(uint256[],bytes32[])": {
        "notice": "Sets the metadata values for a list of Wizards. The metadata for a Wizard can only be set once,         can only be set by the COO or Minter, and can only be set while the Series is still open. Once         a Series is closed, the metadata is locked forever!"
      },
      "supportsInterface(bytes4)": {
        "notice": "ERC-165 Query Function."
      },
      "transferFrom(address,address,uint256)": {
        "notice": "Transfers the ownership of a given Wizard to another address. Usage of this method is discouraged, use `safeTransferFrom` whenever possible. Requires the msg.sender to be the owner, approved, or operator."
      },
      "verifySignature(uint256,bytes32,bytes)": {
        "notice": "Verifies that a given signature represents authority to control the given Wizard ID,         reverting otherwise. It handles three cases:             - The simplest case: The signature was signed with the private key associated with               an external address that is the owner of this Wizard.             - The signature was generated with the private key associated with an external address               that is \"approved\" for working with this Wizard ID. (See the Wizard Guild and/or               the ERC-721 spec for more information on \"approval\".)             - The owner or approval address (as in cases one or two) is a smart contract               that conforms to ERC-1654, and accepts the given signature as being valid               using its own internal logic.     ///        NOTE: This function DOES NOT accept a signature created by an address that was given \"operator               status\" (as granted by ERC-721's setApprovalForAll() functionality). Doing so is               considered an extreme edge case that can be worked around where necessary."
      },
      "verifySignatures(uint256,uint256,bytes32,bytes32,bytes,bytes)": {
        "notice": "Convenience function that verifies signatures for two wizards using equivalent logic to         verifySignature(). Included to save on cross-contract calls in the common case where we         are verifying the signatures of two Wizards who wish to enter into a Duel."
      }
    }
  }
}